:020000040800F2
:10000000005000202D12000808B50020014B984731
:1000100008BD00BFCD15000830B50A4A83B090472F
:10002000002409488047094D094B4FF47A71022298
:1000300020460094A847204606498847064B984723
:10004000FEE700BF051300085D000008FD19000869
:1000500009000008191A00085D03000808B5054BDF
:10006000984718B10448054A904708BD0448034919
:10007000884708BD79010008384C0008F50D0008D4
:100080001C4C000810B5064C0020A082054B984778
:10009000A08210B90121218010BD022010BD00BF37
:1000A000C00400205526000810B50F4C00212289FD
:1000B000B4F80AC0904238BF1046604528BF604679
:1000C000A1820A4B984710B1A082022010BD4FF4C4
:1000D000FA70074B98470028F8D101200549884756
:1000E0000028F3D0F0E700BFC0040020D1250008AD
:1000F000592500080125000810B50F4C0021A289E0
:10010000B4F80EC0904238BF1046604528BF604624
:10011000A1820A4B984710B1A082022010BD4FF473
:10012000FA70074B98470028F8D101200549884705
:100130000028F3D0F0E700BFC0040020912500089C
:1001400059250008D9240008084A08B51388012B4E
:1001500007D0022B01D0032008BD908904498847AD
:1001600008BD1089034B984708BD00BFC00400209C
:10017000F9000008A900000808B50F4880470F489B
:1001800041F6B05342F626214FF4027203814181B9
:100190000023828140F2AE6C00223F218380A0F8D0
:1001A0000EC0C180028042808282054B984708B908
:1001B000044A904708BD00BF65230008C004002022
:1001C000850000084901000838B5164C002023219D
:1001D00054222D23144DA84794F9005003220A35C8
:1001E00000232821A8B2114DA84711498847114979
:1001F00023780A78D018C0B2C3B25AB2442A237006
:1002000005DD421ED3B2FF20087023705AB2002AC7
:1002100003DA0133012008702370074B1A78511C50
:10022000197038BD01040020592B0008552C000816
:10023000492B0008010000200004002038B5164CAE
:100240000020192154222323144DA84794F900506B
:1002500005220A3500231E21A8B2114DA8471149D5
:100260008847114923780A78D018C0B2C3B25AB26D
:10027000442A237005DD421ED3B2FF20087023708C
:100280005AB2002A03DA0133012008702370074BA9
:100290001A78511C197038BD04040020592B00082D
:1002A000552C0008492B0008000000200304002002
:1002B00038B5114D114C1248A0472846A0471148A7
:1002C000A0472846A0471048A0471048A04710481C
:1002D000A0471048A0471048A0471048A047104822
:1002E000A0471048A0471048A0471048A0472846FC
:1002F000A0470F48A04738BD504C0008F50D000836
:100300004C4C00088C4C0008C44C0008004D000800
:100310003C4D0008784D0008B44D0008F04D000831
:100320002C4E0008684E0008A44E0008E04E00085D
:100330001C4F000838B50548054CA047054B9847A9
:1003400005460548A047284638BD00BF204F000895
:10035000F50D0008F11400081C4F00082DE9F043CA
:10036000002483B0DFF8EC91C8476C4D01203221A6
:1003700002226B4B0094A84702200094642102469D
:10038000684BA847684C694FDFF8CC81684DA0479F
:10039000A0F13103002800F089803C2BF7D801A29E
:1003A00052F823F00F050008EF040008BD04000810
:1003B000B3040008990400088F0300088F030008A5
:1003C0008F0300088F0300088F0300088F030008C5
:1003D0008F0300088F0300088F0300088F030008B5
:1003E0008F0300088F0300088F0300088F030008A5
:1003F0008F0300088F0300088F0300088F03000895
:100400008F0300088F0300088F0300088F03000884
:100410008F030008190500088F0300088F030008E8
:100420008F0300088F0300088F0300088F03000864
:100430008F0300088F0300088F0300088F03000854
:100440008F0300088F0300088F0300088F03000844
:100450008F0300088F0300088F0300088F03000834
:100460008F0300088F0300088F0300088F03000824
:100470008F0300088F0300088F0300088F03000814
:100480008F0300088F0300088F0300088F03000804
:100490008F030008190500080120B8470220B8475B
:1004A000A047A0F1310300287FF477AF03B0BDE887
:1004B000F0830120C0470220C04768E71D48A847D5
:1004C000002001461C4A1D4EB047DFF890E01C4A50
:1004D0009EF80000022100F1FF3C5FFA8CFC6346AD
:1004E00000208EF800C0B047164988474FE71648ED
:1004F000A84700200146104A104EB047DFF85CE0E4
:1005000002219EF800C00E4A0CF1010CE5E70F48ED
:10051000A8470F4B98473AE7C84738E7FD19000846
:100520003D020008C9010008350300082D1A000823
:10053000F50D0008584F00083C4F0008092C000832
:100540004C4F0008492B0008304F0008244F00088A
:10055000F92A0008B1020008191A00080204002054
:1005600038B5094902460B7853B10848084905686F
:100570000C682A550268631C00200B60D05438BDFB
:10058000044A904738BD00BF0C040020D804002066
:1005900008040020C114000838B548B141B10878FA
:1005A00030B1044D0C46A84714F8010F0028FAD1C9
:1005B00038BD00BF6105000810B4E0B10278E2B1B7
:1005C00000220A600378ABB1A3F13004E4B2092C35
:1005D00002D912E0092C12D802EB820203EB42028C
:1005E000303A0A6010F8013FA3F1300C5FFA8CF446
:1005F000002BEFD1012010BC70471046FBE7002014
:10060000F9E700BF2DE9F043037885B000260546E1
:1006100089460396002B00F09280642B00F08F80B7
:100620009D4F3446B046A3F13100C2B2082A00F211
:1006300082802A5DA2F13001CBB2092B00F22A811F
:10064000002368460134C2542A5D0133A2F1300E02
:100650005FFA8EFCBCF1090FF4D904A8C21803A9F3
:10066000684602F8108C013CB84701342B5D0BB191
:10067000642BD8D1039B002B61D0092B00F30081A0
:10068000591E00F0B48101399C1ED81E01F00105ED
:1006900064234A1E81B12DB1013AB2F1FF3F4FF4FC
:1006A0007A7309D003EB8303D90001EB4305023AC7
:1006B0006B00B2F1FF3FF5D199FBF3F803FB1899FA
:1006C000002C00F0988100F001026424431E80B1E8
:1006D0002AB1013BB3F1FF3F4FF47A7409D004EB28
:1006E0008400C20002EB4004023B6400B3F1FF3F10
:1006F000F5D16A4F6A4D4FF0010899FBF4F3D8B277
:10070000303004FB1399002B40F0C080012C00F026
:10071000BD80B8F1000F00F0B980302006B920206C
:10072000B84785FB041CE117C1EBAC04002CE4DCEA
:1007300005B0BDE8F083302B08BF012695E7594985
:100740004FEAE97581FB0903574CC5EB237304FBA2
:100750001399002B40F0C08054484FEAE97E80FB9B
:100760000905534ACEEB65634C4C012102FB1395FE
:10077000002B00F0C580DBB203F13000A0474D48EC
:10078000EB1780FB050C4C4AC3EBAC53002102FB7A
:100790001355002B00F0C480D9B201F13000A047FE
:1007A0004648EB1780FB050E454AC3EBAE430021DC
:1007B00002FB1355002B00F0C3805FFA83FC0CF1A1
:1007C0003000A0473F48EB1780FB050E3E4AC3EBC5
:1007D0006E33002102FB1355002B00F0C180D9B20B
:1007E00001F13000A0473948EB1780FB050242F2C7
:1007F000107CC3EB223300210CFB1355002B00F0BF
:10080000C0805FFA83FE0EF13000A0473048EB173E
:1008100080FB05024FF47A7CC3EBA21300210CFB92
:100820001355002B00F0BE80D9B201F13000A04773
:100830002848EB1780FB050E6422C3EB6E130021E2
:1008400002FB1355002B00F0BD805FFA83FC0CF116
:100850003000A0471248EB1780FB050EC3EBAE0338
:1008600003EB83020021A5EB4205002B00F0BB80C7
:10087000D9B201F13000A047E8B23030A04757E7C5
:1008800007240927039706202146FFE6B8474FF0C3
:10089000000846E70023E0E6B90500086105000806
:1008A00067666666A12FB84400CA9A3B893BE65545
:1008B00000E1F5056BCA5F6B8096980083DE1B43F1
:1008C00040420F0089B5F814A0860100AD8BDB68AB
:1008D000D34D62101F85EB515FFA83FC0CF13000A1
:1008E000464CA04746484FEAE97E80FB0905454A49
:1008F000CEEB6563002102FB1395002B7FF43BAF29
:1009000000293FF438AF4048EB1780FB050C3F4A05
:10091000C3EBAC53012102FB1355002B7FF43CAF1A
:1009200000293FF439AF3A48EB1780FB050E394AEE
:10093000C3EBAE43012102FB1355002B7FF43DAF07
:1009400000293FF43AAF3448EB1780FB050E334AD9
:10095000C3EB6E33012102FB1355002B7FF43FAF35
:1009600000293FF43CAF2E48EB1780FB050242F212
:10097000107CC3EB223301210CFB1355002B7FF4B9
:1009800040AF00293FF43DAF2648EB1780FB05023E
:100990004FF47A7CC3EBA21301210CFB1355002BFF
:1009A0007FF442AF00293FF43FAF1F48EB1780FBB5
:1009B000050E6422C3EB6E13012102FB1355002BBD
:1009C0007FF443AF00293FF440AF1848EB1780FB9A
:1009D000050EC3EBAE0303EB83020121A5EB420539
:1009E000002B7FF445AF00297FF446AF40E79C1E03
:1009F000D81E0A2360E60A247BE600BF61050008D2
:100A0000893BE65500E1F5056BCA5F6B809698005F
:100A100083DE1B4340420F0089B5F814A086010015
:100A2000AD8BDB68D34D62101F85EB516766666640
:100A30002DE9F047037886B000260546019105961A
:100A4000002B00F0AD81782B28D0A84F3446B0465B
:100A5000A3F13100C2B2082A00F2B8802A5DA2F1E7
:100A60003001CBB2092B00F27481002302A80134BB
:100A7000C2542A5D0133A2F1300E5FFA8EFCBCF144
:100A8000090FF4D906A9CA1802F8108C05A9013C6F
:100A9000B84701342B5D0BB1782BD9D1019B059A56
:100AA00003F47F0103F47F40091241EA002141EA87
:100AB000036C4CEA13600190002A00F08B8012F066
:100AC000010F40F017810127C2F1080C0CEBDC701C
:100AD0004310032B77DC01ADE9180C4614F801EB49
:100AE000CB435FEA1E1205F1040903F0010A804DB1
:100AF0000EF00F0800F03A81092A40F2678102F1F6
:100B00003700A8470027B8F1000F00F02981B8F19D
:100B1000090F40F25E8108F13700A84700274C45D5
:100B200051D0BAF1000F19D014F8011B0B0901F0D4
:100B30000F0833D0092B40F24F8103F13700A8474B
:100B40000027B8F1000F34D0B8F1090F40F2478107
:100B500008F13700A84700274C4534D014F8012B82
:100B6000130902F00F0800F0D980092B40F23A81F6
:100B700003F13700A8470027B8F1000F00F0D78035
:100B8000B8F1090F40F2108108F13700A84714F8B6
:100B9000011B00270B0901F00F08CBD1002F00F03B
:100BA0001B81002E40F0CC802020A847B8F1000F18
:100BB000CAD1002F00F01381002E40F0BE8020200B
:100BC000A8474C45CAD106B0BDE8F087302B08BF16
:100BD00001265EE79DF80400030900F00F0448D0E9
:100BE000092B40F2F08003F13700414DA847002364
:100BF000002C42D1002B00F0F8809DF805C00122A6
:100C00005FEA1C130CF00F0445D0092B40F2CF8093
:100C100003F13700A8470023002C42D1002B00F03D
:100C2000C9809DF806E001225FEA1E130EF00F0452
:100C300045D0092B40F2C18003F13700A8470023BB
:100C4000002C41D1002B00F0BB809DF80730012221
:100C500003F00F041B0943D0092B43D903F13700DC
:100C6000A847002C78D0092C76D904F13700A84782
:100C7000A9E701231E4D002CBCD0092C40F2B58001
:100C800004F13700A8479DF805C000225FEA1C1355
:100C90000CF00F04B9D1002A00F089800123002C48
:100CA000BCD0092C40F2868004F13700A8479DF89B
:100CB00006E000225FEA1E130EF00F04B9D1002AED
:100CC0007BD00123002CBDD0092C79D904F1370049
:100CD000A8479DF80730002203F00F041B09BBD181
:100CE000002ABED103F13000A847BAE7B9050008D1
:100CF00061050008D043083000EBD07253100DF1AD
:100D0000040E1EF8037017F00F033BD0092B49D9CE
:100D100037331846364B9847002738E0002F61D00C
:100D20008EB13020A847B8F1000F7FF429AF002F13
:100D30003AD05EB13020A847F6E63020A8470BE74E
:100D40003020A847FDE62020A84715E72020A84727
:100D5000EAE6002302A895E604F13000A84732E74E
:100D6000002F36D05EB13020A847D8E6002F2DD016
:100D700016B13020A847C6E62020A847C3E62020A9
:100D8000A847CCE63EB13020194988470127059A8B
:100D9000013A059298E6164F2020B8470127F6E75A
:100DA0001E467BE63033B4E708F13000EEE603F18F
:100DB00030002FE704F1300078E703F130003DE721
:100DC00004F1300084E703F130000EE702F1300057
:100DD00097E608F13000A0E603F13000AFE608F135
:100DE0003000B7E603F13000C4E604F1300049E713
:100DF000610500080FB42DE9F04184B00AAD7E4BC7
:100E0000002255F8044B7D4EDFF8FC817C4F1A70B0
:100E10002078002800F0B880252840F0BA808DF8AE
:100E2000040060780134A0F1630C5FFA8CF10129B1
:100E300040F2C980732800F0C680782800F0C38093
:100E4000252800F0C0808DF8050014F8010FA0F1EE
:100E50006303DAB2012A40F2BF80732800F0BC803D
:100E6000782800F0B980252800F0B6808DF80600BB
:100E700014F8010FA0F1630C5FFA8CF1012940F224
:100E8000AD80732800F0AA80782800F0A78025287C
:100E900000F0A4808DF8070014F8010FA0F163039F
:100EA000DAB2012A40F29C80732800F099807828F9
:100EB00000F09680252800F093808DF8080014F843
:100EC000010FA0F1630C5FFA8CF1012940F28A80D6
:100ED000732800F08780782800F08480252800F0AF
:100EE00081808DF8090014F8010FA0F16303DAB2D4
:100EF000012A79D9732877D0782875D0252873D01E
:100F00008DF80A0014F8010FA0F1630C5FFA8CF160
:100F100001296BD9732869D0782867D0252865D036
:100F20008DF80B0014F8010FA0F16303DAB2012A67
:100F30005ED973285CD078285AD0252858D08DF8EF
:100F40000C0014F8010FA0F1630C5FFA8CF1012979
:100F500050D973284ED078284CD025284AD08DF807
:100F60000D0014F8010F0134642827D014D8252867
:100F70001DD063287FF44CAF55F8040BC0B2B047C6
:100F8000207800287FF448AF04B0BDE8F04104B0F9
:100F90007047B04701343BE773280AD078287FF4C4
:100FA00037AF01A855F8041B164A904730E7B04701
:100FB0002EE701A855F8041BB84729E701A855F802
:100FC000041BC04724E7012304A9CB18002203F81F
:100FD0000C0C03F80B2CC6E70223F5E70323F3E719
:100FE0000423F1E70523EFE70623EDE70723EBE70B
:100FF0000823E9E70923E7E70C040020610500085E
:1010000099050008310A0008050600082DE9F0419D
:101010007F4F01257F4C804B3D7016467F4D00224F
:10102000DFF804827E4F206084B01A600C4620787E
:10103000002800F0B780252840F0B7808DF8040024
:1010400060780134A0F1630C5FFA8CF1012940F261
:10105000C680732800F0C380782800F0C08025285F
:1010600000F0BD808DF8050014F8010FA0F16303B6
:10107000DAB2012A40F2BC80732800F0B9807828E7
:1010800000F0B680252800F0B3808DF8060014F833
:10109000010FA0F1630C5FFA8CF1012940F2AA80E4
:1010A000732800F0A780782800F0A480252800F09D
:1010B000A1808DF8070014F8010FA0F16303DAB2E4
:1010C000012A40F29980732800F09680782800F079
:1010D0009380252800F090808DF8080014F8010F07
:1010E000A0F1630C5FFA8CF1012940F2878073282C
:1010F00000F08480782800F0818025287ED08DF84B
:10110000090014F8010FA0F16303DAB2012A77D9BC
:10111000732875D0782873D0252871D08DF80A00EF
:1011200014F8010FA0F1630C5FFA8CF1012969D961
:10113000732867D0782865D0252863D08DF80B00F8
:1011400014F8010FA0F16303DAB2012A5CD9732805
:101150005AD0782858D0252856D08DF80C0014F88D
:10116000010FA0F1630C5FFA8CF101294ED97328AD
:101170004CD078284AD0252848D08DF80D0014F896
:10118000010F0134642825D012D825281BD06328EC
:101190007FF44DAF56F8040BC0B2A8472078002862
:1011A0007FF449AF04B0BDE8F081A84701343EE7C1
:1011B00073280AD078287FF43AAF01A856F8041BA8
:1011C000184A904733E7A84731E701A856F8041BAF
:1011D000B8472CE701A856F8041BC04727E70123AE
:1011E00004A9CB18002203F80C0C03F80B2CC8E759
:1011F0000223F5E70323F3E70423F1E70523EFE7F1
:101200000623EDE70723EBE70823E9E70923E7E7F0
:101210000C040020D8040020080400206105000808
:1012200099050008310A000805060008684620F004
:1012300007018D4679B52B492B4CA14221D22B4871
:101240000B46024652F8046BCD4343F8046B651914
:10125000A342C5F3800514D23DB1156800F1080220
:101260001D6001F10803A3420BD2104650F8045B45
:10127000194641F8045B5568021D5D600B1DA342D1
:10128000F3D31E481E494FF000028842B8BF40F811
:10129000042BFADB1649002308680A4640F4803024
:1012A000086006E0106810F4003F07D1B3F5A06FA6
:1012B00004D01168023311F4003FF3D00D490B68DC
:1012C00043F0100008600A6822F003030B6008680E
:1012D000094B40F002020A609847BDE87940854614
:1012E000704700BF00000020100300201C500008C1
:1012F00000100240002002401900000800040020F5
:101300003C16002008B510488047104B98471048FD
:1013100010494FF0333202600F4B4160C0F8002497
:10132000C0F804240D4A0E491A6088470D488047CA
:101330000D4B98470D4A90470D4988470D48804707
:101340000D4B984708BD00BF011500082D17000878
:1013500000080140B33433330410014044444433A3
:10136000A9300008591400088D150008A9170008B5
:1013700065230008E1280008611A000882B00021F6
:101380000191019B984205D901994B1C0193019A47
:101390008242F9D302B0704782B00021019100EB84
:1013A0004000019B42009A4205D90199481C0190D6
:1013B000019B9A42F9D802B0704700BF00B50548BA
:1013C00083B0026802A9002001F8012D024B984762
:1013D00003B000BD043801404116000870B5124D3D
:1013E000124C2B68002243F480462E600C252560A9
:1013F0000F4D104B40F271262A606A6045F8086C68
:101400001E680D4D46F020061E602368686043F09C
:101410002003A960252023600849094B98472068CC
:1014200040F40053236070BD181002400C38014096
:101430001038014004E100E0DC040020BD13000886
:101440003D17000808B518B90846024B11469847E1
:1014500008BD00BFDD13000810B50A480A4C8047DC
:10146000002318461A466360A36023616361E36149
:101470002362A362E3626363A3634FF4E131034B2E
:10148000984710BDE1150008DC0400204514000851
:1014900030B5002383B0084D04468DF80730204650
:1014A000A8470028FBD020460DF10701034A9047CA
:1014B0009DF8070003B030BD0D160008B9160008EE
:1014C0000A2808D0084AC0B2136813F0800FFBD076
:1014D000064A10607047044A136813F0800FFBD06F
:1014E00002490D220A60EDE700380140043801404E
:1014F00008B50020014B984708BD00BF91140008B3
:101500001F4B204918680A4620F47C1C2CF0F00080
:101510001860186840F4E8101860086840F080739C
:101520000B60116811F0007FFBD0154B18681A464C
:1015300020F003011960186840F002011960186872
:1015400020F480011960186820F4E06119601868BF
:1015500040F480611960186820F4605119601868BF
:101560001860136803F00C0CBCF1080FF9D1064A9F
:10157000136843F4804040F01D011160704700BFC4
:101580000410024000100240181002400C4A0D4B9B
:1015900010680D4920F0E0601060106840F0806035
:1015A00010601A6822F4704018601A6842F44050C3
:1015B00018601A681A60086840F008030B607047EA
:1015C00004000140000C01400C0C014020B9034B09
:1015D000186880F008021A60704700BF0C0C0140C8
:1015E0000849094A00230B8013804B8053808B806D
:1015F0009380CB80D3800B8113814B8153818B816E
:1016000093817047100600202006002009490A4BEC
:1016100031F9101033F91020203108488B1A03EAF1
:101620000000002800DB7047421E62F01F000130FE
:10163000704700BF20060020100600201F00008019
:10164000194A70B4194E32F8104036F9105022B2CF
:1016500002F12006164B751B05EA0303002B16DB6F
:101660001F2B1AD00134124B450124B22E1804EA64
:1016700003030D780F4906EB020C002B01F80C5008
:101680000DDB094A22F81030012070BC7047013B85
:1016900063F01F0301331F2BE4D10020F5E7591E2F
:1016A00061F01F02531CECE720060020100600200A
:1016B0001F0000801805002030B4184A184C32F87A
:1016C000102034F91050174B203514B22D1B05EAA9
:1016D0000303002B14DBCBB143011D182C1901327D
:1016E000104B114D0FFA82FC2C5D0CEA0303002B0A
:1016F0000C700DDB094921F81030012030BC704717
:10170000013B63F01F030133002BE5D11846F5E7D9
:101710005A1E62F01F014B1CECE700BF10060020B0
:10172000200600201F00008018050020014B024AFF
:101730001A60704708ED00E000080020024B1030EE
:1017400043F82010704700BF00080020024B8008BB
:1017500043F82010704700BF0008002008B53C2067
:1017600002490022024B984708BD00BFF11900084A
:101770004D170008094A0A490A4B002011605060C1
:10178000196841F0040018601A6842F002011960FB
:10179000186840F001021A60704700BF14E000E0D2
:1017A0003F19010010E000E010B51A4C2378012B1E
:1017B0002ED0194B002018705880988098601874AB
:1017C00058829882986183F820005884988498629F
:1017D00083F8300058869886986383F84000A3F811
:1017E0004200A3F84400986483F85000A3F8520024
:1017F000A3F85400986583F86000A3F86200A3F88A
:1018000064009866054A9047054988470120207082
:1018100010BD00BF84040020100400205D170008E4
:101820007517000810B56F4C6F4A2368591C21606A
:10183000108883B213B11188481E10806B4C227837
:10184000012A1ED0237C694A012B30D094F8203025
:10185000664A012B41D094F83030644A012B52D0B3
:1018600094F84030614A012B63D094F850305F4ABD
:10187000012B76D094F860305C4A012B00F08A800E
:1018800010BD6088431E9BB26380002BDAD194F8B0
:1018900001C0BCF1010F00F09680B4F804E0A1682B
:1018A000A4F802E08847237C504A012BCED1518A0C
:1018B000481E83B25382002BC8D192F811C0BCF1EC
:1018C000010F7ED0B4F814E0A269A4F812E09047AA
:1018D00094F82030454A012BBDD1518C481E83B26B
:1018E0005384002BB7D192F821C0BCF1010F75D001
:1018F000B4F824E0A26AA4F822E0904794F83030CB
:101900003A4A012BACD1518E481E83B25386002B2C
:10191000A6D192F831C0BCF1010F5CD0B4F834E02C
:10192000A26BA4F832E0904794F840302F4A012B84
:101930009BD1B2F84210481E83B2A2F84230002B6D
:1019400093D192F841C0BCF1010F41D0B4F844E00A
:10195000A26CA4F842E0904794F85030234A012B3F
:1019600088D1B2F85210481E83B2A2F85230002B30
:1019700080D192F851C0BCF1010F26D0B4F854E0E8
:10198000A26DA4F852E0904794F86030174A012BFA
:101990007FF476AFB2F86210481E83B2A2F86230CC
:1019A000002B7FF46DAF92F861E0B4F864C0BEF133
:1019B000010F08BF82F86030A4F862C0A26E9047A1
:1019C00010BD13747EE7237067E782F85030D5E7C7
:1019D00082F84030BAE782F830309FE782F8203052
:1019E00086E700BF80040020860400201004002049
:1019F00008B5014B984708BD2518000810B4054CE0
:101A000004EB001042708360019B4180C3608180C1
:101A100010BC704710040020062803D8024B0001B8
:101A200001221A54704700BF10040020062803D872
:101A3000024B000100221A54704700BF100400201E
:101A4000034B1880188882B2002AFBD1704700BF70
:101A500086040020014B1868704700BF80040020F6
:101A600008B5044A90470449884704488047044B16
:101A7000984708BD95390008B1390008F1390008C8
:101A80008546000808B5014B984708BD1D1B000896
:101A900010B5014CA04710BD9522000810B5014CAF
:101AA000A04710BD7521000838B50546054C0A2031
:101AB000A04725B9044B186840F040021A600A207C
:101AC000A04738BD991300080C0C0140104B10B50D
:101AD0001968002021F070621A6019680D4C41F0FD
:101AE00040721A60196819601A6822F07041196012
:101AF0001A6842F0405119601A681A60A047064BF4
:101B00000120196841F080021A60A04710BD00BF93
:101B1000000C0140A91A00080C0C014008B5014B4B
:101B2000984708BDCD1A000838B50546054C0A206F
:101B3000A04725B9044B186820F040021A600A201B
:101B4000A04738BD991300080C0C014070B505463C
:101B500080B90C4E0C4933680C4C23F08002326083
:101B600088472846A047306840F080033360284605
:101B7000A04770BD044CA0472846044CA047284607
:101B8000A04770BD0C0C0140291B0008A91A0008D1
:101B900070B504460B4DA84774B90B4E2046326809
:101BA00042F080013160A847306820F08003336044
:101BB0002046064B984770BD2046A8472046034B59
:101BC000984770BDA91A00080C0C0140291B000899
:101BD00078B9084B084A196821F0704018601968F4
:101BE0001960186840F000411960106840F08003E7
:101BF00013607047000C01400C0C01402DE9F843C4
:101C000004465D4B0F465D4D98472046A847002C83
:101C100040F08980DFF86C812046D8F80090584E5B
:101C2000B047C9F3C01120464FEA4109A847D8F888
:101C300000005FFA89F910F0800F01D049F0010926
:101C40000020B04700204FEA490C5FFA8CF8A84703
:101C50004C4B186810F0800F01D048F001080020AC
:101C6000B0470020A847474A4FEA480811685FFA82
:101C700088F811F0800F01D048F001080020B0472B
:101C800000204FEA480C5FFA8CF8A8473D4B1868D3
:101C900010F0800F01D048F001080020B04700206C
:101CA000A847384A4FEA480811685FFA88F811F0E7
:101CB000800F01D048F001080020B04700204FEA13
:101CC000480C5FFA8CF8A8472E4B186810F0800F6C
:101CD00001D048F001080020B0470020A847294A59
:101CE0004FEA4808116811F0800F01D048F0010850
:101CF0000020B047244B87F800801A68234822F060
:101D0000704119601A6842F0405119601A681A60EF
:101D1000016821F0800303602046A8472046B047B1
:101D20000020BDE8F883164E2046B0472046A8475D
:101D30002046B0472046A8472046B0472046A8473F
:101D40002046B0472046A8472046B0472046A8472F
:101D50002046B0472046A8472046B0472046A8471F
:101D60002046B04700223A702046A8472046B04798
:101D70000020BDE8F88300BFD11B0008A91A0008A5
:101D8000291B0008080C0140000C01400C0C01400C
:101D90002DE9F8430446534B8846534D9847204657
:101DA000A847002C75D1514F2046D7F80090504ECF
:101DB000B047C9F3C01120464FEA4109A847386827
:101DC0005FFA89F910F0800F01D049F00109002075
:101DD000B0474FEA490C00205FFA8CF7A847434907
:101DE0000B6813F0800F01D047F001070020B047C7
:101DF0000020A8473D487F000268FFB212F0800F24
:101E000001D047F001070020B0477A000020D7B288
:101E1000A84736490B6813F0800F01D047F001073F
:101E20000020B0470020A847304B7F001868FFB261
:101E300010F0800F01D047F001070020B0477B0071
:101E40000020DFB2A847294A116811F0800F01D0A5
:101E500047F001070020B0470020A84723497F0032
:101E6000086810F0800F01D047F001070020B0474C
:101E7000204A214B106840F080011160186820F062
:101E800070421A60196841F0405018601A681A6070
:101E90001FE0174E2046B0472046A8472046B047CF
:101EA0002046A8472046B0472046A8472046B047CE
:101EB0002046A8472046B0472046A8472046B047BE
:101EC0002046A8472046B0472046A8472046B047AE
:101ED00000272046A8472046B04788F80070002019
:101EE000BDE8F883D11B0008A91A0008080C0140BE
:101EF000291B00080C0C0140000C014011F0800F60
:101F0000F8B50F46044640F01181002800F0FF802C
:101F100020467F00914EB047914D2046FFB2A84722
:101F200017F0800F40F0F980002C00F0D880204698
:101F30007F00B047FFB22046A84717F0800F40F05F
:101F4000DD80002C00F0B38020467F00B047FFB258
:101F50002046A84717F0800F40F0B880002C00F012
:101F60008E8020467F00B047FFB22046A84717F07A
:101F7000800F40F09380002C6BD020467F00B0474C
:101F8000FFB22046A84717F0800F70D1002C4AD02E
:101F900020467F00B047FFB22046A84717F0800FC9
:101FA0004FD1002C2AD02046B0472046A84717F032
:101FB000400F2FD1002C40F0C2806A490C6824F0F9
:101FC000800008600020B0470020A847664A002033
:101FD00090470020B047654B00201C68A847644824
:101FE000C4F3C014016821F070420260036843F03A
:101FF00040510160026802602046F8BD59490B68F3
:1020000023F0800008602046B0472046A84717F01C
:10201000400FCFD0002C40F09280524B1A6842F013
:1020200080041C60CEE74F4B7F001868FFB220F0A1
:1020300080021A602046B0472046A84717F0800F5C
:10204000AFD0002CAFD14748016841F08002026058
:10205000A9E744497F000B68FFB223F080000860C5
:102060002046B0472046A84717F0800F8ED0002C9E
:102070008ED13C4B1A6842F08001196088E7394BD9
:102080007F001868FFB220F080021A602046B04737
:102090002046A84717F0800F3FF46DAF002C7FF467
:1020A0006CAF3048016841F08002026065E72D495D
:1020B0007F000B68FFB223F0800008602046B04725
:1020C0002046A84717F0800F3FF448AF002C7FF45C
:1020D00048AF244B1A6842F08001196041E7214B58
:1020E0007F001868FFB220F080021A602046B047D7
:1020F0002046A84717F0800F3FF423AF002C7FF451
:1021000023AF1848016841F0800202601CE7154BBC
:10211000186820F080021A60FAE6002C7FF407AFFE
:10212000104B1A6842F08001196000E700287FF424
:10213000EFAE0C4D2E6846F080012960E8E620469F
:10214000B0472046A847084B204698472046B0474E
:1021500020460024A8472046F8BD00BFA91A000861
:10216000291B00080C0C0140D11B0008080C014081
:10217000000C01402DE9F04F1D4683B004460E4689
:102180001746002B62D03E4A9047700040F0010194
:10219000C9B220463B4B98476E1E5FFA86F906F09F
:1021A00001068046DFF8E4B0DFF8E4A00196B9F15B
:1021B000000F5CD120463946D84740EA08081FFA8C
:1021C00088F80126B5424BD9019A62B1B14535D89C
:1021D000B9192046D84740EA08011FFA81F80136AC
:1021E000F6B2B5423CD9B14507EB0601204619D9F4
:1021F000D0470136F6B240EA0808B1451FFA88F820
:10220000204607EB060119D8D8470136F6B240EA56
:102210000800B5421FFA80F822D9B14507EB060144
:102220002046E5D8D8470136F6B240EA080CB14559
:102230001FFA8CF8204607EB0601E5D92046B919AC
:10224000D04740EA08031FFA83F8C8E70C4B9847C9
:10225000700040F00101C9B220460A4A904780460A
:102260002046094B9847404603B0BDE8F08F204612
:102270003946D04740EA080C1FFA8CF8A1E700BFA6
:10228000911B0008FD1E00084D1B0008911D000851
:10229000FD1B00082DE9F0470E4699461F4B0446EA
:1022A000154698477100204601F0FE01DFF8748062
:1022B000C0470746B9F1000F2AD020462978C04709
:1022C000012609F1FF3A40EA07074E450AF0010AE4
:1022D000BFB21DD2BAF1000F09D020466978C047BD
:1022E000022640EA070C4E451FFA8CF710D2A95D72
:1022F0002046C047711CCEB240EA0702A95D2046C5
:1023000097B2C0470136F6B238434E4587B2EED396
:102310002046034B98473846BDE8F087911B0008DC
:102320004D1B0008FD1E000838B50C4C0C4D6420F8
:10233000A8472268642042F020012160A847236852
:102340004FF4FA7023F020022260A847216864202D
:1023500041F020032360A84738BD00BF0C0C0140AA
:102360007D13000808B5084880470848016821F433
:1023700070020260036843F4401101600268044B7C
:102380000260984708BD00BF851A0008000C014094
:102390002923000810B502460B4600206321014C9A
:1023A000A04710BD911A00082DE9F8431C4E0446C1
:1023B0000D469046B0471B4F8146632122462B466F
:1023C0000020B84718B994F90030002B07DBB0475C
:1023D000C9EB00004045F0D90220BDE8F883002D8C
:1023E000FBD00123104926786A1EAB420E7002EA28
:1023F000030211D232B194F801C00223AB4281F83A
:1024000001C00BD2E65C5A1CCE54A65C0233AB4230
:102410008E54F7D3BDE8F883BDE8F883BDE8F883B0
:10242000551A00089D1A00089009002010B50446AE
:1024300086B00E48804701238DF8103094B91021E2
:102440008DF81110B52204A803218DF81220084B35
:10245000984728B9684601214FF47A72054B98478E
:1024600006B010BD11228DF81120EBE729230008DA
:1024700095230008A923000800B583B001A8012115
:102480004FF47A72014B984703B000BDA9230008AE
:10249000F8B51F460D4B04460E461546984700B149
:1024A000F8BD204631460A4A90470028F8D1791CE9
:1024B000284689B2069A074B98470028F0D195F82C
:1024C00000C01CF0400F18BF0320E9E77924000882
:1024D00095230008A923000810B5422488B08DF880
:1024E00018404FF47A748DF81900009406A8022160
:1024F00002AA0723014CA04708B010BD9124000890
:1025000010B5222488B08DF818404FF47A748DF8F5
:102510001900009406A8022102AA0723014CA04733
:1025200008B010BD9124000830B589B008A9142264
:1025300001F8082D4FF47A750446002300950846EB
:1025400002AA0121034DA8479DF80830237009B065
:1025500030BD00BF91240008F0B50B4C83B0074696
:10256000A0470A4D06460DF10700A84720B99DF87F
:10257000073013F0010F04D1A047801BB842F2D9F5
:10258000022003B0F0BD00BF551A0008292500083D
:10259000F0B5002489B00546060A234640278DF889
:1025A00019408DF81C408DF81D404FF47A7400944A
:1025B00006A8062102AA8DF818708DF81A608DF809
:1025C0001B50024CA04709B0F0BD00BF9124000889
:1025D000F0B5002489B00546060A234620278DF869
:1025E00019408DF81C404FF47A74009406A8052118
:1025F00002AA8DF818708DF81A608DF81B50024CE5
:10260000A04709B0F0BD00BF91240008F0B50C460A
:1026100089B0054600264FEA102E0F0A4FF0120C23
:102620008DF81D404FF47A74009406A8062102AA82
:1026300033468DF818C08DF819608DF81AE08DF8C2
:102640001B508DF81C70024CA04709B0F0BD00BFB4
:102650009124000830B5002089B0234B98470446E8
:1026600010B1204609B030BD7820204A90474FF481
:102670007A7408A8102100F8081D02AA009401210C
:102680001B4C0823A04704460028EAD1194D052118
:102690000120A8474FF4004140F20120A847012142
:1026A00040F20220A847214641F20250A8470121EA
:1026B0004FF48850A84741F6B0514FF4A050A847B6
:1026C00042F6262141F20140A8470A2141F2024088
:1026D000A847214644F20100A8474FF480403F211B
:1026E000A8470446BDE700BF2D240008411A000892
:1026F000912400080D260008012804D1024B186817
:1027000040F040021A60704700380040174908B591
:102710000B6823F470220A60086840F440330B60B1
:102720000A6842F4002008600B68012023F470025C
:102730000A600B6843F440120A600B6843F400021D
:102740000A600B6823F070420A600B6843F0405245
:102750000A600B6843F000420A60054944F21C031A
:1027600004220B604A60034B984708BD040C0140EB
:1027700000380040F926000810B5074C2378012BDB
:1027800008D0064B0649186840F480421A60884712
:102790000120207010BD00BF880400201C100240E2
:1027A0000D270008012808D1044B1A6842F00201E5
:1027B0001960186840F001021A6070470438004040
:1027C000012801D000207047144A42F20F7306E03E
:1027D0001068013B10F0020F05D1013B06D31068D1
:1027E00010F0020FF4D00BB9012070470C4B0B4ACC
:1027F000196042F20F7306E01068013B10F0010F00
:1028000005D1013B04D3116811F0010FF4D01BB1C5
:10281000034A0020136870470120704708380040C1
:102820000C38004008B50D4B984701280DD00C48D6
:10283000036803B908BD0B480B494FF4FC720B4BFE
:10284000984701200A49884708BD054A1368002BAC
:10285000F0D0013B1360002BECD0ECE719310008FD
:102860009C0B0020A0090020A00B0020C93000080C
:10287000A527000810B5064C0A202368054923F453
:10288000806222608847206840F48063236010BD26
:102890000C0C0140411A000810B5074C0146226893
:1028A000012022F400632360044A9047216841F428
:1028B0000063236010BD00BF0C0C0140C12700085D
:1028C00070B50546054C41F04000A047064645F06E
:1028D0008000A047304380B270BD00BF9928000837
:1028E000F0B52A4C83B0A047294B2A4C196821F433
:1028F00070671F601868284F40F440761E601D689E
:10290000264E1D601A68002522F47041196018686F
:1029100040F440521A6019681960206840F48062DF
:10292000226023681E4823F4006121608047212033
:10293000B847C620B8470620B8471320B84720201C
:10294000B8470C20B8472946164A284690472768BA
:10295000212147F400672760134C032025800222C1
:10296000124B3560124C0095A047124B032098473C
:10297000114B03F5FC715A1C5D7002338B4255708C
:10298000F9D13068831C336003B0F0BD79270008AB
:10299000040C01400C0C0140992800089C0B0020FD
:1029A00075280008C1280008980B00202528000879
:1029B000FD190008191A00089F0900202DE9F00FE1
:1029C000494D4A4B2E882038721C92B2D408A3FB82
:1029D0000447F9088C01C1EB040AA2EBCA07BFB295
:1029E0007A1C92B2D108A3FB0184E1088C01C1EBEF
:1029F0000408A2EBC804A4B2621C92B2D108A3FBE3
:102A00000191C9084FEA811BC1EB0B09A2EBC90177
:102A100089B201F1010C1FFA8CFB4FEADB0AA3FB20
:102A20000AA2D2084FEA8218C2EB0809ABEBC9022E
:102A300092B202F1010C1FFA8CFC4FEADC0AA3FBF4
:102A40000A9B4FEADB084FEA8819C8EB090AACEB8E
:102A5000CA0B1FFA8BFB0BF1010C1FFA8CFC4FEA1F
:102A6000DC09A3FB09A800EB4000DFF888A04FEACF
:102A700040090AEB09001AF8099090F801A088B003
:102A8000CDF804A090F802A04FEAD808CDF80CA029
:102A900090F803A04FEA8813CDF810A090F804A096
:102AA0000793CDF814A090F805A00798104BC8EB39
:102AB0000000ACEBC00803F80690A5F80080DDF834
:102AC0001090019DDDF80C80DDF814C0DD5500206C
:102AD00003F8048003F8019003F802C003F80BA088
:102AE00008B0BDE8F00F7047980B00202108822045
:102AF000A009002004000020074B002103F5FC7012
:102B00005A1C5970023383425170F9D1034B002093
:102B10001A68511C196070479F0900209C0B002007
:102B200070B5037863B1074E054600241846B047D8
:102B300015F8013F0443A4B2002BF7D1204670BD25
:102B40001C46FBE7BD290008024B1868421C1A60AE
:102B5000704700BF9C0B002090422DE9F00F934678
:102B60004DD8284A4FF0540C0127994243D801F020
:102B7000070807FA08F9CD080CFB05054E1C545D43
:102B8000B6B224EA0909C1EB0308B34202F8059082
:102B900008F001042FD37CB106F0070507FA05F809
:102BA000F4080CFB04050136545DB6B224EA0808AB
:102BB000B34202F805801ED306F0070A07FA0AFAA4
:102BC000741CA4B204F0070807FA08F8F6080CFB16
:102BD0000606E50812F806900CFB050529EA0A0925
:102BE00002F80690565D013426EA0808A6B2B34200
:102BF00002F80580E0D2013080B28345B5D2BDE84D
:102C0000F00F7047A00900200CB430B5B3B036AA5D
:102C10000D46044652F8041B68460B4B984704EBDC
:102C2000440405EB45000949C0EBC005640004EB12
:102C3000850568460D80064B9847002033B0BDE8F7
:102C4000304002B0704700BF0D100008980B002004
:102C5000212B00082DE9F00F56008AB0C6F10305BC
:102C6000ACB20491059303940690BD49049D0446BB
:102C700000235426B4E0049F02EB070A1FFA8AFAE5
:102C80000AF0070C012707FA0CFC049F5FFA8CFC82
:102C9000C2EB07091FFA89F909F00708012707FAAB
:102CA00008FB05F00708CDF81CB007FA08FB049FE5
:102CB000CDF820B0C3EB07081FFA88FB0BF007081C
:102CC0000127CDF808B007FA08FB4FEADA0806FB3F
:102CD00008F84FEAD90ACDF824B006FB0AFB08EB46
:102CE000000911F80970CDF804B0DDF804B047EA26
:102CF0000C0A01F809A0079F0BEB000911F809A0C5
:102D00005FFA87FB4AEA0B0A01F809A0A04411F810
:102D100008904FEAD50A49EA0C0C01F808C006FBF6
:102D20000AF8019FDDF818A007EB040CCDF8048029
:102D3000029F11F80C8002EB0A0948EA0B0B4FEADC
:102D4000D708019F1FFA89F901F80CB006FB08F8B3
:102D500007EB090B089F11F80BA0FFB24AEA070C1A
:102D600001F80BC0C1440297099F11F809A05FFA4E
:102D700087FB069F4AEA0B0C01F809C0BF1ADDF871
:102D80000490BFB2B94408EB070C11F809A0029FE8
:102D90004AEA070A01F809A011F80C8048EA0B0B6F
:102DA00001F80CB0DDF80CA01AF4004F40F0C08020
:102DB000039FC2EB030807F10A0C013A01330CEB45
:102DC000880C92B29BB20130013C01351FFA8CFC99
:102DD0009A42CDF80CC080B2A4B2ADB2C0F0BB80B4
:102DE000059F002F3FF447AF059F012F00F0BA80E9
:102DF000059F022FD6D1049F02EB070A1FFA8AFA19
:102E000001270AF0070C07FA0CFC049F5FFA8CFC00
:102E1000C2EB07091FFA89F9012709F0070807FA29
:102E200008FB05F00708CDF81CB007FA08FB049F63
:102E3000CDF820B0C3EB07081FFA88FB01270BF081
:102E40000708CDF804B007FA08FB4FEADA0806FBDA
:102E500008F84FEAD90ACDF824B006FB0AFB08EBC4
:102E6000000911F80970CDF808B0DDF808B087EA5C
:102E70000C0A01F809A0079F0BEB000911F809A043
:102E80005FFA87FB8AEA0B0A01F809A0A04411F84F
:102E900008904FEAD50A89EA0C0C01F808C006FB35
:102EA0000AF8029FDDF818A007EB040CCDF80880A3
:102EB000019F11F80C8002EB0A0988EA0B0B4FEA1C
:102EC000D708029F1FFA89F901F80CB006FB08F831
:102ED00007EB090B089F11F80BA0FFB28AEA070C59
:102EE00001F80BC0C1440197099F11F809A05FFACE
:102EF00087FB069F8AEA0B0C01F809C0BF1ADDF8B0
:102F00000890BFB2B94408EB070C11F809A0019F63
:102F10008AEA070801F8098011F80C80DDF80CA096
:102F200088EA0B0B1AF4004F01F80CB03FF440AFE5
:102F30000AEB830C01330CF1060C9BB20130013C0F
:102F400001351FFA8CFC9A42CDF80CC080B2A4B2B5
:102F5000ADB2BFF445AF0AB0BDE8F00F704700BF97
:102F6000A0090020DDF810A0C2EB0A0B1FFA8BFBB2
:102F70000BF0070802EB0A0907FA08FA05F0070840
:102F8000CDF804A007FA08FA1FFA89F909F0070C2E
:102F900007FA0CFC049FCDF820A0C3EB07081FFA2A
:102FA00088FA059F0AF00708CDF81CA007FA08FA6E
:102FB0004FEAD90806FB08F84FEADB0B08EB0009DB
:102FC00006FB0BFBCDF824A06FEA0C0C11F809A04E
:102FD0005FFA8CFC0AEA0C0701F809700BEB000998
:102FE00011F809A0019FCDF808A06FEA070A029F17
:102FF0005FFA8AFACDF804A007EA0A0A01F809A0E4
:1030000008EB040711F807904FEAD50A09EA0C0CFF
:1030100001F807C006FB0AF8069FA34411F80BA0AD
:1030200002EB0709019FCDF808800AEA070C079F09
:1030300001F80BC0DDF808B04FEAD7081FFA89F98C
:10304000089F0BEB090C06FB08FBFF4311F80C80F3
:103050005FFA87FA099FCDF804A008EA0A0A01F886
:103060000CA0D9446FEA0708069F11F809A0DDF803
:1030700008C05FFA88F8BF1ABFB20AEA080A01F866
:1030800009A00CEB070911F809A00BEB070C019F35
:103090000AEA070A01F809A011F80C9009EA0808E1
:1030A00001F80C807EE600BF054B1A78012A06D095
:1030B000044A01201168187041EA00031360704748
:1030C000890400201410024070B40E4B0E4E0F4CB9
:1030D00000251D60346071600D4E4FF484513260E4
:1030E00019601E680B4946F001061E600D60DC6128
:1030F00018629A6190220A60086840F001030B6030
:1031000070BC7047440002404C0002400C38004044
:103110004800024058000240064B186810F4005066
:1031200007D0196811F4003003D04FF408325A6008
:10313000012070470000024010B5164B1A78012A92
:1031400000D010BD14490A680AB3402A15D81348A4
:1031500094B203689A18026000229BB20A60104879
:10316000C021C01822460F4B9847012021460E4A25
:10317000904701200D49884710BD0848403A036830
:103180000A6003F1400101609BB24024E7E71A7036
:1031900010BD00BFAC040020B8040020B40400201F
:1031A000000E0020BD4600086949000825480008B7
:1031B00010B5064C064B214603209847054AC1B27C
:1031C000204690470320044B984710BD980D0020DF
:1031D000214A0008A53A000849480008084808B5EF
:1031E0000368052B00D008BD064B1A68511C052A40
:1031F0001960F8D100201860034B9847F3E700BF2F
:10320000A00400208C0400201D3B00086F4A30B54C
:1032100013686F4C6F4D238020882B8889B003EA98
:10322000000111F4007F5DD1228802F4004C1CEAF9
:10323000030F53D1B4F800C00CF48061194244D19B
:10324000228802F4005C1CEA030F03D05F494DF6AC
:10325000FF700860228802F4805C1CEA030F2BD107
:10326000B4F800C00CF4006018420BD05A490B7837
:10327000002B1ED10220594B984754494FF2FF7042
:103280002B880860228802F4807C1CEA030F0ED091
:103290004E4B4FF6FF6252491A60086810F4004F17
:1032A0002BD150480021016007204C4B984709B0B2
:1032B00030BD4D4A9047E0E7444A4EF6FF71474B18
:1032C0000020116098472B88CAE74049474A4FF6CB
:1032D000FF305368086098472B88B1E7444880471F
:1032E0002B88A7E743484FF6FF5111600378424A05
:1032F000591C017090472B8896E73A490868421C90
:103300000A6008680328CFD93C48026812F0080F09
:10331000CAD104683A4AA4B214603A4C2468A4B2F0
:103320000094394C2468A4B20194384C2468A4B2A7
:103330000294374C2468A4B20394364C2468A4B297
:103340000494354C2468A4B20594344C2468A4B287
:103350000694334C2468A4B20794146844F0010422
:1033600014601468A4B20460146824F001041460AA
:10337000126892B20260186810F4806FFBD0134894
:103380004FF6FF320260009B9AB240F8442C019B3A
:103390009AB240F8402C029B9AB240F83C2C039B16
:1033A0009AB240F8382C049B9AB240F8342C059B12
:1033B0009AB240F8302C069B9AB240F82C2C079B0E
:1033C0009AB2002340F8282C0B606DE7445C004063
:1033D000D80D002034160020A40400204D38000829
:1033E000485C004098040020DD3600088802002078
:1033F000514A000894040020DD310008405C004080
:1034000090040020005C0040045C0040085C004028
:103410000C5C0040105C0040145C0040185C0040F4
:103420001C5C00400348837A13B1034905220A60FB
:10343000704700BF10160020A0040020014B04229A
:103440001A607047A0040020034B1A78202A01D18B
:1034500000201870704700BF9C040020704700BF18
:10346000212808B503D020280AD0022008BD104A20
:103470001168087800F07F03212BF6D10D4B0DE089
:103480000B4A0D49136893F800C00C4B0CF07F0CED
:10349000BCF1210F18BF002308703BB11268002156
:1034A0000020936151829847002008BD022008BD8A
:1034B00030160020F93400089C0400201135000863
:1034C000084B1A68117801F07F03212B01D00220EC
:1034D0007047022804D0222814BF02200020704721
:1034E000002070473016002021B901288CBF02202F
:1034F000002070470220704708B103487047034915
:1035000008220B681A82704704030020301600203E
:1035100008B103487047034908220B681A827047B4
:10352000040300203016002008B506490B68DB783C
:10353000042B01D9002008BD0349044A01EBC30153
:10354000904708BD30160020E40200200D4000081E
:1035500008B50249024B984708BD00BF8002002011
:103560000D40000808B50249024B984708BD00BF4E
:10357000DC0200200D4000082DE9F047304B314CB3
:103580001E6894F80780002486F80980B472F472EB
:1035900020462D4DA8472D4E20464FF40071B047D0
:1035A0002B4D10212046A847DFF8C0A0402120461F
:1035B000D047DFF8BC8080212046C047254A2046FE
:1035C00090472548DFF8AC9090F82C102046C8476B
:1035D000224F2046B84701202146B0470120C02194
:1035E000C04701202021A8471D4F01202146B84790
:1035F00002204FF4C061B04702204FF48071C047F1
:1036000002202146B84702202021A8470320214656
:10361000B04703204FF48871D04703204021C847AA
:1036200003204FF44051B84721460320A8472046C5
:103630000C4988470C4B01221A60BDE8F08700BF97
:1036400030160020D84F0008754700088947000849
:10365000A54700086D480008880200204948000876
:10366000E54700084D450008A00400200149000876
:10367000DD4800088949000810B5064CA047064BF4
:1036800000241A6805499472884705488047054B0D
:103690001C6010BDB93B000830160020A936000898
:1036A000014A0008A004002010B5012007498847FE
:1036B000074B01241C600748074C00224FF4E051DF
:1036C00001801A6010462260196010BD853A00081A
:1036D000405C004034160020445C004070B5454B0F
:1036E0000024454A82B001941C681068434A85B2A0
:1036F000434E15603168434D88B250602E68424891
:10370000B1B2916005684149AEB2D6600868404EDA
:1037100085B2156131683F4D88B250612E683E48D0
:10372000B1B29161A5B2066845F4806545F001012A
:103730004FF6FE74B6B201EA04043848D6611D6043
:1037400019601C600368354913F4806FFAD04FF696
:10375000FF300860136844F0080498B2264B1860E4
:10376000506880B25860906880B29860D06880B22B
:10377000D860106980B21861506980B25861906950
:1037800080B29861D269403390B2234A10601C60C5
:10379000186802F59E521FFA80FC4CF004041C606D
:1037A000243210681E4C0190106820F0030C4CF07D
:1037B00001001060206840F004002060086810F4E8
:1037C000805F10D04EF6FF70086019684FF6F77CE6
:1037D00001EA0C001860019B1360216821F00400CD
:1037E000206002B070BD0F4B9847226822F00401A0
:1037F0002160F6E7405C0040005C0040E00D0020E6
:10380000045C0040085C00400C5C0040105C004020
:10381000145C0040185C00401C5C0040445C0040AC
:1038200010ED00E0F13B000810B5064C4FF6FB7CB4
:103830002268054802EA0C01216080474FF43F43AB
:10384000236010BD405C0040D139000810B5284C01
:10385000072818BF20702378052B16D8DFE803F05F
:10386000181F272C36036278511E6170637873B974
:1038700020494FF6EF7C0A6802EA0C0008601C4AF7
:103880001D4806211170036010BD0623237010BD72
:1038900019490868002825D00520207010BD174858
:1038A0008047154A042301212370116010BD0222B4
:1038B00003216270217010BD6178481E60706378CA
:1038C000002BE4D10A4B04221A7010BD094B0521CC
:1038D00018681FFA80FC4CF010020A201A60217050
:1038E000607010BD054B98470622227010BD00BFC6
:1038F000DC0D0020405C0040A804002029380008AE
:10390000024B4FF480221A60704700BF140401403C
:1039100070B4002A30D0531EDAB2561C7600002450
:1039200016F0020F23461BD1030F092B29D9373379
:103930000B700001020F0223092A4C7013D8303299
:10394000CA540001CD180233020FB3426C7013D079
:10395000092A13D83032CA54CD186C7002330001D2
:10396000020F092AEBD93732CA540001CD180233AD
:10397000020FB3426C70EBD170BC70473732CA543F
:10398000EAE730330B70D4E708B5014B984708BD20
:103990000D320008054B186820F470021A6019688F
:1039A00041F4001018601A681A6070470410014052
:1039B000054A064B106820F480011160186840F435
:1039C00000021A60704700BF041002401C10024041
:1039D0000548837A1BB9054B0120186070470349DD
:1039E00005220A60704700BF10160020A0040020C6
:1039F0001B4A38B51B4B4FF480251560196821F41C
:103A000080241C6052F8100C174C20F4802542F8DA
:103A1000105C216841F48020206052F8085C9020FE
:103A200025F4802142F8081C1C68104944F48025C4
:103A30001D6000220E4CA0470E4BE8201D680E4969
:103A400045F4801500221D60A0470C4A0C4B1068FD
:103A500040F480611160186840F480221A6038BD1B
:103A600014040140000401400804014089390008A1
:103A70004D17000800E100E00139000804E100E012
:103A80001004014028B9064B1A6842F4005119602D
:103A90007047034B186820F400521A60704700BF4B
:103AA0000C1001402DE9F0410F4682B0054679B374
:103AB000037801F1FF3805200124174E0DF10701AD
:103AC0008DF80730B047BC4208EA040820D2B8F1AC
:103AD000000F0AD095F801E005200DF1070102243E
:103AE0008DF807E0B047BC4212D215F804C00DF1C2
:103AF0000701013405208DF807C0B0472A5D052075
:103B00000DF1070101348DF80720B047BC42ECD31A
:103B100002B0BDE8F08100BF4116000838B51E4B69
:103B20001A78012A26D01D4A1068B0F5006F2AD0F5
:103B30001B490D6885422CD034BFC0F50065C0EB31
:103B400005051849402D0D6015D82C181460002269
:103B500080B2ADB20A601449012408182A46C02177
:103B60001C70124B984720462946114A9047204620
:103B7000104B984738BD00F14004403D0D6080B2C5
:103B800014604025E7E7064900200D681060854273
:103B9000D2D10020187038BDAC040020B40400203D
:103BA000B0040020B8040020000E0020BD4600082C
:103BB0006949000825480008084938B508680831EF
:103BC0000B68074AC018146807D006490822064D3A
:103BD000A847204605490422A84738BDE8F7FF1F3B
:103BE000ECF7FF1F2E020020113900083E020020D2
:103BF00030BF704708B538B106490B681A6890475E
:103C0000054800680A3008BD034901220B681A8282
:103C100008BD00BF2C1600203016002008B538B1B2
:103C200006490B689A689047054800680C3008BD43
:103C3000034901220B681A8208BD00BF2C16002020
:103C40003016002008B5002829D02A4A2A48002327
:103C50001268038092F800C01CF07F0318D1517ADB
:103C600090F800E011F0200F14BF4EF0020E0EF09D
:103C7000FD0E11F0400F14BF4EF0010E2EF0010E9C
:103C800080F800E01D4B1968086980471A4808BD94
:103C9000012B00D108BD022B06D00020FAE7154900
:103CA00002220B681A8208BD92F805C01CF0800F32
:103CB0000CF00F0211D1930003F1804101F5B84ED1
:103CC000DEF8002002F4405CBCF5805FDAD10278B7
:103CD00042F0010C80F800C0D4E7930003F180416A
:103CE00001F5B84EDEF8002002F03003102BC9D1E8
:103CF000EDE700BF30160020001600202C16002033
:103D00002DE9F041254E3468238A277A23B9042F00
:103D10002CD0A58A042703E0A58AAB42FAD9022752
:103D20009D4228BF1D46A269284690471C498046EF
:103D3000002088472A4601461A4B404698472946A4
:103D40000020194A9047208A618AC5EB000C174B66
:103D500017486D1830224FF44051A4F810C0658206
:103D60001A80346801802772BDE8F081114A117809
:103D7000012906D00D4B072710221A802772BDE8B3
:103D8000F0810D480D4900681FFA80FC614448002D
:103D900006490360302008801370E4E730160020E5
:103DA00029490008BD460008694900083816002066
:103DB00036160020BC040020505C00400230002079
:103DC00010B50B4B0B4A1B685178DA78914205D33A
:103DD000987818B99C881CB1022010BD022010BD33
:103DE0009A72054B1A6851688847204610BD00BF7B
:103DF000301600200C0300202C16002038B5104887
:103E0000104C0268216893694879C97898472368FB
:103E10009A7A8AB180B9197971B99D7875B90A4BC6
:103E20001968C8688047236828465A7993F803C000
:103E3000DA7283F80CC038BD022038BD022038BDCC
:103E400008160020301600202C16002038B53A4BFA
:103E50001B68187810F07F0035D0022801D00220AE
:103E600038BD5A88002A2DD1197959BB5A7912F0D8
:103E7000800F22F080002BD1840004F1804101F5F5
:103E8000B84CDCF8005005F440552C4991F800C0BE
:103E90006045E4D2002DE2D09B7A93B112F0800FFE
:103EA00020D004F1804404F5B844226802F0300EBA
:103EB000BEF1100F33D022490B68586980470020AB
:103EC00038BD022038BD597A21F020025A7238BD1F
:103ED000840004F1804101F5B84CDCF8005005F095
:103EE0003005D2E704F1804E0EF5B844226802F4A2
:103EF000405CBCF5805FDED1D0B91249124B91F81D
:103F00002C10984722684BF68F7102EA010383F464
:103F1000405E4EF4004C4CF080002060CBE7C4B211
:103F200020460A49884720463021094B9847C2E776
:103F3000084A9047E6E700BF301600200C03002037
:103F40002C1600208802002089490008B548000886
:103F5000A54700088D48000838B5294B19684B79EA
:103F600013F0800F23F080022BD1900000F1804CE1
:103F70000CF5B844256805F44055224C2478A2423B
:103F80001DD24A88DAB9D5B1897A19B313F0800FF6
:103F900022D000F1804000F5B840036848F6BF71B8
:103FA00003EA010282F0100C4CF4004E4EF0800344
:103FB00003601548036899698847002038BD0220CE
:103FC00038BD900000F1804C0CF5B844256805F030
:103FD0003005D2E7022038BD00F1804E0EF5B84E14
:103FE000DEF800204BF68F7002EA000383F4805164
:103FF00041F4004C4CF08002CEF80020D9E700BF1D
:10400000301600200C0300202C160020054B1B68E6
:104010005A8A10B108688018704789888A1A1A82EB
:10402000704700BF3016002008B50D49002091F8F8
:104030002C100C4A90470C480368187A082807D1BE
:104040000A490B4B4FF4805C1022A1F800C01A8083
:10405000A0F10900D0F1000E4EEB000008BD00BF3A
:1040600088020020894900083016002036160020FA
:1040700038160020F8B5304D2C68237A022B07D073
:10408000042B05D0032B08D0052B06D0072B43D0DB
:104090000823237229498847F8BDA369228AC3B13E
:1040A0002AB3A68A964228BF164630469847238AE6
:1040B000B4F812C09A1B074606EB0C0022826082FD
:1040C0001F4900208847324601461E4B3846984714
:1040D000228A62B11C4B00204FF4405E01461B4A0D
:1040E000A3F800E090471A483021228A0180A48A70
:1040F000944218D9DAB92C680620164920720B6848
:1041000015481FFA83FC0CEB00014B0010481A60A5
:104110003021237A0180BCE7104B1C68E26890478D
:104120002C680823B5E72C6803232372B1E72C68B9
:1041300005232372ADE700BF301600202940000898
:10414000494900082547000836160020694900083B
:1041500038160020505C0040023000200816002075
:104160002DE9F041994E9A4C3268266899491FFA18
:1041700082FC327A0CEB01004300092A82B01B68F2
:104180004AD098B200F1005707F540584FEA480866
:10419000454615F8013B904F337098F801E086F8DA
:1041A00001E0B5F80300B8477080B5F8070025684E
:1041B000B847A8802668B8F80C300121F380317226
:1041C000002B2ED07178062900F08E80002949D16D
:1041D0007288002A00F09F80804D2B6808461A697B
:1041E0009047032800F0128123684FF6FF7C1A8A5B
:1041F00062454AD002282ED0002A2CD093F900E044
:10420000BEF1000FC0F2BD80754903204FF4405E3F
:104210001872A1F800E020E0F38801213172002B30
:10422000D0D196F800C075781CF07F0330D0012BF8
:1042300000F0BD80022B00F00181684B28461E680B
:1042400072699047032800F0238100283BD026683C
:104250000823337201E008211972624A904702B0C4
:10426000BDE8F081082969D1327812F07F0FB3D10F
:104270005D4B0021B36100207182984723684FF69F
:10428000FF7C1A8A00206245B4D109221A72E4E741
:10429000092D00F0F380052D00F0C080032D00F003
:1042A000D980012DC9D196F803C0BCF1010FC4D14A
:1042B000B288002AC1D1767A16F0200FBDD04B48C3
:1042C00080470028B9D1414A4948116800221FFAA5
:1042D00081FE0EEB00035E00326046492668302006
:1042E000062308803372B8E7357815F07F0F7FF426
:1042F00073AFB378012B00F0C780022B00F08A80E7
:10430000032B7FF469AF354D29684B6A002BB0D180
:104310002068417861E7736823F47F4CBCF5003F67
:104320007FF45AAF96F800E01EF07F0340F0B480AF
:10433000B08800287FF450AF2F4B9AE70A297FF40A
:104340004BAF357805F07F03012B7FF445AFB07A92
:1043500000283FF441AF7288002A7FF43DAF7368B4
:1043600023F47F4EBEF5803F7FF436AF1B4D1146E0
:104370002B6870799A6990470028C9D126681F4B2D
:1043800077E7D98801910198824218D88A4280F053
:10439000A6801249086890F82C108A4280F0A48008
:1043A000174A002010709982164B984755E70B2D3D
:1043B0007FF443AF144B9847002884D03DE707486B
:1043C00001990268198292F82C10ECE7505C0040C9
:1043D0003016002004300020F5490008081600209F
:1043E0003616002029400008F53B00084D3E000825
:1043F0000230002038160020453C00081D3C000813
:10440000BC040020013D0008FD3D00082068092192
:10441000017222E7464D2868036A77E796F903E0C0
:10442000BEF1000F07DBB3782BB9B08818B9B17AA9
:1044300000293FF448AF082333720EE7012D3FF403
:104440003EAF032D7FF4F9AE3A49884700283FF488
:104450003AAFF2E696F803C0BCF1010F7FF4EDAE7F
:10446000B288002A7FF4E9AE717A334841F0200E19
:1044700086F809E00368DE69B04724E72F4A9047D1
:1044800000283FF420AFD8E6294D2B68DB693DE7D3
:10449000266809233372E0E6012B30D0022B7FF42B
:1044A0009BAE737913F0800F03F00F0236D19000AA
:1044B00000F1804E0EF5B84CDCF8005005F4405584
:1044C0001F4890F800C06245BFF486AE13F0700F2D
:1044D0007FF482AE002D3FF47FAE1A4BC9E614493B
:1044E0000A6892F82C105EE792FBF1FC01FB1C209D
:1044F00000287FF458AF144A0120107053E70C4D88
:1045000070792B689A69904700287FF401AF26687C
:10451000B17A00297FF410AF71785EE6900000F167
:10452000804E0EF5B84CDCF8005005F03005C7E7BA
:1045300008160020593F00082C160020C13D000835
:104540000C030020453C0008BC040020F0B42A4BBA
:104550001E78002E49D0294A40F60F7C1468711E3F
:1045600004EA0C0343F4004C4CF080031360012375
:104570009E4201F0010138D969B1214940F60F721C
:104580000C6848F2810C04EA020343EA0C0202239D
:104590009E420A6029D9DCB2A20002F1804101F5F5
:1045A000B84CDCF800700133D9B244F4004540F651
:1045B0000F7407EA040445F080028F0042EA040504
:1045C00007F18044CCF8005004F5B844256841F464
:1045D000004140F60F7241F0800C05EA02020133FF
:1045E0004CEA02019E422160D5D8064B40F0800083
:1045F0001860F0BC704700BF0C030020005C004056
:10460000045C00404C5C004010B5174C23681A7ADB
:10461000022A15D0042A13D0062A04D008221A72BE
:104620001249884710BD5A78052A11D0104A1368DC
:1046300098688047236808221A720C49884710BD81
:104640000C4B9847236809491A7A1A72884710BD9B
:10465000187810F07F0FE9D1D87807498847074AC2
:104660001368196A8847E1E73016002029400008DE
:1046700008160020013D00084D4500082C160020BA
:10468000704700BF08B5074A074B022107481A6068
:104690001172074B0749084A186011600368984770
:1046A00008BD00BF10160020301600208802002030
:1046B00008160020B80200202C16002001325210EB
:1046C000F0B42DD00346447813F802CB01F1005129
:1046D000013A01F540554CEA04206D00114628804E
:1046E00002F001020420D9B142B15C7813F802CB88
:1046F00008204CEA04220139AA8011D01A4612F887
:1047000002CB5F78041D4CEA0726465393F802C09B
:104710005678931C4CEA06206053201D0239EDD1D7
:10472000F0BC70470132521070B420D001F100513A
:1047300001F540535B00013A53F8044B114620F851
:10474000024B02F0010291B12AB153F8042B013956
:1047500020F8022B0BD01C4654F8046B5D6802460F
:1047600022F8026B231D4580901C0239F3D170BCE6
:10477000704700BF4FF6F871024A00EA0103136068
:10478000704700BF505C0040800000F1804202F59D
:10479000B842136848F68F1C03EA0C0040EA010394
:1047A0001360704710B4840004F1804000F5B840F5
:1047B000046801F0100C48F6BF731FFA8CF204EA8B
:1047C00003030AB183F0100301F0200291B209B192
:1047D00083F0200343F4004C4CF08003036010BCD2
:1047E000704700BF10B4840004F1804000F5B84069
:1047F000046801F4805C4BF68F731FFA8CF204EAB4
:1048000003030AB183F4805301F4005291B209B159
:1048100083F4005343F4004C4CF08003036010BC5D
:10482000704700BF810001F1804202F5B842106874
:1048300048F6BF7300EA030C8CF0300141F40040ED
:1048400040F0800313607047810001F1804202F55F
:10485000B84210684BF68F7300EA030C8CF4405199
:1048600041F4004040F0800313607047800000F185
:10487000804202F5B842136840F60F6C03EA0C015F
:1048800041F4004040F0800313607047800000F165
:10489000804303F5B8431A6812F4804F09D01968B1
:1048A00040F60F7001EA000242F4404C4CF08001E7
:1048B00019607047800000F1804303F5B8431A681F
:1048C00012F0400F09D0196840F60F7001EA00029B
:1048D00042F4004C4CF0C00119607047074A4FF693
:1048E000FE73126801EA030392B202EBC00C0CF1F2
:1048F000005101F54050420013607047505C004089
:10490000074B10B41C68074AA4B204EBC003981804
:104910004FF6FE7C420001EA0C03136010BC7047A6
:10492000505C00400430002006490B681FFA83FCED
:104930000CEBC00202F1005101F540504300188811
:10494000704700BF505C0040054A064913681FFAD3
:1049500083FC0CEBC002501843001888704700BF5E
:10496000505C004004300020054A064B12681FFAD4
:1049700082FC0CEBC002D01843001960704700BFE6
:10498000505C0040023000200F4A104B12681FFAA2
:1049900082FC0CEB030202EBC0035B003E290AD948
:1049A0004A0911F01F0F01D1501E82B2920242F447
:1049B0000041196070474A0811F0010F18BF013219
:1049C00090021860704700BF505C00400630002025
:1049D000064B07491A6893B203EBC00C0CEB0102BB
:1049E000530019688805800D704700BF505C004077
:1049F00006300020C3B2000A40EA0320704700BF1F
:104A0000044A002010600449044A4FF43F430B80DD
:104A100013607047445C004034160020405C004046
:104A200070B500F07F05074A28460E4690470649B4
:104A300004462846884722460146044B304698479C
:104A4000204670BDD14900084949000825470008A3
:104A50002DE9F04F654F83B00023DFF8A8A1DFF800
:104A6000B8B1DFF89481ADF80630B946DBF8000044
:104A70005F4C388039885F4D0BB2002B4BF6BF720C
:104A80005D4E80F2A780B9F800C00CF00F008300E3
:104A900003F1804101F5B8418AF80000002835D1C2
:104AA0002168A8F80010B8F8000000F0300CA5F854
:104AB00000C0B8F8003003F44051A8F80010206896
:104AC00000EA020282F4005C8CF0200343F400410F
:104AD00041F080002060B9F8002012F0100F45D09E
:104AE0002068ADF80600BDF806C01CF4006F74D154
:104AF000BDF806C00FFA8CF3002BB7DA226840F637
:104B00008F7102EA010020603C4B36E00E68ADF880
:104B10000660BDF806502CB2002C19DBBDF806C0AB
:104B20001CF0800FA2D09AF8000048F60F7E820099
:104B300002F1804C0CF5B8442668314806EA0E05AF
:104B400025609AF800104B1E50F8232090478DE7FF
:104B50000E6840F68F7E06EA0E052A4C0D6021781D
:104B600029484B1E50F823209047D7E7236848F682
:104B70000F7E03EA0E02254B226098472168328897
:104B80004BF6BF7302F4805C1FFA8CF001EA03035A
:104B900008B183F48053318801F4005E1FFA8EF06F
:104BA00008B183F40053288800F0100C1FFA8CF22F
:104BB0000AB183F010032A8802F0200E1FFA8EF14A
:104BC00009B183F02003124943EA010C084B1FFA94
:104BD0008CF0186003B0BDE8F08F226840F68F7E3D
:104BE00002EA0E0121600B4BC7E700BFD80D002081
:104BF000005C004038160020361600207540000882
:104C0000480200200C16002064020020094600081B
:104C10008080FFFF61410008445C0040526164698C
:104C20006F20496E6974204F4B203A20464D204D2D
:104C30006F64650A00000000526164696F20496E6C
:104C40006974204661696C0A000000000A0A0000CD
:104C50002A2A2A2A2A2A2A2A2A2A2A2A2A2A2A2AB4
:104C60002A2A2A2A2A2A2A2A2A2A2A2A2A2A2A2AA4
:104C70002A2A2A2A2A2A2A2A2A2A2A2A2A2A2A2A94
:104C80002A2A2A2A2A2A2A0A000000002020202074
:104C90002020202020202020202020202020202014
:104CA0002020474C63642056302E322020202020C4
:104CB00020202020202020202020202020202020F4
:104CC00020200A002A20312E204C434420436C65CA
:104CD0006172202020202020202020202020202041
:104CE00020202020202020202020202020202020C4
:104CF000202020202020202020202A0A0000000040
:104D00002A20322E20436F756E74202B2B202020FA
:104D10002020202020202020202020202020202093
:104D20002020202020202020202020202020202083
:104D30002020202020202A0A000000002A20332ED4
:104D400020436F756E74202D2D20202020202020E0
:104D50002020202020202020202020202020202053
:104D60002020202020202020202020202020202043
:104D700020202A0A000000002A20342E204D6F76C1
:104D80006520436972636C652053746172742020DE
:104D90002020202020202020202020202020202013
:104DA00020202020202020202020202020202A0A0F
:104DB000000000002A20352E204D6F7665204369C3
:104DC00072636C6520456E64202020202020202006
:104DD00020202020202020202020202020202020D3
:104DE000202020202020202020202A0A000000004F
:104DF0002A20362E20202020202020202020202085
:104E000020202020202020202020202020202020A2
:104E10002020202020202020202020202020202092
:104E20002020202020202A0A000000002A20372EDF
:104E30002020202020202020202020202020202072
:104E40002020202020202020202020202020202062
:104E50002020202020202020202020202020202052
:104E600020202A0A000000002A20382E202020209E
:104E70002020202020202020202020202020202032
:104E80002020202020202020202020202020202022
:104E900020202020202020202020202020202A0A1E
:104EA000000000002A20392E202020202020202051
:104EB00020202020202020202020202020202020F2
:104EC00020202020202020202020202020202020E2
:104ED000202020202020202020202A0A000000005E
:104EE0002A206D2E20204D656E7520202020202048
:104EF00020202020202020202020202020202020B2
:104F000020202020202020202020202020202020A1
:104F10002020202020202A0A000000000A00000093
:104F20003E3E20004C434420436C656172200A00E1
:104F3000436F756E74202B2B200A0000536D617235
:104F400074726F626F74204244000000436F756E8C
:104F500074203A2025346400436F756E74202D2D23
:104F6000200A00002603530054004D00690063002E
:104F700072006F0065006C006500630074007200D1
:104F80006F006E00690063007300000012010002F0
:104F900002000040830440570002010203010000A8
:104FA000040309043203530054004D00330032005F
:104FB00020005600690072007400750061006C00EA
:104FC000200043004F004D00200050006F00720091
:104FD000740020002000000009024300020100C00C
:104FE000320904000001020201000524001001053D
:104FF00024010001042402020524060001070582A1
:10500000030800FF09040100020A0000000705036D
:0C50100002400000070581024000000083
:10501C00010100000000000000000000002F000053
:10502C0000000700070000147F147F1400242A7F5F
:10503C002A120062640813230036495522500000DE
:10504C000503000000001C224100000041221C004E
:10505C000014083E08140008083E0808000000A0D0
:10506C0060000008080808080000606000000020CC
:10507C0010080402003E5149453E0000427F4000AA
:10508C00004261514946002141454B310018141230
:10509C007F10002745454539003C4A4949300001FD
:1050AC007109050300364949493600064949291E4C
:1050BC0000003636000000005636000000081422AE
:1050CC0041000014141414140000412214080002AE
:1050DC000151090600324959513E007C1211127CD3
:1050EC00007F49494936003E41414122007F414100
:1050FC00221C007F49494941007F09090901003EF2
:10510C004149497A007F0808087F0000417F41002F
:10511C00002040413F01007F08142241007F4040A5
:10512C004040007F020C027F007F0408107F003E8D
:10513C004141413E007F09090906003E4151215E73
:10514C00007F091929460046494949310001017F70
:10515C000101003F4040403F001F2040201F003F06
:10516C004038403F006314081463000708700807B8
:10517C0000615149454300007F41410000552A55CB
:10518C002A55000041417F00000402010204004046
:10519C004040404000000102040000205454547868
:1051AC00007F484444380038444444200038444488
:1051BC00487F00385454541800087E090102001826
:1051CC00A4A4A47C007F080404780000447D400063
:1051DC00004080847D00007F102844000000417F47
:1051EC004000007C04180478007C08040478003823
:1051FC004444443800FC242424180018242418FCAB
:10520C00007C0804040800485454542000043F4413
:10521C004020003C4040207C001C2040201C003CD6
:10522C004030403C004428102844001CA0A0A07C26
:10523C00004464544C440000060909061A03530048
:10524C0054004D003300320000000000000000004C
:10525C000000000000000000393100088146000801
:10526C0081460008814600088146000881460008F6
:10527C00814600088146000881460008B1310008CB
:10528C0081460008814600088146000881460008D6
:10529C00D84F000843000000793600087935000823
:1052AC00493400085D34000861340008C13400083A
:1052BC00E934000865350008513500082935000827
:1052CC000000000040000000814600082534000862
:1052DC008146000881460008814600088146000886
:1052EC0081460008814600083D3400088C4F0008B8
:1052FC0012000000A04F000804000000644F0008DA
:10530C0026000000A44F0008320000002C020020F0
:10531C001A00000000C20100000008000401000097
:040000050800122DB0
:00000001FF
