:020000040800F2
:1000000000500020E51D000881F0004102E000BF23
:1000100083F0004330B54FEA41044FEA430594EAC8
:10002000050F08BF90EA020F1FBF54EA000C55EA03
:10003000020C7FEA645C7FEA655C00F0E2804FEAD4
:100040005454D4EB5555B8BF6D420CDD2C4480EAB6
:10005000020281EA030382EA000083EA010180EAE6
:10006000020281EA0303362D88BF30BD11F0004F34
:100070004FEA01314FF4801C4CEA113102D040426A
:1000800061EB410113F0004F4FEA03334CEA1333A5
:1000900002D0524263EB430394EA050F00F0A780BD
:1000A000A4F10104D5F1200E0DDB02FA0EFC22FAB8
:1000B00005F2801841F1000103FA0EF2801843FAAC
:1000C00005F359410EE0A5F120050EF1200E012A9D
:1000D00003FA0EFC28BF4CF0020C43FA05F3C018DB
:1000E00051EBE37101F0004507D54FF0000EDCF154
:1000F000000C7EEB00006EEB0101B1F5801F1BD3FD
:10010000B1F5001F0CD349085FEA30004FEA3C0C00
:1001100004F101044FEA445212F5800F80F09A80F6
:10012000BCF1004F08BF5FEA500C50F1000041EBFA
:10013000045141EA050130BD5FEA4C0C404141EBFE
:10014000010111F4801FA4F10104E9D191F0000F25
:1001500004BF01460020B1FA81F308BF2033A3F1A8
:100160000B03B3F120020CDA0C3208DD02F1140C9F
:10017000C2F10C0201FA0CF021FA02F10CE002F1DA
:100180001402D8BFC2F1200C01FA02F120FA0CFCD3
:10019000DCBF41EA0C019040E41AA2BF01EB04511C
:1001A000294330BD6FEA04041F3C1CDA0C340EDC1A
:1001B00004F11404C4F1200220FA04F001FA02F35D
:1001C00040EA030021FA04F345EA030130BDC4F11B
:1001D0000C04C4F1200220FA02F001FA04F340EA10
:1001E0000300294630BD21FA04F0294630BD94F0C1
:1001F000000F83F4801306BF81F480110134013DA8
:100200004EE77FEA645C18BF7FEA655C29D094EA18
:10021000050F08BF90EA020F05D054EA000C04BF96
:100220001946104630BD91EA030F1EBF0021002081
:1002300030BD5FEA545C05D14000494128BF41F020
:10024000004130BD14F580043CBF01F5801130BD84
:1002500001F0004545F0FE4141F470014FF000000F
:1002600030BD7FEA645C1ABF194610467FEA655CC0
:100270001CBF0B46024650EA013406BF52EA033562
:1002800091EA030F41F4002130BD00BF90F0000F50
:1002900004BF0021704730B54FF4806404F132048C
:1002A0004FF000054FF0000150E700BF90F0000F45
:1002B00004BF0021704730B54FF4806404F132046C
:1002C00010F0004548BF40424FF000013EE700BF3C
:1002D00042004FEAE2014FEA31014FEA02701FBFCC
:1002E00012F07F4393F07F4F81F06051704792F09E
:1002F000000F14BF93F07F4F704730B54FF4607418
:1003000001F0004521F0004120E700BF50EA010262
:1003100008BF704730B54FF000050AE050EA01020F
:1003200008BF704730B511F0004502D5404261EB7F
:1003300041014FF4806404F132045FEA915C3FF4C0
:10034000DCAE4FF003025FEADC0C18BF03325FEA59
:10035000DC0C18BF033202EBDC02C2F1200300FA0E
:1003600003FC20FA02F001FA03FE40EA0E0021FA33
:1003700002F11444C1E600BF70B54FF0FF0C4CF41D
:10038000E06C1CEA11541DBF1CEA135594EA0C0FD3
:1003900095EA0C0F00F0DEF82C4481EA030621EA0E
:1003A0004C5123EA4C5350EA013518BF52EA033549
:1003B00041F4801143F4801338D0A0FB02CE4FF0FB
:1003C0000005E1FB02E506F00042E0FB03E54FF02B
:1003D0000006E1FB03569CF0000F18BF4EF0010E23
:1003E000A4F1FF04B6F5007F64F5407404D25FEA1F
:1003F0004E0E6D4146EB060642EAC62141EA5551D2
:100400004FEAC52040EA5E504FEACE2EB4F1FD0C13
:1004100088BFBCF5E06F1ED8BEF1004F08BF5FEA91
:10042000500E50F1000041EB045170BD06F0004643
:1004300046EA010140EA020081EA0301B4EB5C04F0
:10044000C2BFD4EB0C0541EA045170BD41F48011E8
:100450004FF0000E013C00F3AB8014F1360FDEBF0D
:10046000002001F0004170BDC4F10004203C35DAE9
:100470000C341BDC04F11404C4F1200500FA05F36C
:1004800020FA04F001FA05F240EA020001F000420D
:1004900021F0004110EBD37021FA04F642EB060183
:1004A0005EEA430E08BF20EAD37070BDC4F10C04AD
:1004B000C4F1200500FA04F320FA05F001FA04F271
:1004C00040EA020001F0004110EBD37041F100015D
:1004D0005EEA430E08BF20EAD37070BDC4F1200568
:1004E00000FA05F24EEA020E20FA04F301FA05F2D0
:1004F00043EA020321FA04F001F0004121FA04F278
:1005000020EA020000EBD3705EEA430E08BF20EA47
:10051000D37070BD94F0000F0FD101F00046400081
:1005200041EB010111F4801F08BF013CF7D041EA03
:10053000060195F0000F18BF704703F00046520007
:1005400043EB030313F4801F08BF013DF7D043EAD8
:100550000603704794EA0C0F0CEA135518BF95EA8E
:100560000C0F0CD050EA410618BF52EA4306D1D115
:1005700081EA030101F000414FF0000070BD50EA34
:10058000410606BF1046194652EA430619D094EABE
:100590000C0F02D150EA013613D195EA0C0F05D1A8
:1005A00052EA03361CBF104619460AD181EA0301FC
:1005B00001F0004141F0FE4141F470014FF00000B4
:1005C00070BD41F0FE4141F4780170BD70B54FF04F
:1005D000FF0C4CF4E06C1CEA11541DBF1CEA1355CF
:1005E00094EA0C0F95EA0C0F00F0A7F8A4EB0504B1
:1005F00081EA030E52EA03354FEA013100F08880A8
:100600004FEA03334FF0805545EA131343EA126370
:100610004FEA022245EA111545EA10654FEA002625
:100620000EF000419D4208BF964244F1FD0404F5DE
:10063000407402D25B084FEA3202B61A65EB03053A
:100640005B084FEA32024FF480104FF4002CB6EBF7
:10065000020E75EB030E22BFB61A754640EA0C0077
:100660005B084FEA3202B6EB020E75EB030E22BFB7
:10067000B61A754640EA5C005B084FEA3202B6EBF8
:10068000020E75EB030E22BFB61A754640EA9C00B7
:100690005B084FEA3202B6EB020E75EB030E22BF87
:1006A000B61A754640EADC0055EA060E18D04FEA45
:1006B000051545EA16754FEA06164FEAC30343EAE5
:1006C00052734FEAC2025FEA1C1CC0D111F4801FB2
:1006D0000BD141EA00014FF000004FF0004CB6E7AB
:1006E00011F4801F04BF01430020B4F1FD0C88BF4A
:1006F000BCF5E06F3FF6AFAEB5EB030C04BFB6EB55
:10070000020C5FEA500C50F1000041EB045170BD47
:100710000EF0004E4EEA113114EB5C04C2BFD4EB74
:100720000C0541EA045170BD41F480114FF0000EF8
:10073000013C90E645EA060E8DE60CEA135594EA74
:100740000C0F08BF95EA0C0F3FF43BAF94EA0C0F77
:100750000AD150EA01347FF434AF95EA0C0F7FF4EC
:1007600025AF104619462CE795EA0C0F06D152EA40
:1007700003353FF4FDAE1046194622E750EA410624
:1007800018BF52EA43067FF4C5AE50EA41047FF435
:100790000DAF52EA43057FF4EBAE12E74FF0FF3C9A
:1007A00006E000BF4FF0010C02E000BF4FF0010C6B
:1007B0004DF804CD4FEA410C7FEA6C5C4FEA430CE4
:1007C00018BF7FEA6C5C1BD001B050EA410C0CBF33
:1007D00052EA430C91EA030F02BF90EA020F002095
:1007E000704710F1000F91EA030F58BF994208BFFC
:1007F00090422CBFD8176FEAE37040F001007047B9
:100800004FEA410C7FEA6C5C02D150EA013C07D10F
:100810004FEA430C7FEA6C5CD6D152EA033CD3D05A
:100820005DF8040B704700BF8446104662468C4654
:100830001946634600E000BF01B5FFF7B7FF002887
:1008400048BF10F1000F01BD4DF808EDFFF7F4FFB0
:100850000CBF012000205DF808FB00BF4DF808ED3B
:10086000FFF7EAFF34BF012000205DF808FB00BF5E
:100870004DF808EDFFF7E0FF94BF012000205DF880
:1008800008FB00BF4DF808EDFFF7CEFF94BF012035
:1008900000205DF808FB00BF4DF808EDFFF7C4FF2E
:1008A00034BF012000205DF808FB00BF4FEA410281
:1008B000B2F1E04324BFB3F5001CDCF1FE5C0DD9BE
:1008C00001F0004C4FEAC0024CEA5070B2F1004F08
:1008D00040EB830008BF20F00100704711F0804F0B
:1008E00021D113F13872BCBF01F00040704741F4D0
:1008F00080114FEA5252C2F11802C2F1200C10FAD4
:100900000CF320FA02F018BF40F001004FEAC123B7
:100910004FEAD32303FA0CFC40EA0C0023FA02F35B
:100920004FEA4303CCE77FEA625307D150EA013331
:100930001EBF4FF0FE4040F44000704701F0004001
:1009400040F0FE4040F40000704700BF4FEA400214
:10095000B2F1FE4F0FD34FF09E03B3EB12620DD9ED
:100960004FEA002343F0004310F0004F23FA02F057
:1009700018BF404270474FF00000704712F1610FFE
:1009800001D1420205D110F0004008BF6FF00040D5
:1009900070474FF00000704708B542F2092300206D
:1009A000C0F60003984708BD00B50A4B83B09847CE
:1009B000002409488047094D02224FF47A71084B00
:1009C00020460094A847204606498847064A904793
:1009D000FEE700BFB11E0008ED09000889260008E7
:1009E00099090008A9260008C50A0008704700BF39
:1009F00038B545F6F84041F6410445F6FC45C0F6E9
:100A00000004C0F60005C0F60000A0472846A04735
:100A100045F63850C0F60000A0472846A04745F6E6
:100A20007450C0F60000A04745F6B050C0F6000074
:100A3000A04745F6EC50C0F60000A04745F62860F8
:100A4000C0F60000A04745F66460C0F60000A0476D
:100A500045F6A060C0F60000A04745F6DC60C0F691
:100A60000000A04745F61870C0F60000A04745F604
:100A70005470C0F60000A04745F69070C0F6000024
:100A8000A0472846A04746F2FC00C0F60000A04759
:100A900038BD00BF38B545F6CC7041F64104C0F60C
:100AA0000004C0F60000A04742F20913C0F600039C
:100AB0009847054646F2FC00C0F60000A0472846CD
:100AC00038BD00BF2DE9F04F40F6F1119BB0C0F6E4
:100AD0000001884700200146B54AB64B984742F6C8
:100AE000D540C0F600008047DFF81083B24CB34D0C
:100AF00040F69522C0F6000290470146002800F01B
:100B00006582A1F131033C2BF2D80FF2080E5EF89A
:100B100023F000BFAF0F0008E50E0008730E0008B9
:100B20004B0E0008090E0008C50C00084B0C00080D
:100B3000090C0008F10A0008F10A0008F10A00088F
:100B4000F10A0008F10A0008F10A0008F10A000899
:100B5000F10A0008F10A0008F10A0008F10A000889
:100B6000F10A0008F10A0008F10A0008F10A000879
:100B7000F10A0008F10A0008F10A0008F10A000869
:100B8000F10A0008B90F0008F10A0008F10A00088C
:100B9000F10A0008F10A0008F10A0008F10A000849
:100BA000F10A0008F10A0008F10A0008F10A000839
:100BB000F10A0008F10A0008F10A0008F10A000829
:100BC000F10A0008F10A0008F10A0008F10A000819
:100BD000F10A0008F10A0008F10A0008F10A000809
:100BE000F10A0008F10A0008F10A0008F10A0008F9
:100BF000F10A0008F10A0008F10A0008F10A0008E9
:100C0000F10A0008B90F0008DFF8F4916C4FDFF823
:100C1000F4A16C4E15E0B84783460BA8D047B847FF
:100C2000CBEB00016848A0471198B04701B2674874
:100C3000A0471298B04701B26548A0476420654AB2
:100C40009047C8470028E6D052E7DFF8B4915C4EE1
:100C5000DFF8B0A132E0B04707460BA8D047B04755
:100C6000C11B5948A0475C489DF82C10A0475B4821
:100C7000BDF93010A0475A48BDF93210A047594875
:100C8000BDF93410A04754489DF82D10A047564890
:100C9000BDF93610A04750489DF82F10A047534883
:100CA000BDF93E10A0475248BDF94010A047514839
:100CB000BDF94210A047642046498847C84700282C
:100CC000C9D015E706A90020C0479DF818300022BA
:100CD00001464948A04706A90120C0479DF81830A1
:100CE000012201464448A04706A90220C0479DF8BA
:100CF0001830022201464048A04706A90320C047F9
:100D00009DF81830032201463B48A04706A904205D
:100D1000C0479DF81830042201463748A04706A96D
:100D20000520C0479DF81830052201463248A047EB
:100D300006A90620C0479DF81830062201462E4815
:100D4000A04706A90720C0479DF818300146072292
:100D50002948A04706A90820C0479DF81830082256
:100D600001462548A04706A90920C0479DF818302C
:100D7000092201462048A04706A90A20C0479DF83D
:100D800018300A2201461C48A04706A90B20C0477C
:100D90009DF818300B2201461748A04706A90C20E1
:100DA000C0470C2201469DF818301348A0479FE623
:100DB000D05F0008752C0008411800088135000834
:100DC000D12600084D090008EC5F00088C6000087F
:100DD00098600008891F000874600008F85F000828
:100DE00000600008086000087C60000838600008A7
:100DF0004060000884600008506000084D3500081D
:100E000019210008E93A0008DFF8F091714EDFF887
:100E100008A216E0B04707466846D047B047C11B56
:100E20006D48A0476D48BDF90010A0476C48BDF95A
:100E30000210A0476B48BDF90410A04764206A4B1C
:100E40009847C8470028E5D052E6DFF8B091674ED2
:100E5000DFF894A109E0B04707460120B0473946C2
:100E600002466348A0476420D047C8470028F2D014
:100E70003EE600264CF6CD49CCF6CC49B24621E000
:100E8000F0B206A9BEB28DF818A0A8479DF81810B8
:100E90005848A047A9FB0613D90801EB8100A6EB2F
:100EA000400296B2002E00F08D8006A9F8B28DF8AF
:100EB00018A07E1CA8474F489DF81810A047762E12
:100EC0003FF416AEB0B2A9FB00E2D10801EB8103FA
:100ED000A0EB430082B2771C002AD1D131464648AC
:100EE000A047CDE7454F3B4EDFF830911CE00AB2FA
:100EF000022BD8BF4FF0030A2C2A55DC022ACCBFA4
:100F000083464FF0030B3E48804759465046032224
:100F10000023DFF80CC1E04742F6D543C0F60003DA
:100F20009847642030498847B84700287FF4E0ADEF
:100F3000B047824602A8C847B047CAEB000126481E
:100F4000A047BDF908102F48A047BDF90A102E4848
:100F5000A047BDF90C102D48A0472D48BDF90E1033
:100F6000A047BDF90A1048F21F53C5F2EB1383FBEB
:100F700001E0BDF908204FEAE17B83FB02E3ABEB24
:100F8000A01CD1170CF12A0EA1EBA3121FFA8EFAA6
:100F900018320FFA8AF390B2502B81B2A7DD0AB251
:100FA0002C2A4FF0500AA9DD4FF02C0BABE7194863
:100FB000A047134A90479BE540F6F110C0F60000A9
:100FC000804795E50C483946A0476EE71BB0BDE861
:100FD000F08F00BFD1260008EC5F000838600008E1
:100FE0004060000848600008891F0008493900086F
:100FF0002C6000082460000818600008192100080F
:10100000252B0008F85F0008006000080860000851
:1010100010600008E05F0008493A0008A5370008A2
:10102000E52C000838B5094B0546197851B1084A36
:10103000084914680868631C055509681360002294
:10104000CA5438BD044B984738BD00BF0404002083
:1010500000040020C0040020CD20000838B548B1AD
:1010600041B1087830B1044D0C46A84714F8010F7F
:101070000028FAD138BD00BF2510000830B4C8B12F
:101080000378CBB100230B60027892B1303AD4B22E
:10109000092C02D912E0092D10D803EB830402EBCE
:1010A00044030B6010F8014FA4F13002D5B2002CBC
:1010B000F1D1012030BC70471846FBE70020F9E76A
:1010C0002DE9F04782460078002384B0B1F1000892
:1010D0000093BABFC8F100084FF0010999460028F3
:1010E00000F040810025642829D0A14E2C462F46CF
:1010F000A0F13102082A00F28E801AF804200AEBCF
:101100000401A2F1300009284FF0000301A809D81A
:10111000C25411F8012F0134A2F1300E0133BEF197
:10112000090FF5D904A9CA18694602F80C7C013CDC
:10113000B04701341AF8040008B16428D8D1B9F1D5
:10114000000F40F00B818B4E0098002867D00928D3
:1011500000F3FF80441E811EC71E002C00F0048196
:1011600001F0010464234A1E71B124B1013A511CFB
:101170004FF47A7308D003EB8304E10001EB4403DE
:10118000023A5B00511CF6D198FBF3F2022803FBF4
:10119000128800F0EB8007F001006424791E77B11B
:1011A00020B10139481C4FF47A7408D004EB84074D
:1011B000FC0004EB470302395C004F1CF6D146F2F9
:1011C00067674FF00109C6F266670FE0012C15D082
:1011D000B9F1000F12D0302005B92020B04787FBAD
:1011E0000420E117C1EBA004002C11DD98FBF4F200
:1011F000D0B2303004FB1288002AE7D0B04787FB1A
:101200000420E117C1EBA004002C4FF00009EDDC35
:1012100004B0BDE8F087302808BF012589E742F611
:10122000A173C4F2B84383FB08244FEAE8714FF47A
:101230004A42C1EB2470C3F69A3202FB10880028A0
:1012400000F09A80C0B243F689343030C5F2E654DB
:10125000B04784FB08204FEAE8714FF46142C1EBCC
:101260006060C0F2F55202FB10843030B0474CF69B
:101270006B23C6F65F3383FB0420E11749F28062DB
:10128000C1EBA050C0F2980202FB10443030B047CE
:101290004DF68363C4F21B3383FB0420E11744F251
:1012A0004022C1EBA040C0F20F0202FB10443030DC
:1012B000B0474BF28953C1F2F84383FB0420E11796
:1012C00048F2A062C1EB6030C0F2010202FB1044A0
:1012D0003030B04748F6AD33C6F6DB0383FB04205D
:1012E000E117C1EB203042F2107202FB10443030A3
:1012F000B04744F6D353C1F2620383FB0420E117E5
:10130000C1EBA0104FF47A7202FB10443030B047AA
:1013100048F21F53C5F2EB1383FB0420E117C1EB26
:101320006010642202FB10443030B04746F267631D
:10133000C6F2666383FB0420E117C1EBA00000EB5B
:101340008002A4EB42043030B04704F13000B047D3
:101350005EE7092000900627072101E72D20054EB2
:10136000B047F1E60546EAE60A230DE70A2426E738
:101370007D1000082510000843F68933C5F2E653B6
:1013800083FB08214FF461444FEAE872C2EB6160CD
:10139000C0F2F55404FB108400287FF466AF4CF6CD
:1013A0006B20C6F65F3080FB042149F28063E217B0
:1013B000C2EBA150C0F2980303FB104400287FF455
:1013C00065AF4DF68360C4F21B3080FB042144F20C
:1013D0004023E217C2EBA140C0F20F0303FB10440D
:1013E00000287FF464AF4BF28950C1F2F84080FBD3
:1013F000042148F2A063E217C2EB6130C0F201039E
:1014000003FB104400287FF463AF48F6AD30C6F606
:10141000DB0080FB0421E217C2EB213042F21073A3
:1014200003FB104400287FF462AF44F6D350C1F2AE
:10143000620080FB0421E217C2EBA1104FF47A7323
:1014400003FB104400287FF461AF48F21F50C5F23F
:10145000EB1080FB0421E217C2EB6110642303FB55
:10146000104400287FF460AF46F26760C6F2666001
:1014700080FB0421E217C2EBA10000EB8003A4EB88
:10148000430400283FF461AF5DE700BF2DE9F0435E
:10149000037887B00026814601910296002B00F068
:1014A000B780782B00F0B480B44F3446B046A3F137
:1014B0003102082A00F2A88019F8042009EB04017F
:1014C000A2F13003092B03A84FF0000308D8C2543F
:1014D00011F8012F0134A2F130050133092DF6D99D
:1014E00006A9CA1802A902F80C8C013CB8470134BD
:1014F00019F804300BB1782BD9D10199029B0ABAA3
:101500000192002B00F08780D80700F10F810121A4
:10151000C3F1080202EBD2735A10032A00F3C98008
:1015200001ACA5182C4614F8010BEF43030907F092
:1015300001090DF10808924D00F00F0700F031810C
:10154000092B40F26E8103F13700A8470021002FDC
:1015500000F03081092F40F2528107F13700A8478F
:101560000021444500F0A580B9F1000F17D014F810
:10157000010B030900F00F0731D0092B40F2428123
:1015800003F13700A8470022A7B3092F40F23D819D
:1015900007F13700A8470021444500F08A8014F87D
:1015A000013B1A0903F00F0700F0D480092A88BF15
:1015B00002F1370040F22C81A8470021002F00F0F3
:1015C000D280092F88BF07F1370040F22481A84755
:1015D00014F8010B0021030900F00F07CDD10029F9
:1015E00000F01081002E40F0CD802020A84701227D
:1015F000002FCAD1002A00F00881002E40F0BA80E6
:101600002020A8470121C7E7302B08BF01266EE73D
:10161000019C25BA01959DF804301A0903F00F04C6
:101620004AD0092A40F2FA8002F13700544DA84707
:101630000021002C44D10122002900F0FB809DF8FC
:101640000530190903F00F0447D0092940F2EC8056
:1016500001F13700A8470023002C44D10122002BC0
:1016600000F0E5809DF806100B0901F00F0447D04B
:10167000092B40F2BE8003F13700A8470021002C5F
:1016800043D10122002900F0B7809DF807301909E5
:1016900003F00F0445D0092988BF01F1370042D972
:1016A000A847002C7AD0092C88BF04F1370075D9DF
:1016B000A84707B0BDE8F0830121314D002CBAD016
:1016C000092C40F2B78004F13700A8479DF8053097
:1016D0000022190903F00F04B7D1002A00F0A480FA
:1016E0000123002CBAD0092C40F2A18004F137006C
:1016F000A8479DF8061000220B0901F00F04B7D18E
:10170000002A76D00121002CBBD0092C74D904F119
:101710003700A8479DF807300022190903F00F048D
:10172000B9D1002ABDD101F13000B9E7D843083062
:1017300000EBD07306AA02EB630111F8140C10F051
:101740000F0345D0092B51D903F137000C4B9847B3
:10175000002142E000295BD0E6B13020A8470121FA
:10176000002F7FF42EAF002955D07EB13020A8473E
:101770000121FCE63020A84701210DE77D1000087B
:10178000251000083020A8470122FDE62020A847A8
:101790000121ECE62020A84701210FE704F13000E9
:1017A00086E700293DD07EB13020A8470121002FD7
:1017B0007FF4D0AE19B31EB13020A8470121D0E686
:1017C0002020A8470121CCE62020A8470121BEE621
:1017D0003EB11A493020884701210298431E0293E6
:1017E00096E62020154A90470121F6E703F13000E4
:1017F000ACE703F1300040E704F1300089E707F17E
:101800003000ACE603F13000BCE607F13000C1E681
:1018100002F13000D0E607F13000D8E602F13000E6
:1018200004E703F1300090E601F1300012E704F123
:1018300030005DE704F1300047E700BF25100008E5
:101840000FB42DE9F04385B00DF13009AC4B002207
:1018500059F8044BAB4DDFF8B882AB4FAB4E1A7062
:101860002078002800F0BE80252840F0C0806278F3
:10187000631CA2F1630101298DF8040040F2D680B7
:10188000782A00F0DD80732A00F0DD80252A00F040
:10189000DD80A1788DF80520A1F16302A31C012A47
:1018A00040F2D680782900F0D680732900F0D680E7
:1018B000252900F0D680E2788DF80610A2F16301A8
:1018C000E31C012940F2CF80782A00F0CF80732AF0
:1018D00000F0CF80252A00F0CF8021798DF80720F5
:1018E000A1F16302231D012A40F2C880782900F08B
:1018F000C880732900F0C880252900F0C88062796B
:101900008DF80810A2F16301631D012940F2C18026
:10191000782A00F0C180732A00F0C180252A00F0E7
:10192000C180A1798DF80920A1F16302A31D012ACC
:1019300040F2BA80782900F0BA80732900F0BA80AA
:10194000252900F0BA80E2798DF80A10A2F163012E
:10195000E31D012940F2B380782A00F0B380732A96
:1019600000F0B380252A00F0B380217A8DF80B2097
:10197000A1F16302012A04F1080340F2AB80782947
:1019800000F0AB80732900F0AB80252900F0AB801C
:10199000627A8DF80C10A2F16301012904F10903A8
:1019A00040F2A380782A00F0A380732A00F0A3807D
:1019B000252A00F0A380A07A8DF80D2004F10A03F7
:1019C0005C1C64282BD015D825281FD063287FF4F1
:1019D00047AF99F80000A847207809F104090028CA
:1019E0007FF442AF05B0BDE8F04304B07047A847AC
:1019F000013435E773280BD078287FF431AFD9F85C
:101A0000001001A809F10409B04729E7A84727E712
:101A1000D9F8001001A809F10409B84720E7D9F85E
:101A2000001001A809F10409C04719E71046012474
:101A300004AA1419002104F80C0C04F80B1CBFE7CD
:101A400001247820F4E701247320F1E70124EFE773
:101A500008460224ECE702247820E9E702247320F8
:101A6000E6E70224E4E710460324E1E703247820B4
:101A7000DEE703247320DBE70324D9E708460424C8
:101A8000D6E704247820D3E704247320D0E7042485
:101A9000CEE710460524CBE705247820C8E70524C7
:101AA0007320C5E70524C3E708460624C0E70624DB
:101AB0007820BDE706247320BAE70624B8E710466D
:101AC0000724B5E707247820B2E707247320AFE79F
:101AD0000724ADE708460824AAE708247820A7E7EA
:101AE00008247320A4E70824A2E7104609249FE7EE
:101AF000092478209CE70924732099E7092497E7B3
:101B000004040020251000085D1000088D14000852
:101B1000C11000082DE9F043AB4CAC4E2060AC4B3B
:101B20000020154630600122AA4EDFF8B092DFF89F
:101B3000B082A94F85B01A700C462078002800F0BA
:101B4000BC80252840F0BC806278631CA2F1630150
:101B500001298DF8040040F2CC80782A00F0D3806F
:101B6000732A00F0D380252A00F0D380A1788DF865
:101B70000520A1F16302A31C012A40F2CC80782940
:101B800000F0CC80732900F0CC80252900F0CC80B7
:101B9000E2788DF80610A2F16301E31C012940F2FE
:101BA000C580782A00F0C580732A00F0C580252AF8
:101BB00000F0C58021798DF80720A1F16302231D73
:101BC000012A40F2BE80782900F0BE80732900F01F
:101BD000BE80252900F0BE8062798DF80810A2F140
:101BE0006301631D012940F2B780782A00F0B780B5
:101BF000732A00F0B780252A00F0B780A1798DF80C
:101C00000920A1F16302A31D012A40F2B0807829C6
:101C100000F0B080732900F0B080252900F0B0807A
:101C2000E2798DF80A10A2F16301E31D012940F267
:101C3000A980782A00F0A980732A00F0A980252ABB
:101C400000F0A980217A8DF80B20A1F16302012A0E
:101C500004F1080340F2A180782900F0A1807329E3
:101C600000F0A180252900F0A180627A8DF80C1087
:101C7000A2F16301012904F1090340F29980782A55
:101C800000F09980732A00F09980252A00F099804D
:101C9000A07A8DF80D2004F10A035C1C642823D07F
:101CA00011D8252819D063287FF447AF2878B0478A
:101CB0002078043500287FF444AF05B0BDE8F083F8
:101CC000B047013439E7732809D078287FF435AF5D
:101CD000296801A80435B8472FE7B0472DE72968E0
:101CE00001A80435C04728E7296801A80435C8477A
:101CF00023E71046012404AA1419002104F80C0C4F
:101D000004F80B1CC9E701247820F4E701247320B0
:101D1000F1E70124EFE708460224ECE702247820EB
:101D2000E9E702247320E6E70224E4E710460324EF
:101D3000E1E703247820DEE703247320DBE70324B4
:101D4000D9E708460424D6E704247820D3E70424FE
:101D50007320D0E70424CEE710460524CBE7052402
:101D60007820C8E705247320C5E70524C3E70846A3
:101D70000624C0E706247820BDE706247320BAE7CE
:101D80000624B8E710460724B5E707247820B2E711
:101D900007247320AFE70724ADE708460824AAE725
:101DA00008247820A7E708247320A4E70824A2E7E2
:101DB000104609249FE7092478209CE70924732012
:101DC00099E7092497E700BFC00400200004002021
:101DD00004040020251000088D140008C11000081C
:101DE0005D100008684620F007018D4679B52A4944
:101DF0002A4B99421BD2DA1C0C1D151B284825F0D2
:101E00000302161D05680423B3420D60C2F380026D
:101E10000DD022B142680823B342226007D01D587A
:101E20001A1D5D5084580833B3428C50F7D11E48B8
:101E30001E494FF000028842B8BF40F8042BFFF65D
:101E4000FAAF4FF48052C4F2020211684FF4A0635B
:101E500041F48030106004E01068810305D4013B38
:101E600003D01168013B8803F6D54FF40051C4F24A
:101E700002010A6842F0100008600B6823F00302B8
:101E80000A60086840F002030B6006498847BDE815
:101E900079408546704700BF000000200C030020F9
:101EA00030620008A9090008000400204016002044
:101EB000F8B542F23113C0F60003984742F26D3094
:101EC000C0F60000804740F604064FF4006E43F26F
:101ED000B3474FF4406540F6044441F2040144F234
:101EE0004440C4F2010E4FF03332C3F24430C4F226
:101EF0000101C4F20106C3F23337C4F20105C4F292
:101F0000010443F28903CEF80020C0F600033760D5
:101F10002A6022600860984742F26101C0F6000121
:101F2000884742F2C510C0F60000804742F2BD3239
:101F3000C0F60002904742F61903C0F60003984726
:101F400042F64121C0F60001884742F20D70C0F60A
:101F50000000804742F2E162C0F60002904743F67B
:101F6000A523C0F600039847F8BD00BF82B0002348
:101F700001930199884205D9019A531C0193019953
:101F80008142F9D302B0704741F2707382B00021F0
:101F900003FB00F00191019A904205D9019B591C65
:101FA0000191019A9042F9D802B0704700B543F60A
:101FB0000403C4F20103186883B002A942F27D222F
:101FC00001F8010DC0F600020020904703B000BDEB
:101FD0002DE9F04141F21806C4F20206356840F2DC
:101FE000C443C2F2000343F60C0443F6100C43F65C
:101FF000140E43F6080758609960C4F201040022E9
:1020000045F48048C4F2010CC4F2010E0C2040F2E9
:102010007121C4F201074EF20415C6F80080CEF219
:1020200000052060CCF80020CEF8002039602B6835
:1020300043F020002860216842F2813341F0200003
:1020400041F6AD712060C0F600012520C0F6000306
:102050009847226842F400512160BDE8F08100BF3A
:1020600042F21D2310B5C0F60003984740F2C44366
:102070000022C2F2000341F6D1744FF4E130114660
:10208000C0F600045A609A601A615A61DA611A62F5
:102090009A62DA625A639A63A04710BD30B5002392
:1020A00083B0084D04468DF807302046A847002825
:1020B000FBD020460DF10701034A90479DF8070029
:1020C00003B030BD4D220008F52200080A280DD0CB
:1020D0004FF46052C4F2010213681906FCD543F6AE
:1020E0000401C0B2C4F20101086070474FF46052AD
:1020F000C4F2010213681B06FCD543F60401C4F2C6
:1021000001010D220A60E3E708B542F29D030020B9
:10211000C0F60003984708BD08B542F24D230020E1
:10212000C0F600039847003018BF012008BD00BF6B
:1021300041F20403C4F202031A684FF4805122F4FE
:102140007C1020F0F0021A601868C4F2020140F41A
:10215000E8121A600B68084643F080720A60016852
:102160008B01FCD541F20403C4F2020318681A463D
:1021700020F003011960186840F002011960186826
:1021800020F480011960186820F4E0611960186873
:1021900040F480611960186820F460511960186873
:1021A0001860136803F00C010829FAD141F21800F5
:1021B000C4F20200026842F4804343F01D01016052
:1021C000704700BF0422C4F2010211684FF440635B
:1021D00021F0E06010601168C4F2010341F08060FA
:1021E0001060196840F60C4221F4704018601968BC
:1021F000C4F2010241F44050186019681960136874
:1022000043F008001060704738B940F60C43C4F240
:1022100001031A6882F008001860704740F2F85114
:1022200040F208620023C2F20001C2F200020B80F9
:1022300013804B8053808B809380CB80D3800B8125
:1022400013814B8153818B8193817047094B0A49DC
:1022500033F9102031F910301F20D21A2032C8F281
:1022600000001040002800DB7047013860F01F01BB
:10227000481C704708060020F80500201A4A1B4B2E
:10228000F0B432F8105033F910602CB21F23A61BA3
:102290002036C8F200033340002B18DB1F2B1CD064
:1022A0000135ADB21F230E78C8F2000329B20B40EE
:1022B00000EB40170E493C19002B0E5522F8105028
:1022C0000DDB094921F810300120F0BC7047013BBB
:1022D00063F01F0301331F2BE2D10020F5E75A1EE4
:1022E00062F01F030133ECE708060020F805002028
:1022F000000500201A4A1B4B70B432F8105033F915
:1023000010602CB21F23361B2036C8F20003334066
:10231000002B17DBE3B100EB401601353419124EE8
:10232000ADB21F23345DC8F200032EB23340002B40
:102330000C7022F810500DDB094921F810300120F3
:1023400070BC7047013B63F01F030133002BE2D1E7
:102350001846F5E7591E61F01F02531CECE700BF59
:10236000F8050020080600200005002040F60003C4
:102370004EF60852C2F20003CEF20002136070471C
:1023800040F600031030C2F2000343F820107047FB
:1023900040F600038008C2F2000343F820107047A3
:1023A00008B542F2796142F291333C20C0F6000157
:1023B0000022C0F60003984708BD00BF2DE9F04198
:1023C000404D2B78012B7BD03F4800240470448083
:1023D00084808460047444828482846180F8204014
:1023E00044848484846280F8304044868486846394
:1023F00080F84040A0F84240A0F84440846480F84F
:102400005040A0F85240A0F85440846580F86040E5
:10241000A0F86240A0F8644084662C4988474EF2D8
:10242000140641F63F174EF21800CEF20006C0F235
:102430000107CEF200004EF210033760CEF2000327
:102440000460196841F2180241F004061E601F681A
:10245000C4F2020247F002001860196842F6284CE4
:1024600041F001061E60D2F800804FF4305348F46A
:102470000068C2F80080C4F2010C4722CCF80020AA
:10248000C4F20103802242F6044742F61C4642F69B
:102490002C4042F620411A60C4F20100C4F201014E
:1024A000C4F20107C4F201064FF6FF723C603460CB
:1024B00002600C60186840F00101196001232B7064
:1024C000BDE8F0817804002008040020A123000862
:1024D000664B674A196810B5481C18601488A3B287
:1024E0001BB11188481E84B21480624C2278012AE4
:1024F0001DD0207C5F4A01282BD094F820005D4A33
:10250000012838D094F830005A4A012846D094F86F
:102510004000584A012854D094F85000554A0128E8
:1025200066D094F86000534A012878D010BD6388C3
:10253000591E88B260800028DBD16278012A00F041
:102540008680A188A36861809847207C494A012839
:10255000D3D1518A4B1E98B250820028CDD1517CE4
:10256000012972D0A28AA3696282984794F8200058
:10257000404A0128C6D1518C4B1E98B25084002885
:10258000C0D192F8211001296CD0A28CA36A628478
:10259000984794F83000374A0128B8D1518E4B1E25
:1025A00098B250860028B2D192F83110012956D045
:1025B000A28EA36B6286984794F840002D4A0128AA
:1025C000AAD1B2F842104B1E98B2A2F842000028DD
:1025D000A2D192F8411001293ED0B4F84420A36C56
:1025E000A4F84220984794F85000224A012898D134
:1025F000B2F852104B1E98B2A2F85200002890D1A7
:1026000092F85110012924D0B4F85420A36DA4F8F5
:102610005220984794F86000164A012886D1B2F8F3
:1026200062104B1E98B2A2F8620000287FF47EAFC1
:1026300092F86110A36E012908BF82F86000B4F817
:102640006420A4F86220984710BD10748AE72070B7
:1026500077E782F85000D7E782F84000BDE782F8BC
:102660003000A5E782F820008FE700BF7C0400203F
:10267000800400200804002008B542F2D143C0F6CF
:102680000003984708BD00BF10B440F20844C2F2EE
:10269000000404EB00108360019B4270C360418022
:1026A000818010BC704700BF062803D8024B000190
:1026B00001221A54704700BF08040020034A10800A
:1026C000138898B20028FBD1704700BF8004002017
:1026D00042F62443C4F20103186880B2704700BF79
:1026E00008B544F27953C0F60003984744F2995074
:1026F000C0F60000804744F2DD51C0F60001884773
:1027000045F2C512C0F60002904708BD08B542F276
:102710006573C0F60003984708BD00BF0422C4F2E9
:102720000102116840F6044341F002001060C4F257
:1027300001031A6822F00F011960186840F00302C3
:102740001A60196841F00C0018601A6822F0F00154
:102750001960186840F030021A60196841F0C00032
:102760001860704738B542F21D73C0F600039847F1
:102770004FF4A843C4F20003002545F204441D6051
:10278000C4F2000445F21C4024252560C4F2000078
:1027900045F2204148F21E040460C4F20001042006
:1027A00041F21C020860C4F20202106845F21441B2
:1027B00040F400101060186845F2184220F0020042
:1027C00018601868C4F2000140F001001860C4F2FB
:1027D00000020B68136838BD38B541F66D7540F6D8
:1027E0000C44C4F20104C0F600056420A847236825
:1027F000642043F020012160A84722684FF4FA705A
:1028000022F020032360A8472168642041F02002C1
:102810002260A84738BD00BF08B542F20D73C0F66C
:10282000000398474FF44060C4F20100016842F28F
:10283000D97221F4700303600168C0F6000241F40C
:102840004013036001680160904708BD40F60443EF
:10285000C4F2010319684FF4605221F4702018602B
:10286000186843F6040140F4403018601868C4F258
:10287000000240F4002018601868C4F2000120F43F
:1028800070001860186840F440101860186840F430
:1028900000001860186820F070401860186840F058
:1028A00040501860186840F00040186044F21C0363
:1028B000042013600860116841F040031360704702
:1028C00010B5084C2378012B0BD041F21C00C4F248
:1028D00002000268044B42F48041016098470120E5
:1028E000207010BD820400204D28000801280BD163
:1028F00043F60403C4F200031A6842F002001860B1
:10290000196841F001021A60704700BF012801D028
:102910000020704743F6080242F20F73C4F200022F
:1029200006E01068013B800705D413F1FF3305D39F
:1029300010688007F5D50BB90120704743F60C00ED
:10294000C4F2000043F60802016042F20F73C4F2C1
:10295000000206E01068013BC10705D413F1FF3304
:1029600004D31168C807F5D5002BE5D043F60C0257
:10297000C4F2000213680020704700BF08B50D4B79
:10298000984701280DD00C48036803B908BD0B48CF
:102990000B494FF4FC720B4B984701200A4A9047B1
:1029A00008BD054A11680029F0D04B1E1360002BAA
:1029B000ECD0ECE7253100088C0B002090090020BA
:1029C000900B0020AD300008ED28000810B540F64F
:1029D0000C44C4F20104226842F2BD6322F4806018
:1029E0002060C0F600030A209847216841F4806205
:1029F000226010BD10B540F60C44C4F201042368F7
:102A0000014623F4006242F60D1322600120C0F655
:102A100000039847216841F40062226010BD00BFA6
:102A200070B542F6F5140546C0F6000441F04000CA
:102A3000A047064645F08000A047304380B270BDF5
:102A4000F0B52E4B83B0984740F60440C4F2010025
:102A5000026840F60C4422F4706101600568C4F21B
:102A6000010445F4407606600768254D0760036859
:102A7000002623F470420260016841F44057076069
:102A80000368204F0360206840F480622260216860
:102A90001D4821F40063236080472120A847C620F9
:102AA000A8470620A8471320A8472020A8470C20A5
:102AB000A8473146154A304690472168032041F423
:102AC00000632360124C2121124B009602222680C3
:102AD0003E60114CA0470320104A9047104B3146EE
:102AE00003F5FC705A1C5970023383425170F9D1BE
:102AF0003968881C386003B0F0BD00BFC1280008E9
:102B0000F52900088C0B0020CD290008212A000897
:102B1000880B00207D29000889260008A9260008C6
:102B20008F090020074B002103F5FC705A1C5970D7
:102B3000023383425170F9D1034900200A68531CC3
:102B40000B6070478F0900208C0B00202DE9F00FDF
:102B5000077886B0002F00F0858040F68831C2F2F9
:102B6000000140F6210CB1F80090DFF804A1C2F298
:102B7000820C019009F1010398B2C208ACFB022457
:102B8000E508C5EB8516A0EBC60189B24B1C98B2CF
:102B9000C208ACFB0245EC08C4EB8416A0EBC603EC
:102BA0009AB2501C84B2E508ACFB0556F308C3EB9F
:102BB0008310A4EBC0041FFA84F808F10105AEB23B
:102BC000F308ACFB0340C408C4EB8415A6EBC506B0
:102BD000B6B2731C9CB2E008ACFB0053DD08C5EB39
:102BE0008510A4EBC004A5B26B1C98B24FEAD00BC1
:102BF000ACFB0B34203F4FEAD40B40F20004C2F28E
:102C0000000407EB470704EB470314F817709C78A0
:102C100002970394DC785F7804941C79CBEB8B1BD0
:102C20000594029C5B790AF809400AF80170039F39
:102C3000059C0AF80270049AA0EBCB0040F688319C
:102C40000AF808201FFA80F90AF80640C2F20001CB
:102C50000AF80530019DA1F8009015F8017F019553
:102C6000002F87D1002006B0BDE8F00F704700BFED
:102C7000900900200CB430B5B3B036AA41F6153334
:102C80000D46044652F8041B6846C0F600039847F8
:102C900004EB440105EB45004C00C0EBC00540F6D9
:102CA000883242F64D33C2F2000204EB85056846D5
:102CB000C0F600031580984740F68C31C2F200013F
:102CC0000A680020531C0B6033B0BDE8304002B0EE
:102CD000704700BF40F68C33C2F200031A68501CE4
:102CE000186070472DE9F00F88B0540005900691E8
:102CF000C4F10300059D069C049383B20393A0498D
:102D00002046019502950023A5E0DDF818B04FF0AC
:102D10000109C2EB0B06B6B206F0070802EB0B0581
:102D200009FA08FBAFB207F0070A00F0070509FA35
:102D30000AFC4FF0010809FA05FA04F00709CDF87A
:102D40001CB008FA09FB5425FF0805FB07F7DDF85E
:102D50000890F60807EB090805FB06F6CDF800B069
:102D600011F808B05FFA8CFC4BEA0C0501F808502A
:102D700006EB0908DDF81C9011F808B05FFA89F538
:102D80004BEA050B01F808B0DDF804804FEAD00BE0
:102D9000474411F80790DDF8048049EA0C0C01F86B
:102DA00007C054274644DDF8149007FB0BF811F8D0
:102DB00006B002EB09074BEA0505BFB24FEAD40C97
:102DC0004FF0540B8D5508EB07060BFB0CF511F873
:102DD00006905FFA8AFADDF800B049EA0A0C01F8B9
:102DE00006C0EF195FFA8BF9DDF814B0CE5DC2EBC7
:102DF0000B0C46EA09061FFA8CFCCE55E04411F88C
:102E00000870654447EA0A0A01F808A04E5D46EAE0
:102E1000090901F80590DDF80CC01CF4004F40F0E2
:102E2000A880039F9D1A0A3707EB8506013AB7B2BF
:102E3000039792B2029D019F01336E1C9BB27D1ECF
:102E40000130013CB6B2ADB29A420296019580B211
:102E5000A4B2C0F01581049E002E3FF456AF049D2D
:102E6000012D00F08F80049F022FD4D1069E4FF0D9
:102E700001099519B61AB6B2AFB206F0070509FAFC
:102E800005FA07F0070C4FF0010808FA0CFB04F0F4
:102E9000070C09FA0CF800F00705CDF81CA009FA98
:102EA00005FAFF08542505FB07F7DDF80890F6083A
:102EB00005FB06F6CDF8008007EB090811F808506D
:102EC0005FFA8BFCDDF8089085EA0C0B01F808B07E
:102ED00006EB0908DDF81CB011F808905FFA8BF5D5
:102EE00089EA050901F80890DDF80480DDF804900E
:102EF000474411F807B04FEAD0088BEA0C0C4FF0AA
:102F0000540B01F807C04E440BFB08F8DDF814C061
:102F10008F5D02EB0C097D401FFA89F94FEAD40757
:102F20008D550BFB07FC08EB09054F5D5FFA8AF630
:102F300077404F55E144009DDDF814B011F809A029
:102F4000EDB2C2EB0B07BFB28AEA050A01F809A08D
:102F5000B84411F80890674489EA060601F8086049
:102F6000CE5DDDF80CC075401CF4004FCD553FF42C
:102F700058AF0CEB8305AE1DB7B203975AE700BFFD
:102F800090090020069E9719C2EB0608BFB21FFAEF
:102F900088F907F0070B049E05FA0BFC09F00705FA
:102FA00006FA05FA049D00F0070605FA06FB04F090
:102FB0000706B540FF080795542505FB07F7DDF820
:102FC00008804FEAD906B84411F8089054256FEAF2
:102FD0000C0C05FB06F65FFA8CFC09EA0C0501F8FF
:102FE0000850DDF808806FEA0A05B04411F808902F
:102FF000EDB209EA050A01F808A0DDF804804FEAFD
:10300000D00A474411F80790DDF8048009EA0C0C57
:1030100001F807C04FF05407464407FB0AFADDF8F1
:1030200014908F5D02EB090C1FFA8CF83D408D5512
:103030004FEAD4070AEB0805542606FB07FC4F5D50
:103040006FEA0B06F6B237404F55079DE044DDF8B6
:1030500014B011F80890EF43FDB2C2EB0B07BFB2FA
:1030600009EA050901F80890BA4411F80A80674492
:1030700008EA060601F80A60CE5D3540CD55CAE67D
:1030800008B0BDE8F00F7047074A1378012B09D04C
:1030900041F21400C4F20200016841F00103036030
:1030A00001201070704700BF830400202DE9F0015B
:1030B00044234C2743F60C045026C4F202034FF07D
:1030C000000CC4F20004C4F20207C4F20206482550
:1030D000C3F800C0C4F202053C6031604FF4845173
:1030E0002A601960D3F80080582160276426C4F252
:1030F00002015C2548F00108C4F20207C4F202068E
:10310000C3F80080C4F20205C1F800C03C60306022
:1031100090202A6008600A6842F001030B60BDE855
:10312000F00170470023C4F20203186810F4005045
:103130000AD0196811F4003006D00423C4F2020347
:103140004FF408321A600120704700BF0422C4F215
:103150000102116840F6044341F002001060C4F21D
:1031600001031A6822F00F011960186840F0030289
:103170001A60196841F00C0018601A6822F0F0011A
:103180001960186840F030021A60196841F0C000F8
:103190001860704770B51E4C2378012B36D01D483F
:1031A00080474FF4A843C4F20003002645F20445CB
:1031B0001E60C4F2000545F21C4024262E60C4F2B5
:1031C000000045F2204148F21E050560C4F20001EE
:1031D0000B2041F21C020860C4F20202106845F2A2
:1031E000144140F400101060186845F2184220F0B5
:1031F000020018601868C4F2000140F00100186075
:10320000C4F200020B6813680123237070BD00BF75
:10321000840400204D31000845F21443C4F2000339
:103220001A68196812F4006F1A6814BF0B20002086
:1032300011F4806F18BF0A20920510B41B6805D5E1
:1032400013F4807F14BF0820092002E0DB051AD5A3
:1032500008204FF4A843C4F200031C6845F214414F
:1032600024F0010445F218421C60C4F20001C4F2CB
:1032700000020C6814681C6844F001041C600B68B0
:10328000136810BC70470028FBD0E2E7F0B58DB0A2
:10329000002B00F017815F1EFFB245F21445C4F207
:1032A00000052E6845F218440096C4F20004246814
:1032B0004FF4A8460194C4F20006D6F800C042F2CA
:1032C00010744CF4807CC6F800C008E02E680296AA
:1032D000029E16F0010F08D1013C00F0F5802E6827
:1032E000013C0296029EF607F0D545F2184542F2DF
:1032F0001074C4F2000508E02E680396039E16F0D1
:10330000010F08D1013C00F0DF802E68013C0396DC
:10331000039EF607F0D545F21044C4F200044000C5
:1033200045F214452060C4F2000542F2107408E032
:103330002E680496049E16F0020F08D1013C00F09E
:10334000DF802E68013C0496049EB607F0D545F256
:103350001845C4F200052C6845F214450194C4F2E6
:10336000000542F2107408E02E680596059E16F0DE
:10337000800F08D1013C00F0CB802E68013C0596FF
:10338000059E3606F0D545F2144542F21074C4F29B
:10339000000508E02E680696069E16F0800F09D1FB
:1033A000013C00F0B5802E68013C0696069E16F0A2
:1033B000800FEFD045F21045C4F2000545F21444E9
:1033C0002960C4F2000442F2107108E025680795F4
:1033D000079D15F0040F08D1013900F0A58025687C
:1033E00001390795079D6D07F0D54FF4A841C4F248
:1033F00000010D6845F2144445F480750D60C4F277
:10340000000442F2107107E025680895089D15F048
:10341000010F08D1013957D0256801390895089D59
:1034200015F0010FF0D045F21041C4F2000140F058
:10343000010045F214440860C4F2000442F2107125
:1034400006E0206809900998800707D4013957D011
:1034500020680139099009988007F2D545F2184093
:10346000C4F200000168019153B34FF4A84545F23E
:10347000144045F2104C0026C4F20005C4F20000CE
:10348000C4F2000CB7422C6844D944F480642C6028
:1034900042F2107107E004680A940A9C14F0400F8D
:1034A00007D101393ED0046801390A940A9C6406A8
:1034B000F1D5DCF80040711C9455CEB2B342E1D88E
:1034C000002002E01F46E8E6022045F2184242F2E0
:1034D0001073C4F2000206E011680B910B99890782
:1034E00007D5013B0AD01168013B0B910B99890765
:1034F000F2D408B90D4880470DB0F0BD0720FBE7B6
:1035000045F21843C4F200031A6803200192DCE775
:103510000420DAE724F4806129602C6844F4007107
:103520002960B5E70520D0E70620CEE7193200086C
:1035300070B506460D4643F28D2413461E203146D3
:103540002A46C0F60004A04770BD00BF034610B570
:1035500043F28D240A461E201946C0F600040123BA
:10356000A04710BD70B506460D4643F28D241346A4
:10357000682031462A46C0F60004A04770BD00BF4F
:10358000034610B543F28D240A4668201946C0F65A
:1035900000040123A04710BD70B54FF4A844C4F245
:1035A0000004266845F2144546F48076266088B00B
:1035B00042F21074C4F2000508E02E680196019EE4
:1035C00016F0010F09D1013C00F097802E68013CF4
:1035D0000196019E16F0010FEFD045F21045400014
:1035E000C4F2000545F214442860C4F2000442F21B
:1035F000107007E025680295029D15F0020F07D1B3
:1036000001385BD0256801380295029DAD07F1D5E0
:1036100045F21845C4F2000545F214442868C4F286
:10362000000442F2107008E025680395039D15F030
:10363000800F08D1013800F0828025680138039599
:10364000039D2D06F0D545F2144442F21070C4F2E9
:10365000000407E025680495049D15F0800F08D14B
:1036600001386CD0256801380495049D15F0800F51
:10367000F0D045F21046C4F2000631601846002B27
:1036800054D045F214440025C4F2000442F21071F3
:1036900006E0206805900598000607D4013930D06F
:1036A00020680139059005980006F2D5505D013576
:1036B000EDB29D423060E9D3002023E045F218438B
:1036C000C4F200031B68032045F2184242F2107353
:1036D000C4F2000206E0116807910799890707D52F
:1036E000013B0CD01168013B079107998907F2D47F
:1036F00008B91548804708B070BD0220E4E70720EC
:10370000F9E7042045F2144242F21073C4F20002B9
:1037100006E0116806910699490707D4013B10D0CD
:103720001168013B069106994907F2D54FF4A8416B
:10373000C4F200010A6842F400730B60C4E704207D
:10374000C2E70620C0E700BF1932000870B5064680
:103750000D4643F2995413461E2031462A46C0F6C0
:103760000004A04770BD00BF10B543F2995482B069
:1037700001460DF107021E200023C0F60004A047F9
:1037800002B010BD10B582B0034602AA43F29954AC
:1037900002F8011D68201946C0F600040123A04765
:1037A00002B010BD2DE9F04F89B0044604A93B20BA
:1037B0000E22264B9847002845D19DF816209DF8EB
:1037C000171046F2610B41EA02252BB2C6F2600BDC
:1037D0008BFB032B9DF819209DF81A1001929DF880
:1037E0001B209DF810A09DF812809DF814709DF884
:1037F00011909DF813C09DF815600291039249EA5B
:103800000A294CEA082E46EA07269DF81850019F1F
:103810009DF81C109DF81D20DB17DDF80C80DDF8ED
:1038200008A0C3EBEB1347EA052542EA012148EA69
:103830000A272433A4F80090A4F802E0A68025818A
:103840006781A181E38009B0BDE8F08F653500088C
:1038500000B587B0372001A9074B984748B99DF8B4
:103860000410372041F002021146044B8DF8042069
:10387000984707B000BD00BF8135000885370008B4
:1038800070B5274E86B033782649012B3ED00022F2
:103890002420254C0A70A04724488047244D7520D9
:1038A00001A9A847044600281BD121466B20214DC1
:1038B000A847044600282DD107211920A8472146F2
:1038C0001A20A84721461B20A84721461C20A847AC
:1038D000194B9847134A012131701170204606B0E8
:1038E00070BD164D1648A847124D07211920A8474C
:1038F00000211A20A84700211B20A84700211C20D6
:10390000A8470D48804701213170E7E70C78012C6A
:10391000BDD1E3E70B482146084B9847E5E700BFD8
:103920008504002086040020891F000895310008C6
:103930008135000885370008513800084118000813
:10394000A4600008BC60000840F6885300EB8000CB
:10395000C2F2000303EB40010889704700B587B04D
:103960000A2001A903220B4B984760B99DF8051066
:103970009DF80420342908D09DF80610332918BF7B
:10398000002007B000BD0020FBE7B2F14803584219
:103990005841F1E73135000830B5214C87B0237824
:1039A000204A012B1AD00A201F490025157088478C
:1039B0001E4880471E4B984758B11E4B284601A908
:1039C00003229847034668B101222270184607B0C7
:1039D00030BD194B194898470823F5E71378012B98
:1039E000E1D1F3E79DF804509DF8062025F004018D
:1039F00022F0030341F01805032201A98DF80630D7
:103A00000F4B8DF80450984703200E4A9047012130
:103A1000034621700028D9D102480170D6E700BFC3
:103A20008704002088040020891F000895310008C1
:103A30005D3900083135000841180008E4600008CD
:103A40004D3700086937000870B582B004466946F2
:103A5000032006220E4B9847A0B99DF800609DF800
:103A600001109DF804509DF805209DF802009DF876
:103A7000033041EA062142EA052243EA0020218080
:103A80006280A0800320034B984702B070BD00BF46
:103A9000313500086937000840F28843C2F200035C
:103AA0001878704710B50B4B9847044658B90A4828
:103AB0008047044608B9204610BD08482146084AF8
:103AC0009047204610BD07482146054B98472046A1
:103AD00010BD00BF81380008993900081C6100083A
:103AE00041180008006100082DE9F04F4FF0000870
:103AF00089B080F8008080F8018080F8028080F82A
:103B000003803F4F0646B8470128044618D0B847FF
:103B10000128044603D0404609B0BDE8F08F02A852
:103B2000384A904780460028F5D1BDF80800BDF816
:103B30000A30BDF80C107082B382F182F470EAE7AB
:103B400004A8314B984780460028E0D1BDF81010FA
:103B5000BDF81620BDF81A30BDF814A0BDF812004B
:103B6000BDF81850B180BDF81C10DFF8A890728124
:103B7000F381F080A6F808A0B58134707470B47039
:103B8000318200B2C84704460FFA8AF00D46C84792
:103B9000DFF884B002460B4620462946D84714A3D6
:103BA000D3E90023DFF874A0D04713A3D3E900239F
:103BB000164DA847164CA047B061BDF91000C84784
:103BC000CDE90001BDF91400C84702460B46DDE906
:103BD0000001D84706A3D3E90023D04706A3D3E9C1
:103BE0000023A847A047F06191E700BFAFF3008032
:103BF000182D4454FB21094000000020DCA54C4056
:103C0000993A0008493A0008A537000879030008E6
:103C1000AD080008AD0200086D5700081500000847
:103C200038B5154B1A78012A00D038BD134C2068DE
:103C300000B34028124A14D8116885B208181060E1
:103C400000228BB222600F48C021C0182A460E4BBA
:103C50009847012029460D4A904701200C49884782
:103C600038BD1568403805F14001ABB220601160E5
:103C70004025E8E7187038BDAC040020B8040020E7
:103C8000B4040020040E002009520008B9540008B2
:103C90007D53000810B540F69C54C2F2000445F272
:103CA00079532146C0F600030320984744F2A962E5
:103CB000C1B2C0F600022046904745F2A131032070
:103CC000C0F60001884710BD08B5084B18680528E4
:103CD00000D008BD064B1A68511C052A1960F8D19E
:103CE00000201860034B9847F3E700BFA0040020B2
:103CF0008C0400201947000845F64442C4F2000233
:103D0000136830B58F4C98B28F4D208021882B8856
:103D100089B0194001F4007081B2002968D122886D
:103D200002F400410B425FD1228802F480610B4211
:103D30004ED1208800F40052134206D045F644408C
:103D4000C4F200004DF6FF710160228802F4805039
:103D5000034231D1208800F400610B420ED07B4B2E
:103D60001A78002A25D102207949884745F644422D
:103D7000C4F200024FF2FF712B881160208800F41A
:103D80008072134213D045F64443C4F2000345F653
:103D900048404FF6FF61C4F2000019600268100449
:103DA00032D46C4B002018600720694B984709B04B
:103DB00030BD69488047D9E745F64443C4F2000363
:103DC0004EF6FF7119600020614A90472B88C1E7C9
:103DD000624A45F64443C4F200034FF6FF301860D0
:103DE000516888472B88A4E75D4880472B889BE76C
:103DF0005C4B4FF6FF5010601A78511CC8B2187017
:103E0000594B98472B888AE7524801684A1C026040
:103E100001680329C8D945F64042C4F2000211687E
:103E20000907C1D415685149ADB24FF4B8440D60CB
:103E3000C4F20004256845F60444ADB20095C4F20E
:103E40000004256845F60844ADB20195C4F20004AB
:103E5000256845F60C44ADB20295C4F2000425680D
:103E600045F61044ADB20395C4F20004256845F64A
:103E70001444ADB20495C4F20004256845F6184414
:103E8000ADB20595C4F20004256845F61C44ADB2F8
:103E90000695C4F200042468A4B207940C6844F0A8
:103EA00001040C600C68A4B214600C6824F00104D6
:103EB0000C60096889B21160196845F644424905E9
:103EC000C4F20002F8D54FF6FF33136000994FF4A7
:103ED000B8438AB2C4F200031A60019945F604435C
:103EE0008AB2C4F200031A60029945F608438AB206
:103EF000C4F200031A60039945F60C438AB2C4F277
:103F000000031A60049945F610438AB2C4F2000314
:103F10001A60059945F614438AB2C4F200031A6088
:103F2000069945F618438AB2C4F200031A6007994D
:103F300045F61C438AB2C4F2000300211A600160F6
:103F400032E700BFDC0D002038160020A40400205A
:103F500025440008980400205542000884020020EF
:103F6000B155000894040020C93C000890040020CA
:103F7000034B987A10B1034905220A60704700BFCD
:103F800014160020A004002040F2A043C2F2000357
:103F900004221A60704700BF034B1A78202A01D10F
:103FA00000201870704700BF9C040020704700BFBD
:103FB000212810B5034603D0202811D0022010BDBF
:103FC0000F4A1368187800F07F012129F6D10D49B6
:103FD000126800242046916154828847204610BD13
:103FE000074A1168087800F07F01212903D0064AAA
:103FF0000220137010BD044C04492370E8E700BF91
:1040000034160020454000089C0400205D40000854
:10401000074B19680A7802F07F03212B01D0022098
:104020007047022801D02228F9D10020704700BF34
:104030003416002009B1022070470128FBD8084639
:10404000704700BF08B103487047034B0822196846
:104050000A827047000300203416002008B103488C
:104060007047034B082219680A827047000300203A
:104070003416002008B5064B1968CA78042A05D8FA
:10408000044B03EBC201044A904708BD002008BD61
:1040900034160020E0020020D14B000808B540F2A1
:1040A0007C2144F6D133C2F20001C0F600039847E8
:1040B00008BD00BF08B540F2D82144F6D133C2F2A2
:1040C0000001C0F60003984708BD00BF41F234620A
:1040D00046F2AC13C0F60003C2F200021068D979B0
:1040E0002DE9F047002445F2D12541728472C47253
:1040F000C0F60005204645F2E526A847C0F60006B2
:1041000020464FF4007145F2FD25B047C0F600058A
:104110001021204645F2514AA847C0F6000A402126
:10412000204645F22D48D047C0F6000880212046A1
:1041300045F2C537C047C0F600072046B84740F2F1
:104140008422C2F2000245F2D94992F82C10C0F63E
:1041500000092046C84745F2A133C0F600032046B7
:10416000984701202146B0470120C021C04745F2B1
:104170003D3701202021A847C0F600070120214635
:10418000B84702204FF4C061B04702204FF480715D
:10419000C04702202146B84702202021A84703201B
:1041A0002146B04703204FF48871D04703204021B7
:1041B000C84703204FF44051B84721460320A84781
:1041C00045F2AD012046C0F60001884740F2A0400C
:1041D000C2F2000001220260BDE8F08744F2BD7324
:1041E00010B5C0F60003984741F23460C2F20000F7
:1041F0000268002444F219219472C0F60001884735
:1042000045F24D53C0F60003984740F2A040C2F279
:104210000000046010BD00BF38B544F28D6301207A
:10422000C0F60003984745F6444545F6404341F241
:104230003862C4F2000300214FF4E0540120C4F2BC
:104240000005C2F200021860196008462960148057
:104250001C6038BDF0B5002183B045F640434FF4F3
:10426000B8420191C4F20003C4F200021868146855
:104270006049A5B245F604460D60C4F200063768F1
:1042800045F60842BCB24C60C4F20002156845F61F
:104290000C46AFB28F60C4F20006346845F6104297
:1042A000A5B2CD60C4F20002166845F61447B4B258
:1042B0000C61C4F200073D6845F61842AEB24E618B
:1042C000C4F20002176845F61C45BCB28C61C4F20A
:1042D00000052E6882B24FF6FE7442F480620440FC
:1042E000B7B244F4806542F0010645F64440CF6120
:1042F000C4F200001A601E601D60026845F6444367
:104300005205C4F20003F8D54FF6FF301860086874
:104310004FF4B84280B2C4F200021060486845F61B
:10432000044280B2C4F200021060886845F6084278
:1043300080B2C4F200021060C86845F60C4280B238
:10434000C4F200021060086945F6104280B2C4F25F
:1043500000021060486945F6144280B2C4F20002BF
:104360001060886945F6184280B2C4F200021060FD
:10437000C86945F6404245F61C41C4F2000280B2CD
:10438000C4F2000144F481640860146010684FF4C2
:10439000E04184B244F004001060C4F200010868F7
:1043A0004EF6105401900868CEF2000420F003008D
:1043B00040F001000860206840F0040020601868A8
:1043C000C0040FD54EF6FF70186010684FF6F773F3
:1043D00003401360019A0A60216821F00400206004
:1043E00003B0F0BD044B9847226822F0040121601D
:1043F000F6E700BFE40D00200148000810B545F6BF
:104400004044C4F2000423684FF6FB721A4044F2A1
:10441000BD502260C0F6000080474FF43F4121604C
:1044200010BD00BF10B52B4C072818BF2070237893
:10443000052B19D8DFE803F01B222A2F3A036078F6
:10444000411ECAB26270637883B945F64042C4F235
:10445000000210684FF6EF71014011601D4A1E49BD
:10446000062010700B6010BD0621217010BD1A4A85
:104470001168002928D00520207010BD174A9047E8
:10448000154B042101202170186010BD0223032068
:104490006370207010BD6278511ECBB2637060787B
:1044A0000028E3D10B4904220A7010BD45F64043B1
:1044B000C4F20003186882B242F0100119600A20A9
:1044C00005232370607010BD044B984706222270AC
:1044D00010BD00BFE00D0020A8040020FD4300082F
:1044E00040F21443C4F201034FF480221A60704773
:1044F00070B48AB3561EF2B2531C5E00030FB21E94
:104500000024092BC2F3400228D937330B70022351
:104510000001B3424C701FD052B1020F092A13D9C7
:104520003732CA54CA1802330001B342547013D050
:10453000050F092D15D83035CD540001020FCD18C7
:104540000233092A6C70EBD83032CA54CA180233CD
:104550000001B3425470EBD170BC704730330B7024
:10456000D5E73735CD54E8E708B543F6F943C0F64B
:104570000003984708BD00BF41F20403C4F20103E1
:104580001A6822F470001860196841F400121A6069
:1045900018681860704700BF41F20402C4F20202BA
:1045A000116841F21C0321F480001060C4F2020380
:1045B0001A6842F400011960704700BF054B987AF1
:1045C00018B9054901220A607047034B052018609D
:1045D000704700BF14160020A004002040F21442CF
:1045E00038B5C4F201024FF480214FF480631160AA
:1045F000C4F20103186840F2044420F480251D60D1
:10460000C4F2010422684FF4816122F4802020600A
:10461000C4F201010C6840F20C4544F480220A60A7
:10462000C4F20105296842F2913421F48020286007
:104630001D6844F2695145F480259020C0F60001C0
:104640000022C0F600041D60A0474FF46143CEF283
:1046500000031A68E82042F48011196044F2E14135
:10466000C0F600010022A0474EF20410CEF2000076
:1046700002684FF4826342F480610160C4F2010376
:10468000186840F480221A6038BD00BF41F20C0364
:10469000C4F201031A6818B942F400501860704758
:1046A00022F40051196070472DE9F0410F4682B0A5
:1046B000054661B303784A1E05200124154E0DF10D
:1046C000070102EA04088DF80730B047BC421ED249
:1046D000B8F1000F09D06B7805200DF10701022415
:1046E0008DF80730B047BC4211D22A5D0DF10701A9
:1046F000013405208DF80720B0472B5D05200DF112
:10470000070101348DF80730B047BC42EDD302B049
:10471000BDE8F0817D22000870B5204C2378012B84
:1047200023D01F4D2B68B3F5006F2CD01D4A1168A4
:104730008B422FD01AD898B2CE1A1B4A402E166040
:104740001BD9403E403316602B604026174B012595
:1047500018183246C021164B257098472846314616
:10476000144A904728461449884770BDC3F500662F
:104770000D4A402E166098B2E3D8F1182960002542
:10478000B6B21560E2E7074900200968286009B160
:104790000346D1E70020207070BD00BFAC040020AC
:1047A000B4040020B0040020B8040020040E00204F
:1047B00009520008B95400087D53000838B54FF27B
:1047C000E8724FF2F073C1F6FF72C1F6FF73106822
:1047D0001A684FF2EC71C1F6FF7180180C6807D0AF
:1047E00004490822044DA847204604490422A8474A
:1047F00038BD00BF2A020020F14400083A02002020
:1048000030BF704708B538B1064B18680168884753
:10481000054A10680A3008BD034B012219680A8254
:1048200008BD00BF301600203416002008B538B18E
:10483000064B186881688847054A10680C3008BD27
:10484000034B012219680A8208BD00BF3016002000
:104850003416002008B500283BD0234B2348002104
:104860001A680180137813F07F0312D1537A03F092
:104870002002D1B259BB027803F04003D9B211B380
:1048800042F0010303701A4801680A69904717480B
:1048900008BD012B16D0022B13D1517901F00F0264
:1048A000930003F1804202F5B84311F0800F1968BC
:1048B00014D101F44052B2F5805FE4D101210170BE
:1048C000E1E7084608BD22F001020270DBE70222A0
:1048D000D2E7054B022219680A8208BD01F03003B5
:1048E000102BD0D1EAE700BF3416002004160020B8
:1048F000301600202DE9F041274E3468238A277AAC
:1049000023B9042F2AD0A58A042703E0A58AAB4245
:10491000FAD902279D4228BF1D46A169284688472B
:104920001E4A8046002090472A4601461C4B4046BE
:104930009847294600201B4A9047208A618A431BDA
:1049400023826D181848194B658230224FF440516C
:104950003468028019802772BDE8F081144A10780B
:10496000012806D0104910270F8007272772BDE8BD
:10497000F08145F65040C4F20000006843F20201A5
:1049800080B2C2F20001411848000749036030209C
:1049900008801370DFE700BF341600207954000848
:1049A00009520008B95400083C1600203A160020AD
:1049B000BC04002010B50B4B0B4A18685178C37823
:1049C000994201D2022010BD8278002AFAD184884F
:1049D000002CF7D18372054801684B689847204640
:1049E00010BD00BF34160020080300203016002040
:1049F00038B5104A104C116823688A695879D978FB
:104A000090472368997A09B9022038BD0028FBD164
:104A100018790028F8D19D78002DF5D1074A136840
:104A2000D9688847236828465979DA78D9721A7381
:104A300038BD00BF0C1600203416002030160020B0
:104A400038B5354B1B68187810F07F0003D002286A
:104A500006D0022038BD597A21F020025A7238BDA2
:104A60005A88002AF6D119790029F3D15A7922F00F
:104A70008000810001F18044150604F5B84456BF5A
:104A80002468256804F44055244C48BF05F03005DF
:104A90002478A042DDD2002DDBD09B7A002BD8D029
:104AA00002F08002D3B273B101F1804101F5B84246
:104AB000136803F03001102921D0194801684A69B0
:104AC0009047002038BD01F1804101F5B8442268CB
:104AD00002F44053B3F5805FEFD1C8B9114A124BCD
:104AE00092F82C10984720684BF68F71014081F4A2
:104AF000405242F4004343F080002060DDE7C4B23E
:104B000020460A4A904720463021094B9847D4E76F
:104B100008498847E7E700BF341600200803002053
:104B20003016002084020020D954000809540008DF
:104B3000FD520008E553000838B5224B19684B793F
:104B400023F08002900000F180441D0604F5B84473
:104B500056BF2468256804F440551B4C48BF05F037
:104B600030052478A24201D3022038BD4A88002AA9
:104B7000FAD1002DF8D0897A0029F5D003F080030E
:104B800000F1804000F5B842DBB211687BB148F615
:104B9000BF70084080F0100141F4004343F08000F2
:104BA00010600A4A11688B699847002038BD4BF69F
:104BB0008F730B4083F4805040F4004141F0800338
:104BC0001360EEE7341600200803002030160020A2
:104BD000054B1B685A8A10B108688018704789888D
:104BE0008A1A1A82704700BF3416002008B50C4B91
:104BF000002093F82C100B4A90470B480168087A64
:104C0000082806D1094B4FF480521A80084A102117
:104C10001180B0F1090CDCF1000050EB0C0008BD74
:104C200084020020D9540008341600203A160020CF
:104C30003C160020F8B5334D2C68237A022B07D0A0
:104C4000042B05D0032B08D0052B06D0072B0DD045
:104C5000082222722C4B9847F8BDA169208A11B313
:104C600058B9A48A002C45D0284A2EE0284801686B
:104C7000CA6890472C680822EBE7A68A864228BFBC
:104C8000064630468847638A0746208AF118821B09
:104C9000228261821F4B00209847324601461E4BFC
:104CA00038469847208A0028DBD01C4B00204FF460
:104CB000405201461A801A4A9047238AA18A134A11
:104CC00030209942108015D9C3B92C68062145F6C9
:104CD00050432172C4F20003186843F2020381B208
:104CE000C2F20003C8184300002119603020108070
:104CF000227AAEE72C6803222272AAE72C680522EA
:104D00002272A6E734160020ED4B00083C16002066
:104D10000C16002099540008815200083A16002011
:104D2000B9540008F0B545F650439E4DC4F2000357
:104D30001A682C6843F2040091B2C2F20000227A91
:104D40000E187300092A83B01E6844D0B7B27800E9
:104D500000F1804101F5C0463278934F227073789C
:104D60006370B088B847608030892C68B847A080ED
:104D7000B0892C680121E0802172002830D0617850
:104D8000062900F0878000295ED16388002B00F09F
:104D90009480864E336808461969884703282B6833
:104DA00062D01A8A4FF6FF718A425DD002280CD079
:104DB0005AB193F900100029C0F2B58003221A728B
:104DC0007B4B4FF44050188001E008201872794B5B
:104DD000984703B0F0BDE088012121720028CED1B0
:104DE0002278667812F07F0341D1092E00F0088105
:104DF000052E00F0BF80032E00F0F080012E3BD185
:104E0000E178012938D1A288002A35D1637A03F0EC
:104E10002004E0B200282FD06749884760BB2C6887
:104E200045F65040C4F20000016843F202038AB222
:104E3000C2F20003D01841000023604A0B6030200A
:104E4000062110802172C2E7082948D12078430644
:104E50009FD15B4A0020A261608290472B684FF689
:104E6000FF701A8A8242A3D109211972AFE7012B80
:104E700071D0022B00F08D804C4930460A6853698E
:104E80009847032800F0C5802C680028C8D0082166
:104E900021729CE7267873067FF47BAFA278434E9D
:104EA000012A00F0B080022A5ED0032A7FF472AF9C
:104EB0003068426A002ACDD16CE7606820F47F42F6
:104EC000B2F5003F7FF465AF237813F07F0040F028
:104ED000A480A388002B7FF45CAF3A4ABAE70A2982
:104EE0007FF457AF267806F07F02012A7FF451AF96
:104EF000A37A002B3FF44DAF6388002B7FF449AFBA
:104F000060682A4E20F47F42B2F5803F7FF442AFC2
:104F100032681946607993699847002840F0B88054
:104F20002C68294A96E7D98801910198824217D8BE
:104F30008A421E4908D2086890F82C00824280F00C
:104F40008F80224A00201070096891F82C209A82E4
:104F50001F4B98473BE70B2E8ED11E4880475DE7DD
:104F6000019812491882EFE733681A6A002A7FF421
:104F700071AF0FE794F90300002888DBA1780029BE
:104F800085D1A288002A82D1A37A002B3FF448AFB2
:104F90007DE7012E3FF440AF032E7FF46DAF0E4C42
:104FA000A0473BE734160020415500080C160020AE
:104FB0003A160020ED4B0008414A00083C1600203C
:104FC00005480008554800082D480008BC0400208A
:104FD000F5480008F1490008394B0008E278012A39
:104FE0007FF44AAFA388002B7FF446AF607A2A4A49
:104FF00040F0200113686172DC69A0472C680FE75C
:10500000264CA0470AE73268D269002A7FF422AF13
:10501000C0E62C6809212172D9E601282BD002288C
:105020007FF4B7AE637903F00F02960006F180407B
:1050300000F5B8401E0656BF0068066800F44056EA
:10504000174848BF06F0300600788242BFF4A1AE90
:1050500013F0700F7FF49DAE002E7FF43EAF98E604
:1050600092FBF0F400FB1422002A7FF46DAF0D4A8E
:105070000120107068E70C4E607933689A69904798
:1050800030B92C68A07A00287FF427AF617881E6D8
:10509000296849787EE600BF30160020B54900082F
:1050A00008030020BC0400200C160020F0B4284B9C
:1050B0001E78002E43D04FF4B842C4F200021468A8
:1050C00040F60F71214041F4004343F0800111602C
:1050D0000122741E45F60443964204F00104C4F212
:1050E00000032CD97CB1196840F60F720A4042F4D3
:1050F000004141F081021A60022245F608439642BF
:10510000C4F200031BD91F6842F4004540F60F7437
:1051100045F080053C4045EA0407194641F8047B08
:105120005F68013242F4004540F60F7445F0800597
:105130003C402C4301325C600B1D9642E3D845F69F
:105140004C4340F08000C4F200031860F0BC70478C
:105150000803002010B5144C23681A7A022A12D0D2
:10516000042A10D0062A04D0082018720F4B984742
:1051700010BD597805290BD00D4B186881688847F8
:1051800023680820F1E70B4A90472368187AECE778
:105190001A785206F0D1D878074B9847074801682B
:1051A0000A6A9047E8E700BF34160020ED4B00087C
:1051B0000C160020F5480008AD50000830160020FD
:1051C000704700BF10B541F2146241F23464C2F27C
:1051D0000002C2F2000422600224147241F20C6048
:1051E00040F2842341F2306140F2B422C2F2000363
:1051F000C2F20000C2F20001C2F2000203600A60C3
:105200001868804710BD00BF01F1005101F5405101
:10521000531C4A00591030B42FD04578023010F892
:10522000024C013944EA052322F8043B0B460432C0
:1052300001F00101023003B359B110F8014C10F82C
:10524000021C023041EA042122F8041C0432013B12
:1052500013D010F8021C10F8014C41EA042422F883
:10526000044C4478023010F8021C023041EA042158
:1052700022F8041B0432023BEBD130BC704700BF64
:1052800001F1005101F5405301325900521030B480
:105290001CD00B68013A20F8023B1346023002F0A2
:1052A00001029BB132B151F8042F20F8022C0230D8
:1052B000013B0BD00C1D4D688968024620F8025C4A
:1052C00022F8021B901C211D023BF3D130BC704719
:1052D0004FF6F87345F650420340C4F200021360E3
:1052E000704700BF800000F1804202F5B8421068AC
:1052F00048F68F130340194311607047800000F196
:10530000804202F5B84210B401F01000146848F66B
:10531000BF7380B2234068B99BB201F0200188B20C
:1053200008B183F0200343F4004141F08000106095
:1053300010BC704783F01003EFE700BF800000F15E
:10534000804202F5B84210B401F4805014684BF664
:105350008F7380B2234068B99BB201F4005188B2C8
:1053600008B183F4005343F4004141F08000106021
:1053700010BC704783F48053EFE700BF800000F15A
:10538000804202F5B840016848F6BF730B4083F0D5
:10539000300242F4004141F080030360704700BFD7
:1053A000800000F1804202F5B84001684BF68F732F
:1053B0000B4083F4405242F4004141F0800303600B
:1053C000704700BF800000F1804202F5B8400168DC
:1053D00040F60F630B4043F4004242F0800101604D
:1053E000704700BF800000F1804303F5B8400268B9
:1053F000510408D5016840F60F730B4043F4404256
:1054000042F0800101607047800000F1804303F5A5
:10541000B8431A68500608D5196840F60F7008405E
:1054200040F4004242F0C0011960704745F6504315
:10543000C4F200031A684FF6FE7392B202EBC0008A
:1054400000F1005202F5405042000B4013607047DB
:1054500045F65043C4F200031A6843F2040392B2C3
:1054600002EBC000C2F20003C3184FF6FE725800F0
:105470000A400260704700BF45F65043C4F2000383
:1054800019688AB202EBC00000F1005303F54051E5
:105490004A001088704700BF45F65043C4F200032D
:1054A0001A6843F2040193B203EBC000C2F2000198
:1054B000421851000888704745F65043C4F2000373
:1054C0001A6843F2020392B202EBC000C2F2000378
:1054D000C3185A001160704745F65043C4F20003E8
:1054E0001A6843F2060392B202EBC000C2F2000354
:1054F000C3185B003E2909D94A09C90601D1501ECB
:1055000082B2910241F40040186070474A08C8070F
:1055100048BF013291021960704700BF45F6504301
:10552000C4F200031A6843F2060193B203EBC00011
:10553000C2F20001421851000B689805800D7047B7
:10554000C3B2000A40EA0320704700BF10B441F222
:10555000386345F6444445F640424FF43F4100204D
:10556000C4F20004C2F20003C4F2000220601980F9
:10557000116010BC704700BF70B545F21D5300F0BC
:105580007F05C0F6000328460E46984745F299412C
:105590000446C0F600012846884745F281230146AB
:1055A00022463046C0F600039847204670BD00BF33
:1055B0002DE9F04FDFF8ACA183B045F6444B002352
:1055C000DFF8A491624DADF80630C4F2000BD0466E
:1055D000DBF800004FF4B84482B20304AAF80020BC
:1055E00040F1AB80B8F80030C4F2000403F00F02C1
:1055F000900000F18040574E4BF6BF71544F134658
:1056000000F5B84089F80020002A33D1226890B212
:1056100028802B8803F030023280288800F4405321
:105620002B802268114081F4005181F0200040F469
:10563000004343F080022260B8F8001001F010002F
:1056400083B2002B49D0226891B2ADF80610BDF8A4
:10565000060000F400639AB2002A71D1BDF806106A
:1056600008B20028B4DA226840F68F731340236032
:10567000394938E00468A1B2ADF80610BDF806203B
:1056800014B2002C1BDBBDF8061001F0800293B2AF
:10569000002B9DD099F8004048F60F73A00000F150
:1056A000804101F5B8421068013C0340136040F2AC
:1056B0004423C2F2000353F82410884788E70168A6
:1056C00040F68F720A40026040F26020013BC2F255
:1056D000000050F82340A047D5E7216848F60F7333
:1056E0000B401E492360884720683A884BF6BF73F9
:1056F00002F480518AB203400AB183F4805338889F
:1057000000F400518AB20AB183F40053308800F0EB
:1057100010018AB20AB183F01003308800F0200132
:105720008AB20AB183F0200343F400404FF4B84139
:1057300040F08002C4F200010A6003B0BDE8F08FBF
:10574000206840F68F72024022600549CBE700BF17
:105750003A1600203C160020354C00085551000830
:10576000254D0008DC0D00201016002000F000B8C8
:105770002DE9F04784B0CDE900239DE88010C7F102
:10578000000900262CF0004849EA070948EAD979BF
:10579000C7F6F076B145CDE9022304460D46024630
:1057A0000B4645D8C0F1000A21F000494AEA000A38
:1057B00049EADA7AB2453BD80CF1404C0CF5801C32
:1057C0005CEA070CDDF804A052D04FEAAA7606F096
:1057D000020059EA020240EAD17636D058EA0707B9
:1057E00040D00021C7F6F071884552D00027C7F697
:1057F000F077B94536D0C8EB09084FEA2858B8F118
:105800003C0F42DCBAF1000F7DDBDDE902232046CC
:105810002946FAF7DBFE00F06BFA00F0B5F8012E2E
:105820006DD0022E5CD0002E4DD104460D4607E00F
:1058300020462946DDE90223FAF7ECFB04460D4633
:105840002046294604B0BDE8F087032EC6D801A241
:1058500052F826F0415800084158000883580008C3
:105860007B580008002B2ADB35A5D5E90045E7E782
:1058700004B0BDE8F04700F087B833A5D5E900458E
:10588000DEE733A5D5E90045DAE72DA1D1E900012E
:10589000C5E7C1453ED0032EA8D801A252F826F094
:1058A000B9580008B1580008835800087B58000810
:1058B00000244FF00045C3E700240025C0E726A5DB
:1058C000D5E90045BCE726A3D3E90023FAF7A0FBFE
:1058D0001FA3D3E90023FAF79BFB04460D46AFE76D
:1058E0001FA3D3E90023FAF793FB02460B4618A146
:1058F000D1E90001FAF78CFB04460D46A0E7044607
:1059000001F100459CE718F13C0FBFF67EAF002087
:10591000002184E7032EA5D8DFE806F00E0A060270
:1059200011A5D5E900458BE711A5D5E9004587E725
:1059300011A5D5E9004583E711A5D5E900457FE725
:10594000182D4454FB21F93F182D4454FB2109C064
:10595000182D4454FB210940182D4454FB21F9BF54
:10596000075C143326A6A13CD221337F7CD902C028
:10597000D221337F7CD90240182D4454FB21E9BF4A
:10598000182D4454FB21E93F2DE9F84F4FF6FF73E2
:1059900021F00046C4F20F439E4288468A46814663
:1059A0001BDD0020C7F6F07086424B4600F3BE8038
:1059B00000F0B98042F2FB18414642F61859CBF686
:1059C000F978C3F6F971C5F24449BAF1000FC8BFBE
:1059D000884648464146BDE8F88F4FF6FF70C3F64B
:1059E000DB70864200F3BC804FF6FF71C3F61F6187
:1059F0008E4240F3A4804FF0FF3B4A464346484660
:105A00004146FAF7B9FC02460B4606460F46FAF73E
:105A1000B3FC9DA3D3E9002304460D46FAF7ACFC82
:105A20009BA3D3E90023FAF7F5FA22462B46FAF7AF
:105A3000A3FC99A3D3E90023FAF7ECFA22462B46FC
:105A4000FAF79AFC96A3D3E90023FAF7E3FA224681
:105A50002B46FAF791FC94A3D3E90023FAF7DAFA7C
:105A600022462B46FAF788FC91A3D3E90023FAF7E4
:105A7000D1FA32463B46FAF77FFC8FA3D3E90023E5
:105A800006460F4620462946FAF776FC8CA3D3E952
:105A90000023FAF7BDFA22462B46FAF76DFC8AA3DB
:105AA000D3E90023FAF7B4FA22462B46FAF764FC4E
:105AB00087A3D3E90023FAF7ABFA22462B46FAF77D
:105AC0005BFC85A3D3E90023FAF7A2FA22462B4612
:105AD000FAF752FCBBF1FF3F02460B466FD030464F
