:020000040800F2
:1000000000500020E125000881F0004102E000BF1F
:1000100083F0004330B54FEA41044FEA430594EAC8
:10002000050F08BF90EA020F1FBF54EA000C55EA03
:10003000020C7FEA645C7FEA655C00F0E2804FEAD4
:100040005454D4EB5555B8BF6D420CDD2C4480EAB6
:10005000020281EA030382EA000083EA010180EAE6
:10006000020281EA0303362D88BF30BD11F0004F34
:100070004FEA01314FF4801C4CEA113102D040426A
:1000800061EB410113F0004F4FEA03334CEA1333A5
:1000900002D0524263EB430394EA050F00F0A780BD
:1000A000A4F10104D5F1200E0DDB02FA0EFC22FAB8
:1000B00005F2801841F1000103FA0EF2801843FAAC
:1000C00005F359410EE0A5F120050EF1200E012A9D
:1000D00003FA0EFC28BF4CF0020C43FA05F3C018DB
:1000E00051EBE37101F0004507D54FF0000EDCF154
:1000F000000C7EEB00006EEB0101B1F5801F1BD3FD
:10010000B1F5001F0CD349085FEA30004FEA3C0C00
:1001100004F101044FEA445212F5800F80F09A80F6
:10012000BCF1004F08BF5FEA500C50F1000041EBFA
:10013000045141EA050130BD5FEA4C0C404141EBFE
:10014000010111F4801FA4F10104E9D191F0000F25
:1001500004BF01460020B1FA81F308BF2033A3F1A8
:100160000B03B3F120020CDA0C3208DD02F1140C9F
:10017000C2F10C0201FA0CF021FA02F10CE002F1DA
:100180001402D8BFC2F1200C01FA02F120FA0CFCD3
:10019000DCBF41EA0C019040E41AA2BF01EB04511C
:1001A000294330BD6FEA04041F3C1CDA0C340EDC1A
:1001B00004F11404C4F1200220FA04F001FA02F35D
:1001C00040EA030021FA04F345EA030130BDC4F11B
:1001D0000C04C4F1200220FA02F001FA04F340EA10
:1001E0000300294630BD21FA04F0294630BD94F0C1
:1001F000000F83F4801306BF81F480110134013DA8
:100200004EE77FEA645C18BF7FEA655C29D094EA18
:10021000050F08BF90EA020F05D054EA000C04BF96
:100220001946104630BD91EA030F1EBF0021002081
:1002300030BD5FEA545C05D14000494128BF41F020
:10024000004130BD14F580043CBF01F5801130BD84
:1002500001F0004545F0FE4141F470014FF000000F
:1002600030BD7FEA645C1ABF194610467FEA655CC0
:100270001CBF0B46024650EA013406BF52EA033562
:1002800091EA030F41F4002130BD00BF90F0000F50
:1002900004BF0021704730B54FF4806404F132048C
:1002A0004FF000054FF0000150E700BF90F0000F45
:1002B00004BF0021704730B54FF4806404F132046C
:1002C00010F0004548BF40424FF000013EE700BF3C
:1002D00042004FEAE2014FEA31014FEA02701FBFCC
:1002E00012F07F4393F07F4F81F06051704792F09E
:1002F000000F14BF93F07F4F704730B54FF4607418
:1003000001F0004521F0004120E700BF50EA010262
:1003100008BF704730B54FF000050AE050EA01020F
:1003200008BF704730B511F0004502D5404261EB7F
:1003300041014FF4806404F132045FEA915C3FF4C0
:10034000DCAE4FF003025FEADC0C18BF03325FEA59
:10035000DC0C18BF033202EBDC02C2F1200300FA0E
:1003600003FC20FA02F001FA03FE40EA0E0021FA33
:1003700002F11444C1E600BF70B54FF0FF0C4CF41D
:10038000E06C1CEA11541DBF1CEA135594EA0C0FD3
:1003900095EA0C0F00F0DEF82C4481EA030621EA0E
:1003A0004C5123EA4C5350EA013518BF52EA033549
:1003B00041F4801143F4801338D0A0FB02CE4FF0FB
:1003C0000005E1FB02E506F00042E0FB03E54FF02B
:1003D0000006E1FB03569CF0000F18BF4EF0010E23
:1003E000A4F1FF04B6F5007F64F5407404D25FEA1F
:1003F0004E0E6D4146EB060642EAC62141EA5551D2
:100400004FEAC52040EA5E504FEACE2EB4F1FD0C13
:1004100088BFBCF5E06F1ED8BEF1004F08BF5FEA91
:10042000500E50F1000041EB045170BD06F0004643
:1004300046EA010140EA020081EA0301B4EB5C04F0
:10044000C2BFD4EB0C0541EA045170BD41F48011E8
:100450004FF0000E013C00F3AB8014F1360FDEBF0D
:10046000002001F0004170BDC4F10004203C35DAE9
:100470000C341BDC04F11404C4F1200500FA05F36C
:1004800020FA04F001FA05F240EA020001F000420D
:1004900021F0004110EBD37021FA04F642EB060183
:1004A0005EEA430E08BF20EAD37070BDC4F10C04AD
:1004B000C4F1200500FA04F320FA05F001FA04F271
:1004C00040EA020001F0004110EBD37041F100015D
:1004D0005EEA430E08BF20EAD37070BDC4F1200568
:1004E00000FA05F24EEA020E20FA04F301FA05F2D0
:1004F00043EA020321FA04F001F0004121FA04F278
:1005000020EA020000EBD3705EEA430E08BF20EA47
:10051000D37070BD94F0000F0FD101F00046400081
:1005200041EB010111F4801F08BF013CF7D041EA03
:10053000060195F0000F18BF704703F00046520007
:1005400043EB030313F4801F08BF013DF7D043EAD8
:100550000603704794EA0C0F0CEA135518BF95EA8E
:100560000C0F0CD050EA410618BF52EA4306D1D115
:1005700081EA030101F000414FF0000070BD50EA34
:10058000410606BF1046194652EA430619D094EABE
:100590000C0F02D150EA013613D195EA0C0F05D1A8
:1005A00052EA03361CBF104619460AD181EA0301FC
:1005B00001F0004141F0FE4141F470014FF00000B4
:1005C00070BD41F0FE4141F4780170BD70B54FF04F
:1005D000FF0C4CF4E06C1CEA11541DBF1CEA1355CF
:1005E00094EA0C0F95EA0C0F00F0A7F8A4EB0504B1
:1005F00081EA030E52EA03354FEA013100F08880A8
:100600004FEA03334FF0805545EA131343EA126370
:100610004FEA022245EA111545EA10654FEA002625
:100620000EF000419D4208BF964244F1FD0404F5DE
:10063000407402D25B084FEA3202B61A65EB03053A
:100640005B084FEA32024FF480104FF4002CB6EBF7
:10065000020E75EB030E22BFB61A754640EA0C0077
:100660005B084FEA3202B6EB020E75EB030E22BFB7
:10067000B61A754640EA5C005B084FEA3202B6EBF8
:10068000020E75EB030E22BFB61A754640EA9C00B7
:100690005B084FEA3202B6EB020E75EB030E22BF87
:1006A000B61A754640EADC0055EA060E18D04FEA45
:1006B000051545EA16754FEA06164FEAC30343EAE5
:1006C00052734FEAC2025FEA1C1CC0D111F4801FB2
:1006D0000BD141EA00014FF000004FF0004CB6E7AB
:1006E00011F4801F04BF01430020B4F1FD0C88BF4A
:1006F000BCF5E06F3FF6AFAEB5EB030C04BFB6EB55
:10070000020C5FEA500C50F1000041EB045170BD47
:100710000EF0004E4EEA113114EB5C04C2BFD4EB74
:100720000C0541EA045170BD41F480114FF0000EF8
:10073000013C90E645EA060E8DE60CEA135594EA74
:100740000C0F08BF95EA0C0F3FF43BAF94EA0C0F77
:100750000AD150EA01347FF434AF95EA0C0F7FF4EC
:1007600025AF104619462CE795EA0C0F06D152EA40
:1007700003353FF4FDAE1046194622E750EA410624
:1007800018BF52EA43067FF4C5AE50EA41047FF435
:100790000DAF52EA43057FF4EBAE12E74FF0FF3C9A
:1007A00006E000BF4FF0010C02E000BF4FF0010C6B
:1007B0004DF804CD4FEA410C7FEA6C5C4FEA430CE4
:1007C00018BF7FEA6C5C1BD001B050EA410C0CBF33
:1007D00052EA430C91EA030F02BF90EA020F002095
:1007E000704710F1000F91EA030F58BF994208BFFC
:1007F00090422CBFD8176FEAE37040F001007047B9
:100800004FEA410C7FEA6C5C02D150EA013C07D10F
:100810004FEA430C7FEA6C5CD6D152EA033CD3D05A
:100820005DF8040B704700BF8446104662468C4654
:100830001946634600E000BF01B5FFF7B7FF002887
:1008400048BF10F1000F01BD4DF808EDFFF7F4FFB0
:100850000CBF012000205DF808FB00BF4DF808ED3B
:10086000FFF7EAFF34BF012000205DF808FB00BF5E
:100870004DF808EDFFF7E0FF94BF012000205DF880
:1008800008FB00BF4DF808EDFFF7CEFF94BF012035
:1008900000205DF808FB00BF4DF808EDFFF7C4FF2E
:1008A00034BF012000205DF808FB00BF4FEA410281
:1008B000B2F1E04324BFB3F5001CDCF1FE5C0DD9BE
:1008C00001F0004C4FEAC0024CEA5070B2F1004F08
:1008D00040EB830008BF20F00100704711F0804F0B
:1008E00021D113F13872BCBF01F00040704741F4D0
:1008F00080114FEA5252C2F11802C2F1200C10FAD4
:100900000CF320FA02F018BF40F001004FEAC123B7
:100910004FEAD32303FA0CFC40EA0C0023FA02F35B
:100920004FEA4303CCE77FEA625307D150EA013331
:100930001EBF4FF0FE4040F44000704701F0004001
:1009400040F0FE4040F40000704700BF80F00040DF
:1009500002E000BF81F0004142001FBF5FEA410397
:1009600092EA030F7FEA226C7FEA236C6AD04FEA97
:100970001262D2EB1363C1BFD218414048404140DC
:10098000B8BF5B42192B88BF704710F0004F40F48E
:10099000000020F07F4018BF404211F0004F41F4AA
:1009A000000121F07F4118BF494292EA030F3FD076
:1009B000A2F1010241FA03FC10EB0C00C3F1200389
:1009C00001FA03F100F0004302D5494260EB400018
:1009D000B0F5000F13D3B0F1807F06D340084FEA83
:1009E000310102F10102FE2A51D2B1F1004F40EB78
:1009F000C25008BF20F0010040EA030070474900E0
:100A000040EB000010F4000FA2F10102EDD1B0FAAA
:100A100080FCACF1080CB2EB0C0200FA0CF0AABF9F
:100A200000EBC25052421843BCBFD040184370473D
:100A300092F0000F81F4000106BF80F40000013243
:100A4000013BB5E74FEA41037FEA226C18BF7FEA1A
:100A5000236C21D092EA030F04D092F0000F08BF5C
:100A60000846704790EA010F1CBF0020704712F043
:100A70007F4F04D1400028BF40F00040704712F182
:100A800000723CBF00F50000704700F0004343F0E7
:100A9000FE4040F4000070477FEA226216BF08461D
:100AA0007FEA23630146420206BF5FEA412390EAE0
:100AB000010F40F4800070474FF0000304E000BFD6
:100AC00010F0004348BF40425FEA000C08BF704787
:100AD00043F0964301464FF000001CE050EA01024B
:100AE00008BF70474FF000030AE000BF50EA010260
:100AF00008BF704711F0004302D5404261EB41014D
:100B00005FEA010C02BF84460146002043F0B64371
:100B100008BFA3F18053A3F50003BCFA8CF2083A96
:100B2000A3EBC25310DB01FA02FC634400FA02FC9F
:100B3000C2F12002BCF1004F20FA02F243EB0200A6
:100B400008BF20F00100704702F1200201FA02FC08
:100B5000C2F1200250EA4C0021FA02F243EB0200FB
:100B600008BF20EADC7070474FF0FF0C1CEAD0523F
:100B70001EBF1CEAD15392EA0C0F93EA0C0F6FD000
:100B80001A4480EA010C400218BF5FEA41211ED0DE
:100B90004FF0006343EA501043EA5111A0FB0131CA
:100BA0000CF00040B1F5000F3EBF490041EAD3719F
:100BB0005B0040EA010062F17F02FD2A1DD8B3F11B
:100BC000004F40EBC25008BF20F00100704790F08A
:100BD000000F0CF0004C08BF49024CEA502040EADC
:100BE00051207F3AC2BFD2F1FF0340EAC2507047A2
:100BF00040F400004FF00003013A5DDC12F1190FE0
:100C0000DCBF00F000407047C2F10002410021FA51
:100C100002F1C2F1200200FA02FC5FEA310040F169
:100C2000000053EA4C0308BF20EADC70704792F0E2
:100C3000000F00F0004C02BF400010F4000F013A1A
:100C4000F9D040EA0C0093F0000F01F0004C02BF15
:100C5000490011F4000F013BF9D041EA0C018FE784
:100C60000CEAD15392EA0C0F18BF93EA0C0F0AD08A
:100C700030F0004C18BF31F0004CD8D180EA0100B0
:100C800000F00040704790F0000F17BF90F0004F49
:100C9000084691F0000F91F0004F14D092EA0C0F2B
:100CA00001D142020FD193EA0C0F03D14B0218BFBE
:100CB000084608D180EA010000F0004040F0FE4004
:100CC00040F40000704740F0FE4040F440007047A0
:100CD0004FF0FF0C1CEAD0521EBF1CEAD15392EA1F
:100CE0000C0F93EA0C0F69D0A2EB030280EA010C0F
:100CF00049024FEA402037D04FF0805343EA1111A8
:100D000043EA10130CF000408B4238BF5B0042F105
:100D10007D024FF4000C8B4224BF5B1A40EA0C00AA
:100D2000B3EB510F24BFA3EB510340EA5C00B3EBDC
:100D3000910F24BFA3EB910340EA9C00B3EBD10FCA
:100D400024BFA3EBD10340EADC001B0118BF5FEA1C
:100D50001C1CE0D1FD2A3FF650AF8B4240EBC25045
:100D600008BF20F0010070470CF0004C4CEA502006
:100D70007F32C2BFD2F1FF0340EAC250704740F455
:100D800000004FF00003013A37E792F0000F00F047
:100D9000004C02BF400010F4000F013AF9D040EAC5
:100DA0000C0093F0000F01F0004C02BF490011F459
:100DB000000F013BF9D041EA0C0195E70CEAD15351
:100DC00092EA0C0F08D142027FF47DAF93EA0C0F38
:100DD0007FF470AF084676E793EA0C0F04D14B021C
:100DE0003FF44CAF08466EE730F0004C18BF31F0CE
:100DF000004CCAD130F000427FF45CAF31F00043C8
:100E00007FF43CAF5FE700BF4FF0FF3C06E000BF60
:100E10004FF0010C02E000BF4FF0010C4DF804CD83
:100E20004FEA40024FEA41037FEA226C18BF7FEA93
:100E3000236C11D001B052EA530C18BF90EA010F95
:100E400058BFB2EB030088BFC81738BF6FEAE17024
:100E500018BF40F0010070477FEA226C02D15FEAC0
:100E6000402C05D17FEA236CE4D15FEA412CE1D02C
:100E70005DF8040B704700BF844608466146FFE7F3
:100E80000FB5FFF7C9FF002848BF10F1000F0FBDD5
:100E90004DF808EDFFF7F4FF0CBF012000205DF8CE
:100EA00008FB00BF4DF808EDFFF7EAFF34BF012053
:100EB00000205DF808FB00BF4DF808EDFFF7E0FFEC
:100EC00094BF012000205DF808FB00BF4DF808ED3D
:100ED000FFF7D2FF94BF012000205DF808FB00BFA0
:100EE0004DF808EDFFF7C8FF34BF012000205DF882
:100EF00008FB00BF4FEA4002B2F1FE4F0FD34FF0A4
:100F00009E03B3EB12620DD94FEA002343F0004376
:100F100010F0004F23FA02F018BF404270474FF024
:100F20000000704712F1610F01D1420205D110F0AB
:100F3000004008BF6FF0004070474FF0000070475E
:100F400008B542F621230020C0F60003984708BDEB
:100F50002DE9F04F4D4B95B0984700244C48804701
:100F60004C4D02224C4B20464FF47A710094A84716
:100F700020464A4988474A4A90474A4F4A4EDFF836
:100F800038914A4CDFF83481BA46B847722861D0AC
:100F9000762876D06228F8D1D04783460028F4D04E
:100FA000002509A8B04700209DF82410A047002084
:100FB0009DF82510A04700209DF82810A04700208C
:100FC0009DF82910A04700209DF82C10A047002074
:100FD0009DF82D10A04700209DF83010A04700205C
:100FE0009DF83110A04700209DF83410A047002044
:100FF0009DF83510A04700209DF83810A04700202C
:101000009DF83910A04700209DF83C10A047002013
:101010009DF83D10A04700209DF84010A0470020FB
:101020009DF84110A04700209DF84410A0470020E3
:101030009DF84510A04700200121A0470020012174
:10104000A0470A20C0476B1CDDB25D45A9D1B84757
:1010500072289DD109A8B0470C980D990E9A00905E
:10106000019102920F9B11981299139A109D03936C
:10107000059004950691079209AB0D480ECBC84721
:1010800083E709A8B0470B48C8477EE7AD260008AC
:10109000C1100008A12E0008410F0008C12E000851
:1010A0009911000821290008C9450008C92800082D
:1010B00074790008987900083D2000088527000809
:1010C000704700BF38B547F6A01042F23D0447F61E
:1010D000A415C0F60004C0F60005C0F60000A04745
:1010E0002846A04747F6E010C0F60000A047284673
:1010F000A04747F61C20C0F60000A04747F658203E
:10110000C0F60000A04747F69420C0F60000A047B4
:1011100047F6D020C0F60000A04747F60C30C0F6D6
:101120000000A04747F64830C0F60000A04747F649
:101130008430C0F60000A04747F6C030C0F600007B
:10114000A04747F6FC30C0F60000A04747F63840FD
:10115000C0F60000A0472846A04747F60460C0F646
:101160000000A04738BD00BF38B547F6744042F2D2
:101170003D04C0F60004C0F60000A04742F621136B
:10118000C0F600039847054647F60460C0F6000025
:10119000A047284638BD00BF2DE9F04F41F2C501F8
:1011A000A1B0C0F60001884700200146A94AAA4B19
:1011B000DFF818839847C047DFF81493A74C41F233
:1011C0006910C0F6000080470246002800F00B833B
:1011D000A2F131013C29F2D801A353F821F000BF5C
:1011E000C9170008CB160008471600082316000888
:1011F000C1150008D5140008DB130008D51200083B
:10120000BF110008BF110008BF110008BF1100087E
:10121000BF110008BF110008BF110008BF1100086E
:10122000BF110008BF110008BF110008BF1100085E
:10123000BF110008BF110008BF110008BF1100084E
:10124000BF110008BF110008BF110008BF1100083E
:10125000D3170008BF110008BF110008BF11000814
:10126000BF110008BF110008BF110008BF1100081E
:10127000BF110008BF110008BF110008BF1100080E
:10128000BF110008BF110008BF110008BF110008FE
:10129000BF110008BF110008BF110008BF110008EE
:1012A000BF110008BF110008BF110008BF110008DE
:1012B000BF110008BF110008BF110008BF110008CE
:1012C000BF110008BF110008BF110008BF110008BE
:1012D000D3170008DFF8C8A1614F16E00326022BE0
:1012E00000F3848202B22C2A75DC0325022A00F363
:1012F00080825C48804729463046032200235A4DAD
:10130000A847C0470A2059498847D04700287FF49A
:1013100056AFB84745F2D9360A210546C0F6000651
:101320000FA8B047B847431B99B25148A04751484E
:10133000BDF94820B0F900104F4E511A4F48A04750
:10134000B6F90030BDF94A504D48E91AA0474D485A
:10135000BDF94C20B0F900104B48511A4B4DA04735
:101360001798A84706B21D98A847314602B24848C8
:10137000A0471898A84706B21E98A847314602B25F
:101380004448A0471998A84706B21F98A847314675
:1013900002B24148A0470021404EC4F234311D98AA
:1013A000B04701460020C4F22820B047A8470021DA
:1013B0008346C4F234311E98B04701460020C4F27F
:1013C000C010B047A8470FFA8BF3502B86DD02B24E
:1013D00050262C2A89DD2C258BE7314E204D314FAC
:1013E00033E0A84782460FA8B847A847CAEB0001D8
:1013F0002D48A0472D489DF83C10A0472C48BDF92A
:101400004010A0472B48BDF94210A0472A48BDF91B
:101410004410A04725489DF83D10A0472748BDF936
:101420004610A04721489DF83F10A0472448BDF929
:101430004E10A0472348BDF95010A0472248BDF9DF
:101440005210A0476420094B9847B0470028C8D0E5
:10145000B5E600BF787C00088D3400083D20000808
:10146000E92E00083D330008FD34000885270008F8
:10147000507D000838120020CC1100205C7D00084F
:10148000647D0008481200206C7D0008F50E0008FD
:10149000747D0008887D00089C7D000855090008BF
:1014A0003129000879440008947C0008387D000840
:1014B000A07C0008A87C0008B07C0008407D0008E3
:1014C000E07C0008E87C0008487D0008ED34000856
:1014D000653D000805A90020C8479DF8143000228A
:1014E00001467C48A04705A90120C8479DF8143053
:1014F000012201467748A04705A90220C8479DF868
:101500001430022201467348A04705A90320C847AA
:101510009DF81430032201466E48A04705A9042017
:10152000C8479DF81430042201466A48A04705A91F
:101530000520C8479DF81430052201466548A0479C
:1015400005A90620C8479DF81430062201466148C7
:10155000A04705A90720C8479DF814300146072277
:101560005C48A04705A90820C8479DF81430082208
:1015700001465848A04705A90920C8479DF81430DE
:10158000092201465348A04705A90A20C8479DF8EB
:1015900014300A2201464F48A04705A90B20C8472E
:1015A0009DF814300B2201464A48A04705A90C209B
:1015B000C8470C2201469DF814304648A047FEE576
:1015C000454F464EDFF850A126E0B04783460AA8B3
:1015D000D047B047CBEB00014148A0474148BDF997
:1015E0002810A0474048BDF92A10A047BDF92C108B
:1015F0003E48A0470C98A84701B23D48A0470D9827
:10160000A84701B23B48A0470E98A84701B23A4804
:10161000A0470A20394A9047394DB8470028D4D00E
:10162000CDE52D4E374D354F09E0A84782460120C4
:10163000A847514602463448A0476420B847B047FF
:101640000028F2D0BBE54FF0000A4CF6CD452F4FF5
:10165000CCF6CC45564626E005A95FFA8AF08DF80F
:101660001460B8479DF814102948A0471FFA8BF062
:10167000A5FB0012D10801EB8103A0EB430082B26D
:10168000002A00F0AC8005A95FFA8BF08DF8146099
:101690000BF1010AB8471E489DF81410A047BAF193
:1016A000760F3FF48CAD1FFA8AF0A5FB0013D90822
:1016B00001EB8102A0EB420083B20AF1010B002B87
:1016C000CAD151461348A047C6E7034F034DDFF880
:1016D0004CA03CE0147D000831290008E92E0008E8
:1016E000947C0008E07C0008E87C0008F07C00089E
:1016F000F87C0008007D0008087D000885270008A8
:10170000F50E00087D410008D47C0008993D0008D2
:10171000CC7C0008C07C000899420008DD3F00082E
:1017200008B2022AD8BF03262C284ADC0228CCBFE4
:101730009B464FF0030B304B9847304603225946E7
:1017400000232E4EB047C04764202D4A9047B8472B
:1017500000287FF434ADA847064601A8D047A84723
:10176000811B2848A047BDF904102748A047BDF9B0
:1017700006102648A047BDF908102548A04725486F
:10178000BDF90A10A047BDF9061048F21F53C5F273
:10179000EB1383FB0160BDF9042083FB0263CE17CA
:1017A000A6EBA011D2172A31A2EBA3108EB21830EB
:1017B00032B283B2502A99B2B2DD08B250262C2838
:1017C000B4DD4FF02C0BB6E71348A0470A49884711
:1017D000F5E441F2C506C0F60006B047EFE40F4855
:1017E0005946A0474FE721B0BDE8F08F1FFA8BF6AE
:1017F00078E585B27DE500BF3D330008FD34000883
:1018000085270008947C0008A07C0008A87C0008BC
:10181000B07C0008B87C0008887C0008C07C000808
:1018200038B5094B0546197851B1084A084914687A
:101830000868631C0555096813600022CA5438BD46
:10184000044B984738BD00BF040800200008002062
:10185000BC080020E528000838B548B141B1087837
:1018600030B1044D0C46A84714F8010F0028FAD1F6
:1018700038BD00BF2118000830B4C8B10378CBB11F
:1018800000230B60027892B1303AD4B2092C02D90D
:1018900012E0092D10D803EB830402EB44030B6024
:1018A00010F8014FA4F13002D5B2002CF1D1012083
:1018B00030BC70471846FBE70020F9E72DE9F047F8
:1018C00082460078002384B0B1F100080093BABFCB
:1018D000C8F100084FF001099946002800F0408146
:1018E0000025642829D0A14E2C462F46A0F13102B4
:1018F000082A00F28E801AF804200AEB0401A2F1F3
:10190000300009284FF0000301A809D8C25411F88B
:10191000012F0134A2F1300E0133BEF1090FF5D9C8
:1019200004A9CA18694602F80C7C013CB04701348E
:101930001AF8040008B16428D8D1B9F1000F40F0BA
:101940000B818B4E0098002867D0092800F3FF8098
:10195000441E811EC71E002C00F0048101F001040A
:1019600064234A1E71B124B1013A511C4FF47A73B9
:1019700008D003EB8304E10001EB4403023A5B006F
:10198000511CF6D198FBF3F2022803FB128800F0F9
:10199000EB8007F001006424791E77B120B1013992
:1019A000481C4FF47A7408D004EB8407FC0004EB65
:1019B000470302395C004F1CF6D146F267674FF0CF
:1019C0000109C6F266670FE0012C15D0B9F1000FCE
:1019D00012D0302005B92020B04787FB0420E11742
:1019E000C1EBA004002C11DD98FBF4F2D0B2303032
:1019F00004FB1288002AE7D0B04787FB0420E117D8
:101A0000C1EBA004002C4FF00009EDDC04B0BDE8F0
:101A1000F087302808BF012589E742F6A173C4F298
:101A2000B84383FB08244FEAE8714FF44A42C1EB04
:101A30002470C3F69A3202FB1088002800F09A80C6
:101A4000C0B243F689343030C5F2E654B04784FB67
:101A500008204FEAE8714FF46142C1EB6060C0F2C8
:101A6000F55202FB10843030B0474CF66B23C6F6BB
:101A70005F3383FB0420E11749F28062C1EBA05081
:101A8000C0F2980202FB10443030B0474DF6836339
:101A9000C4F21B3383FB0420E11744F24022C1EB64
:101AA000A040C0F20F0202FB10443030B0474BF2AE
:101AB0008953C1F2F84383FB0420E11748F2A06286
:101AC000C1EB6030C0F2010202FB10443030B0477D
:101AD00048F6AD33C6F6DB0383FB0420E117C1EB08
:101AE000203042F2107202FB10443030B04744F60E
:101AF000D353C1F2620383FB0420E117C1EBA010B2
:101B00004FF47A7202FB10443030B04748F21F5352
:101B1000C5F2EB1383FB0420E117C1EB60106422D4
:101B200002FB10443030B04746F26763C6F266638A
:101B300083FB0420E117C1EBA00000EB8002A4EBC3
:101B400042043030B04704F13000B0475EE709206E
:101B500000900627072101E72D20054EB047F1E64A
:101B60000546EAE60A230DE70A2426E77918000865
:101B70002118000843F68933C5F2E65383FB082198
:101B80004FF461444FEAE872C2EB6160C0F2F55471
:101B900004FB108400287FF466AF4CF66B20C6F679
:101BA0005F3080FB042149F28063E217C2EBA15051
:101BB000C0F2980303FB104400287FF465AF4DF694
:101BC0008360C4F21B3080FB042144F24023E217FF
:101BD000C2EBA140C0F20F0303FB104400287FF4C6
:101BE00064AF4BF28950C1F2F84080FB042148F207
:101BF000A063E217C2EB6130C0F2010303FB1044A3
:101C000000287FF463AF48F6AD30C6F6DB0080FBFA
:101C10000421E217C2EB213042F2107303FB10449F
:101C200000287FF462AF44F6D350C1F2620080FB1B
:101C30000421E217C2EBA1104FF47A7303FB1044A6
:101C400000287FF461AF48F21F50C5F2EB1080FB13
:101C50000421E217C2EB6110642303FB1044002847
:101C60007FF460AF46F26760C6F2666080FB0421D5
:101C7000E217C2EBA10000EB8003A4EB43040028B1
:101C80003FF461AF5DE700BF2DE9F043037887B013
:101C90000026814601910296002B00F0B780782B38
:101CA00000F0B480B44F3446B046A3F13102082AA4
:101CB00000F2A88019F8042009EB0401A2F1300316
:101CC000092B03A84FF0000308D8C25411F8012FC4
:101CD0000134A2F130050133092DF6D906A9CA183D
:101CE00002A902F80C8C013CB847013419F8043001
:101CF0000BB1782BD9D10199029B0ABA0192002B22
:101D000000F08780D80700F10F810121C3F108029C
:101D100002EBD2735A10032A00F3C98001ACA51854
:101D20002C4614F8010BEF43030907F001090DF1EC
:101D30000808924D00F00F0700F03181092B40F2A6
:101D40006E8103F13700A8470021002F00F0308199
:101D5000092F40F2528107F13700A847002144457E
:101D600000F0A580B9F1000F17D014F8010B03099A
:101D700000F00F0731D0092B40F2428103F1370008
:101D8000A8470022A7B3092F40F23D8107F1370091
:101D9000A8470021444500F08A8014F8013B1A0945
:101DA00003F00F0700F0D480092A88BF02F1370042
:101DB00040F22C81A8470021002F00F0D280092F8B
:101DC00088BF07F1370040F22481A84714F8010BBF
:101DD0000021030900F00F07CDD1002900F0108188
:101DE000002E40F0CD802020A8470122002FCAD12C
:101DF000002A00F00881002E40F0BA802020A84779
:101E00000121C7E7302B08BF01266EE7019C25BAE8
:101E100001959DF804301A0903F00F044AD0092AED
:101E200040F2FA8002F13700544DA8470021002CFF
:101E300044D10122002900F0FB809DF805301909EA
:101E400003F00F0447D0092940F2EC8001F137007C
:101E5000A8470023002C44D10122002B00F0E5808C
:101E60009DF806100B0901F00F0447D0092B40F232
:101E7000BE8003F13700A8470021002C43D1012286
:101E8000002900F0B7809DF80730190903F00F040E
:101E900045D0092988BF01F1370042D9A847002C55
:101EA0007AD0092C88BF04F1370075D9A84707B04C
:101EB000BDE8F0830121314D002CBAD0092C40F24D
:101EC000B78004F13700A8479DF8053000221909B2
:101ED00003F00F04B7D1002A00F0A4800123002CE6
:101EE000BAD0092C40F2A18004F13700A8479DF830
:101EF000061000220B0901F00F04B7D1002A76D09A
:101F00000121002CBBD0092C74D904F13700A8475B
:101F10009DF807300022190903F00F04B9D1002AF7
:101F2000BDD101F13000B9E7D843083000EBD073E0
:101F300006AA02EB630111F8140C10F00F0345D050
:101F4000092B51D903F137000C4B9847002142E08F
:101F500000295BD0E6B13020A8470121002F7FF493
:101F60002EAF002955D07EB13020A8470121FCE6D4
:101F70003020A84701210DE7791800082118000832
:101F80003020A8470122FDE62020A8470121ECE6E9
:101F90002020A84701210FE704F1300086E700293F
:101FA0003DD07EB13020A8470121002F7FF4D0AE74
:101FB00019B31EB13020A8470121D0E62020A84740
:101FC0000121CCE62020A8470121BEE63EB11A49F6
:101FD0003020884701210298431E029396E6202074
:101FE000154A90470121F6E703F13000ACE703F111
:101FF000300040E704F1300089E707F13000ACE63B
:1020000003F13000BCE607F13000C1E602F1300018
:10201000D0E607F13000D8E602F1300004E703F122
:10202000300090E601F1300012E704F130005DE786
:1020300004F1300047E700BF211800080FB42DE974
:10204000F04385B00DF13009AC4B002259F8044B38
:10205000AB4DDFF8B882AB4FAB4E1A70207800283A
:1020600000F0BE80252840F0C0806278631CA2F199
:10207000630101298DF8040040F2D680782A00F02F
:10208000DD80732A00F0DD80252A00F0DD80A17854
:102090008DF80520A1F16302A31C012A40F2D6802D
:1020A000782900F0D680732900F0D680252900F029
:1020B000D680E2788DF80610A2F16301E31C0129B5
:1020C00040F2CF80782A00F0CF80732A00F0CF80D2
:1020D000252A00F0CF8021798DF80720A1F1630235
:1020E000231D012A40F2C880782900F0C880732996
:1020F00000F0C880252900F0C88062798DF80810AA
:10210000A2F16301631D012940F2C180782A00F029
:10211000C180732A00F0C180252A00F0C180A17916
:102120008DF80920A1F16302A31D012A40F2BA80B3
:10213000782900F0BA80732900F0BA80252900F0D0
:10214000BA80E2798DF80A10A2F16301E31D01293A
:1021500040F2B380782A00F0B380732A00F0B38095
:10216000252A00F0B380217A8DF80B20A1F16302BB
:10217000012A04F1080340F2AB80782900F0AB801B
:10218000732900F0AB80252900F0AB80627A8DF8CE
:102190000C10A2F16301012904F1090340F2A380AC
:1021A000782A00F0A380732A00F0A380252A00F08B
:1021B000A380A07A8DF80D2004F10A035C1C64282A
:1021C0002BD015D825281FD063287FF447AF99F866
:1021D0000000A847207809F1040900287FF442AFE5
:1021E00005B0BDE8F04304B07047A847013435E7B7
:1021F00073280BD078287FF431AFD9F8001001A8EC
:1022000009F10409B04729E7A84727E7D9F80010E2
:1022100001A809F10409B84720E7D9F8001001A87E
:1022200009F10409C04719E71046012404AA14194A
:10223000002104F80C0C04F80B1CBFE701247820E3
:10224000F4E701247320F1E70124EFE708460224B4
:10225000ECE702247820E9E702247320E6E7022471
:10226000E4E710460324E1E703247820DEE70324B3
:102270007320DBE70324D9E708460424D6E70424C7
:102280007820D3E704247320D0E70424CEE7104657
:102290000524CBE705247820C8E705247320C5E78B
:1022A0000524C3E708460624C0E706247820BDE7D6
:1022B00006247320BAE70624B8E710460724B5E7DA
:1022C00007247820B2E707247320AFE70724ADE79F
:1022D00008460824AAE708247820A7E708247320E2
:1022E000A4E70824A2E7104609249FE709247820E0
:1022F0009CE70924732099E7092497E70408002044
:102300002118000859180008891C0008BD18000889
:102310002DE9F043AB4CAC4E2060AC4B0020154691
:1023200030600122AA4EDFF8B092DFF8B082A94FE8
:1023300085B01A700C462078002800F0BC80252853
:1023400040F0BC806278631CA2F1630101298DF822
:10235000040040F2CC80782A00F0D380732A00F089
:10236000D380252A00F0D380A1788DF80520A1F133
:102370006302A31C012A40F2CC80782900F0CC80B3
:10238000732900F0CC80252900F0CC80E2788DF80C
:102390000610A2F16301E31C012940F2C580782AEE
:1023A00000F0C580732A00F0C580252A00F0C580A2
:1023B00021798DF80720A1F16302231D012A40F243
:1023C000BE80782900F0BE80732900F0BE802529E8
:1023D00000F0BE8062798DF80810A2F16301631DE0
:1023E000012940F2B780782A00F0B780732A00F004
:1023F000B780252A00F0B780A1798DF80920A1F1D6
:102400006302A31D012A40F2B080782900F0B08059
:10241000732900F0B080252900F0B080E2798DF8B2
:102420000A10A2F16301E31D012940F2A980782A74
:1024300000F0A980732A00F0A980252A00F0A98065
:10244000217A8DF80B20A1F16302012A04F108031F
:1024500040F2A180782900F0A180732900F0A180CA
:10246000252900F0A180627A8DF80C10A2F1630199
:10247000012904F1090340F29980782A00F099803B
:10248000732A00F09980252A00F09980A07A8DF8AF
:102490000D2004F10A035C1C642823D011D82528E0
:1024A00019D063287FF447AF2878B04720780435E7
:1024B00000287FF444AF05B0BDE8F083B047013495
:1024C00039E7732809D078287FF435AF296801A847
:1024D0000435B8472FE7B0472DE7296801A8043530
:1024E000C04728E7296801A80435C84723E71046F4
:1024F000012404AA1419002104F80C0C04F80B1C84
:10250000C9E701247820F4E701247320F1E70124CE
:10251000EFE708460224ECE702247820E9E70224EA
:102520007320E6E70224E4E710460324E1E70324EE
:102530007820DEE703247320DBE70324D9E708468D
:102540000424D6E704247820D3E704247320D0E7BA
:102550000424CEE710460524CBE705247820C8E7FD
:1025600005247320C5E70524C3E708460624C0E711
:1025700006247820BDE706247320BAE70624B8E7CE
:1025800010460724B5E707247820B2E70724732014
:10259000AFE70724ADE708460824AAE70824782017
:1025A000A7E708247320A4E70824A2E7104609241B
:1025B0009FE7092478209CE70924732099E70924E0
:1025C00097E700BFBC080020000800200408002096
:1025D00021180008891C0008BD18000859180008B7
:1025E000684620F007018D4679B52A492A4B994261
:1025F0001BD2DA1C0C1D151B284825F00302161DE2
:1026000005680423B3420D60C2F380020DD022B1ED
:1026100042680823B342226007D01D581A1D5D503E
:1026200084580833B3428C50F7D11E481E494FF0EE
:1026300000028842B8BF40F8042BFFF6FAAF4FF40F
:102640008052C4F2020211684FF4A06341F480305A
:10265000106004E01068810305D4013B03D01168C9
:10266000013B8803F6D54FF40051C4F202010A6819
:1026700042F0100008600B6823F003020A6008684B
:1026800040F002030B6006498847BDE87940854663
:10269000704700BF0000002040070020B87F0008FE
:1026A000510F000800080020001B0020F8B542F67A
:1026B0004913C0F60003984742F68530C0F6000083
:1026C000804740F604064FF4006E43F2B3474FF4E0
:1026D000406540F6044441F2040144F24440C4F22F
:1026E000010E4FF03332C3F24430C4F20101C4F2A0
:1026F0000106C3F23337C4F20105C4F2010443F604
:10270000A103CEF80020C0F6000337602A602260E3
:102710000860984742F65D01C0F60001884742F61E
:10272000DD10C0F60000804742F6D532C0F6000248
:10273000904743F23103C0F60003984743F2592112
:10274000C0F60001884742F62570C0F600008047B9
:1027500042F6F962C0F60002904744F22D43C0F6FB
:1027600000039847F8BD00BF82B000230193019990
:10277000884205D9019A531C019301998142F9D3EA
:1027800002B0704741F2707382B0002103FB00F089
:102790000191019A904205D9019B591C0191019A1E
:1027A0009042F9D802B0704700B543F60403C4F272
:1027B0000103186883B002A942F6952201F8010DC1
:1027C000C0F600020020904703B000BD2DE9F041A3
:1027D00041F21806C4F20206356840F6C003C2F2A0
:1027E000000343F60C0443F6100C43F6140E43F6B4
:1027F000080758609960C4F20104002245F480483B
:10280000C4F2010CC4F2010E0C2040F27121C4F29A
:1028100001074EF20415C6F80080CEF200052060D4
:10282000CCF80020CEF8002039602B6843F020005F
:102830002860216842F6993341F0200042F2A971E4
:102840002060C0F600012520C0F6000398472268EA
:1028500042F400512160BDE8F08100BF42F635230B
:1028600010B5C0F60003984740F6C0030022C2F23C
:10287000000342F2CD744FF4E1301146C0F600047B
:102880005A609A601A615A61DA611A629A62DA626F
:102890005A639A63A04710BD30B5002383B0084D3A
:1028A00004468DF807302046A8470028FBD0204674
:1028B0000DF10701034A90479DF8070003B030BDB2
:1028C000652A00080D2B00084FF46052C4F2010283
:1028D00013681B06FCD543F60400C4F20100016036
:1028E000704700BF0A280DD04FF46052C4F20102B5
:1028F00013681906FCD543F60401C0B2C4F2010105
:10290000086070474FF46052C4F2010213681B065E
:10291000FCD543F60401C4F201010D220A60E3E78D
:1029200008B542F699030020C0F60003984708BD99
:1029300008B542F665230020C0F600039847003032
:1029400018BF012008BD00BF41F20403C4F2020316
:102950001A684FF4805122F47C1020F0F0021A60C3
:102960001868C4F2020140F4E8121A600B680846C5
:1029700043F080720A6001688B01FCD541F20403C8
:10298000C4F2020318681A4620F00301196018689F
:1029900040F002011960186820F48001196018687D
:1029A00020F4E0611960186840F4806119601868CB
:1029B00020F46051196018681860136803F00C0166
:1029C0000829FAD141F21800C4F20200026842F468
:1029D000804343F01D010160704700BF0422C4F230
:1029E000010211684FF4406321F0E060106011684B
:1029F000C4F2010341F080601060196840F60C4297
:102A000021F4704018601968C4F2010241F440508A
:102A1000186019681960136843F008001060704767
:102A200038B940F60C43C4F201031A6882F008007A
:102A30001860704740F6F41140F604220023C2F2F9
:102A40000001C2F200020B8013804B8053808B8008
:102A50009380CB80D3800B8113814B8153818B81F9
:102A600093817047094B0A4933F9102031F910302E
:102A70001F20D21A2032C8F200001040002800DBCC
:102A80007047013860F01F01481C7047040A00209D
:102A9000F40900201A4A1B4BF0B432F8105033F9F5
:102AA00010602CB21F23A61B2036C8F2000333404F
:102AB000002B18DB1F2B1CD00135ADB21F230E7865
:102AC000C8F2000329B20B4000EB40170E493C1935
:102AD000002B0E5522F810500DDB094921F810305B
:102AE0000120F0BC7047013B63F01F0301331F2B33
:102AF000E2D10020F5E75A1E62F01F030133ECE734
:102B0000040A0020F4090020FC0800201A4A1B4B8C
:102B100070B432F8105033F910602CB21F23361BFA
:102B20002036C8F200033340002B17DBE3B100EB83
:102B3000401601353419124EADB21F23345DC8F270
:102B400000032EB23340002B0C7022F810500DDB26
:102B5000094921F81030012070BC7047013B63F037
:102B60001F030133002BE2D11846F5E7591E61F02F
:102B70001F02531CECE700BFF4090020040A0020E8
:102B8000FC08002040F600434EF60852C2F2000353
:102B9000CEF200021360704740F600431030C2F2DC
:102BA000000343F82010704740F600438008C2F24B
:102BB000000343F82010704708B542F6916142F6D1
:102BC000A9333C20C0F600010022C0F6000398475C
:102BD00008BD00BF2DE9F041404D2B78012B7BD083
:102BE0003F480024047044808480846004744482DC
:102BF0008482846180F8204044848484846280F8E4
:102C0000304044868486846380F84040A0F8424087
:102C1000A0F84440846480F85040A0F85240A0F8E6
:102C20005440846580F86040A0F86240A0F8644099
:102C300084662C4988474EF2140641F63F174EF23F
:102C40001800CEF20006C0F20107CEF200004EF2EC
:102C500010033760CEF200030460196841F21802D5
:102C600041F004061E601F68C4F2020247F0020031
:102C70001860196842F6284C41F001061E60D2F82F
:102C800000804FF4305348F40068C2F80080C4F26A
:102C9000010C4722CCF80020C4F20103802242F646
:102CA000044742F61C4642F62C4042F620411A6088
:102CB000C4F20100C4F20101C4F20107C4F201062A
:102CC0004FF6FF723C60346002600C60186840F0A0
:102CD0000101196001232B70BDE8F0810508002077
:102CE00008080020B92B0008664B674A196810B520
:102CF000481C18601488A3B21BB11188481E84B206
:102D00001480624C2278012A1DD0207C5F4A012861
:102D10002BD094F820005D4A012838D094F8300078
:102D20005A4A012846D094F84000584A012854D005
:102D300094F85000554A012866D094F86000534A30
:102D4000012878D010BD6388591E88B260800028A1
:102D5000DBD16278012A00F08680A188A3686180B7
:102D60009847207C494A0128D3D1518A4B1E98B2FA
:102D700050820028CDD1517C012972D0A28AA3694A
:102D80006282984794F82000404A0128C6D1518CAD
:102D90004B1E98B250840028C0D192F8211001290E
:102DA0006CD0A28CA36A6284984794F83000374AAA
:102DB0000128B8D1518E4B1E98B250860028B2D14E
:102DC00092F83110012956D0A28EA36B62869847E3
:102DD00094F840002D4A0128AAD1B2F842104B1EA7
:102DE00098B2A2F842000028A2D192F8411001291D
:102DF0003ED0B4F84420A36CA4F84220984794F83D
:102E00005000224A012898D1B2F852104B1E98B2B5
:102E1000A2F85200002890D192F85110012924D034
:102E2000B4F85420A36DA4F85220984794F8600099
:102E3000164A012886D1B2F862104B1E98B2A2F849
:102E4000620000287FF47EAF92F86110A36E012922
:102E500008BF82F86000B4F86420A4F862209847A4
:102E600010BD10748AE7207077E782F85000D7E72A
:102E700082F84000BDE782F83000A5E782F8200024
:102E80008FE700BF780800207C0800200808002099
:102E900008B542F6E943C0F60003984708BD00BFF5
:102EA00010B440F60804C2F2000404EB0010836082
:102EB000019B4270C3604180818010BC704700BF9D
:102EC000062803D8024B000101221A54704700BFA4
:102ED00008080020034A1080138898B20028FBD10C
:102EE000704700BF7C08002042F62443C4F201036F
:102EF000186880B2704700BF08B545F66D53C0F63C
:102F00000003984745F68D50C0F60000804745F60F
:102F1000D151C0F60001884746F6B912C0F600024A
:102F2000904708BD08B542F67D73C0F60003984788
:102F300008BD00BF0422C4F20102116840F6044338
:102F400041F002001060C4F201031A6822F00F0180
:102F50001960186840F003021A60196841F00C000B
:102F600018601A6822F0F0011960186840F0300209
:102F70001A60196841F0C0001860704738B542F611
:102F80003573C0F6000398474FF4A843C4F200031A
:102F9000002545F204441D60C4F2000445F21C40C3
:102FA00024252560C4F2000045F2204148F21E04A9
:102FB0000460C4F20001042041F21C020860C4F263
:102FC0000202106845F2144140F4001010601868C5
:102FD00045F2184220F0020018601868C4F200019F
:102FE00040F001001860C4F200020B68136838BD9D
:102FF00038B542F2697540F60C44C4F20104C0F6DB
:1030000000056420A8472368642043F02001216064
:10301000A84722684FF4FA7022F020032360A847E3
:103020002168642041F020022260A84738BD00BF1B
:1030300008B542F62573C0F6000398474FF4406088
:10304000C4F20100016842F6F17221F470030360DA
:103050000168C0F6000241F440130360016801609A
:10306000904708BD40F60443C4F2010319684FF4C9
:10307000605221F470201860186843F6040140F48F
:10308000403018601868C4F2000240F40020186054
:103090001868C4F2000120F470001860186840F449
:1030A00040101860186840F400001860186820F09C
:1030B00070401860186840F040501860186840F080
:1030C0000040186044F21C0304201360086011687B
:1030D00041F040031360704710B5084C2378012B72
:1030E0000BD041F21C00C4F202000268044B42F40F
:1030F0008041016098470120207010BD7E080020AB
:103100006530000801280BD143F60403C4F2000324
:103110001A6842F002001860196841F001021A6052
:10312000704700BF012801D00020704743F6080215
:1031300042F20F73C4F2000206E01068013B800700
:1031400005D413F1FF3305D310688007F5D50BB90B
:103150000120704743F60C00C4F2000043F6080259
:10316000016042F20F73C4F2000206E01068013BF6
:10317000C10705D413F1FF3304D31168C807F5D58F
:10318000002BE5D043F60C02C4F2000213680020C5
:10319000704700BF08B50D4B984701280DD00C486B
:1031A000036803B908BD0B480B494FF4FC720B4B85
:1031B000984701200A4A904708BD054A116800292E
:1031C000F0D04B1E1360002BECD0ECE73D3900082B
:1031D0008C0F0020900D0020900F0020C5380008B3
:1031E0000531000810B540F60C44C4F20104226811
:1031F00042F6D56322F480602060C0F600030A2006
:103200009847216841F48062226010BD10B540F6F5
:103210000C44C4F201042368014623F4006243F223
:10322000251322600120C0F600039847216841F46D
:103230000062226010BD00BF70B543F20D24054648
:10324000C0F6000441F04000A047064645F080006B
:10325000A047304380B270BDF0B52E4B83B0984785
:1032600040F60440C4F20100026840F60C4422F427
:10327000706101600568C4F2010445F4407606609F
:103280000768254D07600368002623F4704202603A
:10329000016841F4405707600368204F03602068CD
:1032A00040F48062226021681D4821F4006323609D
:1032B00080472120A847C620A8470620A8471320FA
:1032C000A8472020A8470C20A8473146154A304679
:1032D00090472168032041F400632360124C2121B0
:1032E000124B0096022226803E60114CA04703201C
:1032F000104A9047104B314603F5FC705A1C597028
:10330000023383425170F9D13968881C386003B0A8
:10331000F0BD00BFD93000080D3200088C0F00202E
:10332000E531000839320008880F00209531000887
:10333000A12E0008C12E00088F0D0020074B002190
:1033400003F5FC705A1C5970023383425170F9D155
:10335000034900200A68531C0B6070478F0D002042
:103360008C0F00202DE9F00F077886B0002F00F0B9
:10337000858040F68871C2F2000140F6210CB1F858
:103380000090DFF804A1C2F2820C019009F1010360
:1033900098B2C208ACFB0224E508C5EB8516A0EB89
:1033A000C60189B24B1C98B2C208ACFB0245EC08BE
:1033B000C4EB8416A0EBC6039AB2501C84B2E50895
:1033C000ACFB0556F308C3EB8310A4EBC0041FFA53
:1033D00084F808F10105AEB2F308ACFB0340C40861
:1033E000C4EB8415A6EBC506B6B2731C9CB2E0080C
:1033F000ACFB0053DD08C5EB8510A4EBC004A5B2FF
:103400006B1C98B24FEAD00BACFB0B34203F4FEA59
:10341000D40B40F20004C2F2000407EB470704EBB0
:10342000470314F817709C7802970394DC785F7850
:1034300004941C79CBEB8B1B0594029C5B790AF8F6
:1034400009400AF80170039F059C0AF80270049A6B
:10345000A0EBCB0040F688710AF808201FFA80F92B
:103460000AF80640C2F200010AF80530019DA1F8F1
:10347000009015F8017F0195002F87D1002006B03C
:10348000BDE8F00F704700BF900D00200CB430B5C0
:10349000B3B036AA42F211330D46044652F8041B6B
:1034A0006846C0F60003984704EB440105EB45006D
:1034B0004C00C0EBC00540F6887243F26533C2F29F
:1034C000000204EB85056846C0F6000315809847A6
:1034D00040F68C71C2F200010A680020531C0B6098
:1034E00033B0BDE8304002B0704700BF40F68C7387
:1034F000C2F200031A68501C186070472DE9F00FE3
:1035000088B0540005900691C4F10300059D069C07
:10351000049383B20393A0492046019502950023AA
:10352000A5E0DDF818B04FF00109C2EB0B06B6B20A
:1035300006F0070802EB0B0509FA08FBAFB207F02B
:10354000070A00F0070509FA0AFC4FF0010809FA1A
:1035500005FA04F00709CDF81CB008FA09FB542558
:10356000FF0805FB07F7DDF80890F60807EB0908E8
:1035700005FB06F6CDF800B011F808B05FFA8CFC38
:103580004BEA0C0501F8085006EB0908DDF81C9021
:1035900011F808B05FFA89F54BEA050B01F808B09D
:1035A000DDF804804FEAD00B474411F80790DDF8AE
:1035B000048049EA0C0C01F807C054274644DDF8A2
:1035C000149007FB0BF811F806B002EB09074BEA61
:1035D0000505BFB24FEAD40C4FF0540B8D5508EBE4
:1035E00007060BFB0CF511F806905FFA8AFADDF876
:1035F00000B049EA0A0C01F806C0EF195FFA8BF92E
:10360000DDF814B0CE5DC2EB0B0C46EA09061FFADA
:103610008CFCCE55E04411F80870654447EA0A0A6C
:1036200001F808A04E5D46EA090901F80590DDF8A9
:103630000CC01CF4004F40F0A880039F9D1A0A376D
:1036400007EB8506013AB7B2039792B2029D019F3C
:1036500001336E1C9BB27D1E0130013CB6B2ADB28F
:103660009A420296019580B2A4B2C0F01581049EE0
:10367000002E3FF456AF049D012D00F08F80049F73
:10368000022FD4D1069E4FF001099519B61AB6B291
:10369000AFB206F0070509FA05FA07F0070C4FF07C
:1036A000010808FA0CFB04F0070C09FA0CF800F00A
:1036B0000705CDF81CA009FA05FAFF08542505FBFB
:1036C00007F7DDF80890F60805FB06F6CDF8008050
:1036D00007EB090811F808505FFA8BFCDDF8089039
:1036E00085EA0C0B01F808B006EB0908DDF81CB000
:1036F00011F808905FFA8BF589EA050901F808903E
:10370000DDF80480DDF80490474411F807B04FEA73
:10371000D0088BEA0C0C4FF0540B01F807C04E4454
:103720000BFB08F8DDF814C08F5D02EB0C097D403F
:103730001FFA89F94FEAD4078D550BFB07FC08EBFC
:1037400009054F5D5FFA8AF677404F55E144009DC9
:10375000DDF814B011F809A0EDB2C2EB0B07BFB24F
:103760008AEA050A01F809A0B84411F808906744EC
:1037700089EA060601F80860CE5DDDF80CC07540E8
:103780001CF4004FCD553FF458AF0CEB8305AE1D34
:10379000B7B203975AE700BF900D0020069E971915
:1037A000C2EB0608BFB21FFA88F907F0070B049EA8
:1037B00005FA0BFC09F0070506FA05FA049D00F06E
:1037C000070605FA06FB04F00706B540FF08079553
:1037D000542505FB07F7DDF808804FEAD906B84401
:1037E00011F8089054256FEA0C0C05FB06F65FFAF9
:1037F0008CFC09EA0C0501F80850DDF808806FEA36
:103800000A05B04411F80890EDB209EA050A01F87A
:1038100008A0DDF804804FEAD00A474411F8079069
:10382000DDF8048009EA0C0C01F807C04FF05407DA
:10383000464407FB0AFADDF814908F5D02EB090C91
:103840001FFA8CF83D408D554FEAD4070AEB080566
:10385000542606FB07FC4F5D6FEA0B06F6B23740B5
:103860004F55079DE044DDF814B011F80890EF4380
:10387000FDB2C2EB0B07BFB209EA050901F80890D7
:10388000BA4411F80A80674408EA060601F80A609B
:10389000CE5D3540CD55CAE608B0BDE8F00F7047A3
:1038A000074A1378012B09D041F21400C4F2020038
:1038B000016841F00103036001201070704700BFF0
:1038C0007F0800202DE9F00144234C2743F60C0427
:1038D0005026C4F202034FF0000CC4F20004C4F2FC
:1038E0000207C4F202064825C3F800C0C4F202056C
:1038F0003C6031604FF484512A601960D3F8008035
:10390000582160276426C4F202015C2548F00108B2
:10391000C4F20207C4F20206C3F80080C4F2020532
:10392000C1F800C03C60306090202A6008600A68DE
:1039300042F001030B60BDE8F00170470023C4F2C0
:103940000203186810F400500AD0196811F400300E
:1039500006D00423C4F202034FF408321A60012097
:10396000704700BF0422C4F20102116840F604430C
:1039700041F002001060C4F201031A6822F00F0146
:103980001960186840F003021A60196841F00C00D1
:1039900018601A6822F0F0011960186840F03002CF
:1039A0001A60196841F0C0001860704770B51E4C6D
:1039B0002378012B36D01D4880474FF4A843C4F22A
:1039C0000003002645F204451E60C4F2000545F2DE
:1039D0001C4024262E60C4F2000045F2204148F22B
:1039E0001E050560C4F200010B2041F21C020860B4
:1039F000C4F20202106845F2144140F40010106055
:103A0000186845F2184220F0020018601868C4F2E5
:103A1000000140F001001860C4F200020B68136856
:103A20000123237070BD00BF8008002065390008A5
:103A300045F21443C4F200031A68196812F4006FC7
:103A40001A6814BF0B20002011F4806F18BF0A20E1
:103A5000920510B41B6805D513F4807F14BF0820AD
:103A6000092002E0DB051AD508204FF4A843C4F270
:103A700000031C6845F2144124F0010445F2184289
:103A80001C60C4F20001C4F200020C6814681C68D7
:103A900044F001041C600B68136810BC70470028D8
:103AA000FBD0E2E7F0B58DB0002B00F017815F1E70
:103AB000FFB245F21445C4F200052E6845F21844E1
:103AC0000096C4F2000424684FF4A8460194C4F29E
:103AD0000006D6F800C042F210744CF4807CC6F8A0
:103AE00000C008E02E680296029E16F0010F08D171
:103AF000013C00F0F5802E68013C0296029EF6071C
:103B0000F0D545F2184542F21074C4F2000508E001
:103B10002E680396039E16F0010F08D1013C00F0B9
:103B2000DF802E68013C0396039EF607F0D545F230
:103B30001044C4F20004400045F214452060C4F271
:103B4000000542F2107408E02E680496049E16F0F8
:103B5000020F08D1013C00F0DF802E68013C049682
:103B6000049EB607F0D545F21845C4F200052C684E
:103B700045F214450194C4F2000542F2107408E0C5
:103B80002E680596059E16F0800F08D1013C00F0C6
:103B9000CB802E68013C0596059E3606F0D545F291
:103BA000144542F21074C4F2000508E02E6806962F
:103BB000069E16F0800F09D1013C00F0B5802E68FA
:103BC000013C0696069E16F0800FEFD045F2104598
:103BD000C4F2000545F214442960C4F2000442F224
:103BE000107108E025680795079D15F0040F08D1AE
:103BF000013900F0A580256801390795079D6D07FB
:103C0000F0D54FF4A841C4F200010D6845F2144408
:103C100045F480750D60C4F2000442F2107107E0B3
:103C200025680895089D15F0010F08D1013957D076
:103C3000256801390895089D15F0010FF0D045F26F
:103C40001041C4F2000140F0010045F21444086044
:103C5000C4F2000442F2107106E02068099009984D
:103C6000800707D4013957D0206801390990099895
:103C70008007F2D545F21840C4F2000001680191B6
:103C800053B34FF4A84545F2144045F2104C0026BA
:103C9000C4F20005C4F20000C4F2000CB7422C6864
:103CA00044D944F480642C6042F2107107E0046847
:103CB0000A940A9C14F0400F07D101393ED00468E1
:103CC00001390A940A9C6406F1D5DCF80040711CA5
:103CD0009455CEB2B342E1D8002002E01F46E8E698
:103CE000022045F2184242F21073C4F2000206E0CC
:103CF00011680B910B99890707D5013B0AD0116810
:103D0000013B0B910B998907F2D408B90D48804704
:103D10000DB0F0BD0720FBE745F21843C4F20003E5
:103D20001A6803200192DCE70420DAE724F48061BA
:103D300029602C6844F400712960B5E70520D0E7BC
:103D40000620CEE7313A000870B506460D4643F628
:103D5000A52413461E2031462A46C0F60004A0477B
:103D600070BD00BF034610B543F6A5240A461E20C9
:103D70001946C0F600040123A04710BD70B50646E1
:103D80000D4643F6A5241346682031462A46C0F660
:103D90000004A04770BD00BF034610B543F6A5243C
:103DA0000A4668201946C0F600040123A04710BD4A
:103DB00070B54FF4A844C4F20004266845F21445D7
:103DC00046F48076266088B042F21074C4F2000592
:103DD00008E02E680196019E16F0010F09D1013C02
:103DE00000F097802E68013C0196019E16F0010FAD
:103DF000EFD045F210454000C4F2000545F21444EE
:103E00002860C4F2000442F2107007E025680295B1
:103E1000029D15F0020F07D101385BD025680138EB
:103E20000295029DAD07F1D545F21845C4F2000593
:103E300045F214442868C4F2000442F2107008E00D
:103E400025680395039D15F0800F08D1013800F017
:103E50008280256801380395039D2D06F0D545F233
:103E6000144442F21070C4F2000407E0256804957F
:103E7000049D15F0800F08D101386CD025680138F9
:103E80000495049D15F0800FF0D045F21046C4F261
:103E9000000631601846002B54D045F2144400252A
:103EA000C4F2000442F2107106E020680590059803
:103EB000000607D4013930D02068013905900598F3
:103EC0000006F2D5505D0135EDB29D423060E9D378
:103ED000002023E045F21843C4F200031B680320CE
:103EE00045F2184242F21073C4F2000206E0116873
:103EF00007910799890707D5013B0CD01168013B51
:103F0000079107998907F2D408B91548804708B086
:103F100070BD0220E4E70720F9E7042045F21442CF
:103F200042F21073C4F2000206E01168069106998D
:103F3000490707D4013B10D01168013B069106994F
:103F40004907F2D54FF4A841C4F200010A6842F4CF
:103F500000730B60C4E70420C2E70620C0E700BF7F
:103F6000313A000870B506460D4643F6B154134683
:103F70001E2031462A46C0F60004A04770BD00BF8F
:103F800010B582B0034602AA43F6B15402F8011DEF
:103F90001E201946C0F600040123A04702B010BD40
:103FA00010B543F6B15482B001460DF107021E2050
:103FB0000023C0F60004A04702B010BD10B582B0C7
:103FC000034602AA43F6B15402F8011D68201946BF
:103FD000C0F600040123A04702B010BD2DE9F04F48
:103FE00089B0044604A93B200E22264B984700289E
:103FF00045D19DF816209DF8171046F2610B41EA55
:1040000002252BB2C6F2600B8BFB032B9DF8192007
:104010009DF81A1001929DF81B209DF810A09DF8A4
:1040200012809DF814709DF811909DF813C09DF8B2
:1040300015600291039249EA0A294CEA082E46EAE1
:1040400007269DF81850019F9DF81C109DF81D2013
:10405000DB17DDF80C80DDF808A0C3EBEB1347EAB3
:10406000052542EA012148EA0A272433A4F80090F2
:10407000A4F802E0A68025816781A181E38009B0D0
:10408000BDE8F08F7D3D000800B587B0372001A95D
:10409000074B984748B99DF80410372041F00202B9
:1040A0001146044B8DF80420984707B000BD00BFAF
:1040B000993D0008BD3F000870B5264E86B03378A4
:1040C0002549012B3DD000222420244C0A70A04712
:1040D00023488047234D752001A9A8470446D8B935
:1040E00021466B20204DA847044600282DD10721EA
:1040F0001920A84721461A20A84718211B20A847A5
:1041000021461C20A847194B9847134A01213170BA
:104110001170204606B070BD154D1648A847124DC7
:1041200007211920A84700211A20A84718211B2081
:10413000A84700211C20A8470C4880470121317066
:10414000E7E70C78012CBED1E3E70B482146084B8A
:104150009847E5E7820800208108002085270008AD
:10416000AD390008993D0008BD3F000889400008AE
:104170003D200008AC7D0008C47D000841F2881392
:1041800000EB8000C2F2000303EB40010889704796
:1041900000B587B00A2001A903220B4B984760B9EC
:1041A0009DF805109DF80420342908D09DF80610CC
:1041B000332918BF002007B000BD0020FBE7B2F193
:1041C000480358425841F1E7493D0008F0B5274DF2
:1041D00087B02B782649012B1AD00A20254A0024C3
:1041E0000C70904724488047244B984758B120468C
:1041F00001A9234C0322A047044668B101232B7078
:10420000204607B0F0BD1F4C1F48A0470824F5E723
:104210000C78012CE1D1F3E701461C4E0220B04797
:104220009DF804709DF8061027F0040021F00303A8
:10423000032240F0780701A920468DF80630144B80
:104240008DF805408DF80470984720467821B047D6
:1042500021460220B04703200E4A90470121044620
:1042600029700028CCD102480170C9E784080020D9
:104270008308002085270008AD3900089141000817
:10428000493D00083D200008EC7D0008813F000802
:10429000653F0008A13F00082DE9F04182B00446C7
:1042A0006946032006221A4B984750BB9DF805200B
:1042B0009DF801109DF800009DF803509DF80480C2
:1042C0009DF8027041EA002342EA082845EA0727E0
:1042D000238018B20F4EA4F80280A780B0470E4981
:1042E0000E4D0968A847A0600FFA88F0B0470C4A45
:1042F0001168A847E06038B2B0470A4B1968A84770
:10430000206103200849884702B0BDE8F08100BF62
:10431000493D0008C10A0008AC110020D10C00087A
:10432000A01100209C110020A13F000840F683034B
:10433000C2F20003187870472DE9F00F41F2D81649
:1043400088B0C2F20006019641F23426C2F200069D
:10435000029641F24026C2F20006039641F2D416BC
:10436000C2F20006049641F23C26C2F2000605960F
:1043700041F23826C2F20006069641F2CC16C2F28D
:10438000000641F2502B079641F2C4154FF07E56BD
:10439000C2F2000BCBF800600022C2F20005019EC1
:1043A00041F2DC1941F2C01C41F2542441F2B41034
:1043B0000023C2F20004C2F200002A80C2F2000907
:1043C0004FF07E55C2F2000CC9F800300280CCF8E4
:1043D000003041F24821336002982560069E4CF679
:1043E000CD44C2F20001C3F64C64046032800A80FE
:1043F00041F2BC1A41F2E01841F22C27039C079DC0
:10440000049E0599C2F2000AC2F20008C2F2000737
:104410002360CAF800303360C8F800303B602A805F
:104420000B6008B0BDE8F00F704700BF10B50C4B33
:104430009847044668B90B488047044618B90A49AA
:104440008847204610BD09482146094A9047204622
:1044500010BD08482146064B9847204610BD00BFB6
:10446000B9400008CD410008394300086C7E0008BF
:104470003D200008507E00082DE9F04F4FF0000865
:104480008DB080F8008080F8018080F8028080F88C
:104490000380434F0646B8470128044622D0B84758
:1044A0000128044603D040460DB0BDE8F08F07A8B0
:1044B0003C4A904780460028F5D1BDF81E30BDF833
:1044C0002010BDF81C00384DB382F182708209982B
:1044D000A84730830A98A84770830B98A847F470C0
:1044E000B083E0E703A8314B984780460028D6D137
:1044F000BDF80C10BDF81220BDF81630BDF810A0A4
:10450000BDF80E00BDF81450B180BDF81810DFF8EA
:10451000A8907281F381F080A6F808A0B58134706C
:104520007470B470318200B2C84704460FFA8AF042
:104530000D46C847DFF884B002460B4620462946A0
:10454000D84713A3D3E90023DFF874A0D04712A300
:10455000D3E90023164DA847164CA0473062BDF999
:104560000C00C847CDE90001BDF91000C84702465C
:104570000B46DDE90001D84705A3D3E90023D04766
:1045800005A3D3E90023A847A047706287E700BFCF
:10459000182D4454FB21094000000020DCA54C40AC
:1045A0002D43000899420008F50E0008DD3F000881
:1045B00079030008AD080008AD020008397400084E
:1045C00015000008AFF300802DE9F04192B00446D9
:1045D000154B01A898470546F0B9BDF91400BDF97F
:1045E0001610BDF91820BDF91A30BDF90880BDF9C3
:1045F0000AC0BDF90CE0BDF91070BDF91260606130
:10460000A161E261236284E80051E7602661074806
:1046100001A94422064B9847192000216062A1623B
:10462000284612B0BDE8F08179440008E811002066
:104630006D6F00082DE9F04F44F2794397B00446BE
:10464000C0F6000305A8984746F66D75804641F20E
:10465000E810442205A9C0F60005C2F20000A847F0
:1046600041F2382141F2CC12C2F20001C2F2000242
:10467000BDF822300D8841F248201188C2F20000B6
:10468000591A0288BDF824B040F6C126C0F60006CB
:104690000191BDF91800C2EB0B0BB047BDF81AA091
:1046A000BDF8207020607D1B07460FFA8AF0B047E6
:1046B000BDF81C90824660600FFA89F0B0478146D1
:1046C000A06028B2B04740F6D14543F23331C0F67E
:1046D0000005C4F28311A847E060019800B2B0471A
:1046E00043F23331C4F28311A84720610FFA8BF0F3
:1046F000B04743F23331C4F28311A847002140F69A
:104700005512C0F600026061C4F2AB3138469047E2
:104710004FF63231C4F26061A84740F659170021C4
:10472000C0F600072060C4F228315046B84743F66F
:104730004D01C4F28061A8474FF4E0416060C4F2CB
:104740001B514846B84745F69A51C4F28661A847BE
:10475000A060BDF92800B0478346BDF92A00B047E4
:104760008246BDF92600B0470021C4F2AE21B84709
:1047700041F2E611C4F20941A84700218146A06137
:10478000C4F258315846B8474FF23401C4F2674179
:10479000A84700210646E661C4F21C315046B847DE
:1047A0004AF20A41C4F28341A84740F6F565C0F6D3
:1047B0000005074620624846A8470FFA80F93046B0
:1047C000A84706B23846A84747F68865C0F60005F0
:1047D00042F23D0403B2494628463246C0F6000480
:1047E000A047404617B0BDE8F08F00BF70B540F657
:1047F000693484B0C0F600044FF07F534FF07C5111
:1048000003930546A04701900295029A45F686203B
:1048100000920099C5F63770A0EB61060096009DE6
:104820000295039E01980299029DA0472946A04740
:10483000029D40F655130146C0F6000330469847E6
:104840002946A0470290029804B070BD2DE9F04FB0
:1048500041F25024C2F200042568DFF864A241F25C
:10486000502641F2502EA1B0C2F2000EC2F2000654
:1048700037681995DEF80060DAF80050884C0E931E
:104880001A9708900991304629460D92A047DFF803
:1048900034B241F25022C2F2000214901068DBF8E8
:1048A0000010A0477F4D41F25023C2F20003159043
:1048B00018682968DAF80070DAF800600C90DAF805
:1048C00000901191DBF800801297DAF8000013963F
:1048D0002968A047DBF800701690DBF80060DBF871
:1048E00000002968A047179028682968A04740F66B
:1048F0009162189000212C98C0F60002904748B9A8
:1049000040F691632D980021C0F6000398470028D7
:1049100000F04582644865494FF00009644ECDF8C7
:104920002C90CDF828900C90079140F691670E9846
:104930000021C0F60007B84728B92A980021B847D7
:10494000002800F0C381002740F691680A98394694
:10495000C0F60008C047002840F0B8800B983946E0
:10496000C047002840F0B28048463946C04700287A
:1049700040F0AC8041F23421C2F2000108684D4B96
:1049800039469847002800F068834B4F41F2342E97
:10499000C2F2000EDEF800C03A68DFF82C81114642
:1049A0000592CDF818C04FF07E50C04741F2402329
:1049B000C2F200031A68DDF818C007460492604688
:1049C0000A99A0473946A0470499B04741F24023CD
:1049D000C2F20003186041F2D41E41F23420C2F248
:1049E000000EC2F200000068DEF800200B9904926D
:1049F000A04701463846A0470499B04741F2D41376
:104A0000C2F20003186041F23C2C41F23420C2F2A1
:104A1000000CC2F200000068DCF800204946049255
:104A2000A04701463846A047049F3946B04741F2A7
:104A30003C21C2F2000141F2402EC2F2000E086099
:104A4000DEF800100898B04741F2D413C2F2000318
:104A5000196808900998B047099041F23C20C2F2C9
:104A6000000001680D98B047059A0D90134F0A9900
:104A700038680592A04701460898B0470B990890FE
:104A80003868A04701460998B047494609903868F8
:104A9000A04701460D98B047059A0D901AE000BF57
:104AA000690B0008D8110020ED47000855090008DF
:104AB00059090008E10E0008581200205412002085
:104AC000DC110020C0110020D10C00087D48DFF867
:104AD000F881026811464FF07E50C0474FF07C517C
:104AE000A04708998146A047494607460998A0472C
:104AF000494680460D98A04741F25021C2F200017C
:104B00000B6881460893DAF80030DBF8002039465C
:104B1000099203F100400493A0472B688446414664
:104B20000A930998CDF818C0A047DDF818C00146CF
:104B3000079A6046904741F25023C2F200031A6878
:104B4000844649460A98CDF818C00A92A047DDF875
:104B500018C0079B0146604698470A99B04741F242
:104B6000502EC2F2000E0246CEF8002039460898B8
:104B7000A0472B688446059349460998CDF818C08C
:104B8000A047DDF818C001466046B047DAF80020BB
:104B90008446414605980A92CDF818C0A047DDF832
:104BA00018C0079B0146604698470A99B0470246DD
:104BB0004146CAF800200898A0472B68049984460B
:104BC0000A930846CDF818C04946A047DDF818C03A
:104BD000079A014660469047DBF80030844605930B
:104BE00039460A98CDF818C0A047DDF818C001462C
:104BF0006046B0470599B0470246CBF800204946C9
:104C00000898A047414681460498A0470146484677
:104C1000B047394680460998A0472F68079B014650
:104C2000404698473946B04741F2502EC2F2000E36
:104C30002860DEF80000DEF80010A047DAF80090E7
:104C4000DAF80080074641464846A0470146384604
:104C5000B047DBF80090DBF8008007464146484645
:104C6000A04701463846B047D5F80090D5F80080F7
:104C7000074641464846A04701463846B0470C9E85
:104C8000B04741F250210646C2F2000108683146A1
:104C9000A04741F25022C2F200021060DAF8000090
:104CA0003146A047CAF80000DBF800003146A047B3
:104CB000CBF8000028683146A047286021B0BDE845
:104CC000F08F00BF58120020D10C00082B98002153
:104CD000B84700287FF437AE0E980146A047074634
:104CE0002A980146A04701463846B04707462B9808
:104CF0000146A04701463846B0470C9B98470746F7
:104D000039460E98A04739460E902A98A047394652
:104D10000F902B98A047079A074615991698904729
:104D2000179910901498B0471A9980461998A0477F
:104D3000079B4FF07C5198471899B047024611469F
:104D400004920F98A0470346059338464146A04772
:104D5000079A01460598904701460A98B04710996E
:104D60000A903846A047049907460E98A047079B2B
:104D700001463846984701460B98B04741460B908C
:104D80000E98A047109907460F98A047079A01462A
:104D90003846904701464846B0478146D3E540F63D
:104DA00091622E980021C0F60002904790B1064F04
:104DB000064B4FF00009064E0C970793CDF82C9048
:104DC000CDF82890B1E500BFED470008550900086F
:104DD000590900080C981199A04741461D90484672
:104DE000A047314681463846A0471E902C98854EF4
:104DF0000146A04707462D980146A0470146384680
:104E0000B04707462E980146A04701463846B047AE
:104E10007D490C918847074639462C98A04739466A
:104E200011902D98A047794A1B9007922E983946E9
:104E3000A047079B1E991C904FF07C5098471899EB
:104E4000079FB847079A1D990A90484690471599B9
:104E50000B901698B04711991F900A98A0471B997C
:104E600007460B98A04701463846B0471C990746AD
:104E70001F98A04701463846B0470146B047034651
:104E8000049313991298A047079A01464FF07C505B
:104E900090471D9907464846B0471199A047079B80
:104EA00018998046384698471B99A04701464046C6
:104EB000B047079A14998146179890471C99A047C4
:104EC00001464846B0470146B0478146049801462E
:104ED000A047494680464846A04701464046B0475D
:104EE0004B4988474B4B98474B4A9047079B814615
:104EF000159916989847149980461798B0471E99A7
:104F000012903846079FB847119913904046A04722
:104F10001B9907461298A04701463846B0471C998E
:104F200007461398A04701463846B0470146B047A8
:104F3000494607460A98A047024604923946404629
:104F4000A04701460498B04749461D900B98A047DA
:104F5000394680461298A04701464046B047494628
:104F600080461F98A047394681461398A0470146BE
:104F70004846B047074639461B98A04741468146F8
:104F80001C98A047079B0146484698470A901D99E0
:104F90001C98A047394681461198A047079A0146B8
:104FA0004846904741460B901198A0471D990746E7
:104FB0001B98A047079B0146384698474FF480410D
:104FC0008146C4F21C610A98A047144FB8474FF4B9
:104FD00080410FFA80FCCDF818C0C4F21C610B9818
:104FE000A047B8474FF4804102B20592C4F21C6159
:104FF0004846A047B8470021C4F27A410FFA80F82A
:1050000011980DE059090008ED47000855090008FE
:10501000D10200083D740008AD080008F50E000834
:10502000A047B847002103B20093C4F27A411B980D
:10503000A047B847002102B20192C4F27A411C98FD
:10504000A047B847DDF818C001B202910848614690
:10505000059A4346074FB84767E4074A0748084997
:10506000084B076012680F60DFF81C801F60FDE4CA
:10507000987E00083D2000085812002040120020B1
:10508000D41100203C120020D10C000800000000C8
:105090002DE9F04F44F2356391B00746C0F60003A6
:1050A00007A89847824642F6E960C0F600008047AC
:1050B00041F2C418C2F20008B8F8001041F2B4126C
:1050C0008146441AC2F2000240F2AD25A2F80090D7
:1050D000C0F60005A0B240F2CD54A8473CA3D3E9E6
:1050E0000023C0F60004A0470B4600210246C3F689
:1050F000F071002040F6AD05A047C0F60005A847B6
:1051000041F25826C2F2000640F2D12BC0F6000B45
:105110003060A8F800900A9840F27936C0F6000690
:10512000D8472DA3D3E90023B0474FF40043002212
:10513000C4F26603A047A84781460B98D84726A328
:10514000D3E90023B0474FF400430022C4F26603C2
:10515000A047A84780460C98D8471FA3D3E900234F
:10516000B0474FF400430022C4F26603A047A847AB
:10517000089B099900930D9B019102930E990F9B37
:1051800044F64D0402460391484604934146079B6A
:10519000C0F60004A04741F25020C2F200000068AF
:1051A00041F2DC1141F2C01241F2D8133860C2F270
:1051B0000001C2F20002C2F20003086811681A6816
:1051C0007860B960FA60504611B0BDE8F08F00BF5A
:1051D0000000000080842E41182D4454FB2109401A
:1051E0002DE9F04F45F291038FB0C0F60003039014
:1051F0000AA89847DDF82CB0DDF8349040F6693401
:10520000C0F60004069049465846A0470A9F0C9EE7
:10521000054631463846A04740F6551AC0F6000A02
:1052200001462846D04740F65915C0F6000501460C
:10523000A847394604905846A0473146804648461C
:10524000A04701464046A8470146A8478446CDF8F6
:1052500000C039463846A047594680465846A047C0
:1052600001464046D047314680463046A047014679
:105270004046D047494680464846A04701464046FA
:10528000A847594607905846A847394680463846A9
:10529000A847414605903046A0470599064648462E
:1052A000A0470146304640F2D126D047C0F600065E
:1052B000B047CDE9080105993846A0474146074661
:1052C0005846A04701463846A8474FF07E51D04780
:1052D000B04747F2394B0B460246C0F6000BDDE9FA
:1052E000080140F6AD07D847C0F60007B847039954
:1052F00047F23D4A08600798C0F6000A0146A047F9
:10530000DDF80090834649464846A0475946A847DD
:10531000B047D047024602920498019140F2CD591D
:10532000B047C0F60009029A019B47F2C908C84776
:10533000C0F60008C047B847039948600498014682
:10534000A04701465846A847B047D047DDF800C0FF
:1053500004460D466046B04722462B46C847C04724
:10536000B847039A906006980FB0BDE8F08F00BF71
:1053700045F2E1132DE9F041C0F6000304469847D9
:1053800040F2D127C0F60007804640F27936206807
:10539000B8470FA3D3E90023C0F6000640F6AD05D9
:1053A000B047C0F60005A84720606068B84708A36A
:1053B000D3E90023B047A8476060A068B84704A3BA
:1053C000D3E90023B047A847A0604046BDE8F0817C
:1053D000F8C1631ADCA54C4030B585B005460A4BD0
:1053E00001A89847044658B9084B2846029D19461B
:1053F0009D63039D4422DD63019D1D64044B98471A
:10540000204605B030BD00BF71530008E8110020F0
:105410006D6F000838B5154B1A78012A00D038BDD9
:10542000134C206800B34028124A14D8116885B282
:105430000818106000228BB222600F48C021C018EB
:105440002A460E4B9847012029460D4A90470120D5
:105450000C49884738BD1568403805F14001ABB2AA
:10546000206011604025E8E7187038BDA8080020CA
:10547000B4080020B0080020C4120020FD69000814
:10548000AD6C0008716B000810B541F25C24C2F2EB
:10549000000446F66D532146C0F6000303209847EA
:1054A00045F69D62C1B2C0F600022046904746F61E
:1054B00095310320C0F60001884710BD08B5084BA0
:1054C0001868052800D008BD064B1A68511C052A2B
:1054D0001960F8D100201860034B9847F3E700BF2C
:1054E0009C080020880800200D5F000845F6444213
:1054F000C4F20002136830B58F4C98B28F4D2080F3
:1055000021882B8889B0194001F4007081B20029EC
:1055100068D1228802F400410B425FD1228802F454
:1055200080610B424ED1208800F40052134206D015
:1055300045F64440C4F200004DF6FF710160228838
:1055400002F48050034231D1208800F400610B4204
:105550000ED07B4B1A78002A25D102207949884742
:1055600045F64442C4F200024FF2FF712B881160ED
:10557000208800F48072134213D045F64443C4F2ED
:10558000000345F648404FF6FF61C4F20000196081
:105590000268100432D46C4B002018600720694B5D
:1055A000984709B030BD69488047D9E745F644437C
:1055B000C4F200034EF6FF7119600020614A904763
:1055C0002B88C1E7624A45F64443C4F200034FF614
:1055D000FF301860516888472B88A4E75D488047F2
:1055E0002B889BE75C4B4FF6FF5010601A78511CDC
:1055F000C8B21870594B98472B888AE752480168FF
:105600004A1C026001680329C8D945F64042C4F229
:10561000000211680907C1D415685149ADB24FF4B1
:10562000B8440D60C4F20004256845F60444ADB2E8
:105630000095C4F20004256845F60844ADB2019512
:10564000C4F20004256845F60C44ADB20295C4F2DC
:105650000004256845F61044ADB20395C4F2000479
:10566000256845F61444ADB20495C4F200042568DB
:1056700045F61844ADB20595C4F20004256845F618
:105680001C44ADB20695C4F200042468A4B2079489
:105690000C6844F001040C600C68A4B214600C683F
:1056A00024F001040C60096889B21160196845F69C
:1056B00044424905C4F20002F8D54FF6FF331360A7
:1056C00000994FF4B8438AB2C4F200031A600199FA
:1056D00045F604438AB2C4F200031A60029945F603
:1056E00008438AB2C4F200031A60039945F60C43DA
:1056F0008AB2C4F200031A60049945F610438AB2D4
:10570000C4F200031A60059945F614438AB2C4F244
:1057100000031A60069945F618438AB2C4F20003E2
:105720001A60079945F61C438AB2C4F200030021AF
:105730001A60016032E700BF9C120020F81A0020B6
:10574000A0080020195C000894080020495A0008AD
:1057500084020020A56D000890080020BD540008B8
:105760008C080020034B987A10B1034905220A6087
:10577000704700BFD41A00209C08002040F69C030C
:10578000C2F2000304221A60704700BF034B1A786C
:10579000202A01D100201870704700BF980800200F
:1057A000704700BF212810B5034603D0202811D030
:1057B000022010BD0F4A1368187800F07F012129DC
:1057C000F6D10D4912680024204691615482884721
:1057D000204610BD074A1168087800F07F01212992
:1057E00003D0064A0220137010BD044C04492370F4
:1057F000E8E700BFF41A0020395800089808002094
:1058000051580008074B19680A7802F07F03212BD2
:1058100001D002207047022801D02228F9D10020AF
:10582000704700BFF41A002009B102207047012818
:10583000FBD80846704700BF08B103487047034BC8
:10584000082219680A82704700030020F41A002019
:1058500008B103487047034B082219680A82704751
:1058600000030020F41A002008B5064B1968CA7816
:10587000042A05D8044B03EBC201044A904708BD33
:10588000002008BDF41A0020E0020020C5630008D3
:1058900008B540F27C2146F2C533C2F20001C0F6E1
:1058A0000003984708BD00BF08B540F2D82146F272
:1058B000C533C2F20001C0F60003984708BD00BF1F
:1058C00041F6F42247F62473C0F60003C2F2000248
:1058D0001068D9792DE9F047002446F6C5254172B4
:1058E0008472C472C0F60005204646F6D926A84741
:1058F000C0F6000620464FF4007146F6F125B04789
:10590000C0F600051021204646F6454AA847C0F6D5
:10591000000A4021204646F62148D047C0F600083C
:105920008021204646F6B937C047C0F6000720461A
:10593000B84740F28422C2F2000246F6CD4992F8FE
:105940002C10C0F600092046C84746F69533C0F62D
:1059500000032046984701202146B0470120C0217E
:10596000C04746F6313701202021A847C0F600077E
:1059700001202146B84702204FF4C061B047022001
:105980004FF48071C04702202146B84702202021F1
:10599000A84703202146B04703204FF48871D04721
:1059A00003204021C84703204FF44051B847214607
:1059B0000320A84746F6A1012046C0F6000188470B
:1059C00040F69C00C2F2000001220260BDE8F087B0
:1059D00045F6B17310B5C0F60003984741F6F420C0
:1059E000C2F200000268002445F60D219472C0F650
:1059F0000001884746F64153C0F60003984740F639
:105A00009C00C2F20000046010BD00BF38B545F62E
:105A100081630120C0F60003984745F6444545F6EA
:105A2000404341F6F822C4F2000300214FF4E05451
:105A30000120C4F20005C2F2000218601960084695
:105A4000296014801C6038BDF0B5002183B045F694
:105A500040434FF4B8420191C4F20003C4F2000283
:105A6000186814686049A5B245F604460D60C4F292
:105A70000006376845F60842BCB24C60C4F200022A
:105A8000156845F60C46AFB28F60C4F20006346864
:105A900045F61042A5B2CD60C4F20002166845F684
:105AA0001447B4B20C61C4F200073D6845F61842D1
:105AB000AEB24E61C4F20002176845F61C45BCB296
:105AC0008C61C4F200052E6882B24FF6FE7442F477
:105AD00080620440B7B244F4806542F0010645F6A6
