:020000040800F2
:1000000000500020F111000808B541F2CD53002046
:10001000C0F60003984708BD00B50A4B83B0984767
:10002000002409488047094D02224FF47A71084B99
:1000300020460094A847204606498847064A90472C
:10004000FEE700BFBD1200085D000008E9190008C6
:1000500009000008091A00081D020008704700BFC7
:1000600038B5164C0020232154222D23144DA847C7
:1000700094F9000028210A300322002380B2114D98
:10008000A847114B98471149227808788318D8B2AD
:10009000C3B25AB2442A237005DD421ED3B2FF20F8
:1000A000087023705AB2002A03DA01330120087065
:1000B000237007490A78531C0B7038BD03040020D5
:1000C00095200008992100088520000801000020E3
:1000D0000404002038B5164C002019215422232393
:1000E000144DA84794F900001E210A300522002370
:1000F00080B2114DA847114B9847114922780878D2
:100100008318D8B2C3B25AB2442A237005DD421E06
:10011000D3B2FF20087023705AB2002A03DA0133E9
:1001200001200870237007490A78531C0B7038BDF2
:10013000020400209520000899210008852000086D
:10014000000000200104002038B544F24C1040F6B5
:100150004D4444F25015C0F60004C0F60005C0F648
:100160000000A0472846A04744F28C10C0F60000CB
:10017000A0472846A04744F2C410C0F60000A0479C
:1001800044F20020C0F60000A04744F23C20C0F634
:100190000000A04744F27820C0F60000A04744F2D7
:1001A000B420C0F60000A04744F2F020C0F60000E2
:1001B000A04744F22C30C0F60000A04744F268305B
:1001C000C0F60000A04744F2A430C0F60000A047EB
:1001D00044F2E030C0F60000A0472846A04744F2B1
:1001E0001C40C0F60000A04738BD00BF38B544F23F
:1001F000204040F64D44C0F60004C0F60000A04781
:1002000041F2E543C0F600039847054644F21C401E
:10021000C0F60000A047284638BD00BF2DE9F047D2
:10022000002486B0DFF80082C047714D01203221E2
:100230000222704B0094A8470220009464210246D9
:100240006D4BA8476D4CDFF8E4916D4F6D4E6E4DD0
:10025000A0470346313B002800F08B803C2BF7D8A9
:1002600001A252F823F000BFE3030008C103000815
:100270008D03000883030008790300085D0300086C
:100280005102000851020008510200085102000802
:1002900051020008510200085102000851020008F2
:1002A00051020008510200085102000851020008E2
:1002B00051020008510200085102000851020008D2
:1002C00051020008510200085102000851020008C2
:1002D0005102000851020008ED0300085102000815
:1002E00051020008510200085102000851020008A2
:1002F0005102000851020008510200085102000892
:100300005102000851020008510200085102000881
:100310005102000851020008510200085102000871
:100320005102000851020008510200085102000861
:100330005102000851020008510200085102000851
:100340005102000851020008510200085102000841
:100350005102000851020008ED0300080020034686
:10036000D02103AAC847A0470346313B00287FF4A9
:1003700075AF06B0BDE8F0870120B8470220B84746
:1003800066E70120B0470220B04761E71F48A84751
:10039000002001461E4ADFF898A0D047DFF894E01D
:1003A0001C4A9EF800C002210CF1FF305FFA80FC6D
:1003B000634600208EF800C0D0471749884747E7BA
:1003C0001648A84700200146114ADFF864A0D0472C
:1003D000DFF860E002219EF800300E4A03F10100D0
:1003E000E4E70F48A8470F4A904731E7C0472FE797
:1003F000E9190008D500000861000008ED010008B7
:100400001D1A0008091A00084D0C0008584400087D
:100410003C4400084C440008852000083044000893
:1004200024440008351F000849010008811A00080B
:10043000492100080004002038B5094B0546197809
:1004400051B1084A084914680868631C05550968D1
:1004500013600022CA5438BD044B984738BD00BF12
:100460000C04002008040020C0040020A914000887
:1004700038B548B141B1087830B1044D0C46A847B1
:1004800014F8010F0028FAD138BD00BF3904000864
:1004900030B4C8B10378CBB100230B60027892B1BD
:1004A000303AD4B2092C02D912E0092D10D803EB4E
:1004B000830402EB44030B6010F8014FA4F13002F7
:1004C000D5B2002CF1D1012030BC70471846FBE7B3
:1004D0000020F9E72DE9F0478246007884B0002635
:1004E00089460096002800F09880642800F09580E6
:1004F000BB4F3446B046A0F13102082A00F2898091
:100500001AF804200AEB0405A2F13003092B01A814
:100510004FF0000308D8C25415F8012F0134A2F19E
:10052000300101330929F6D904ADEA18694602F809
:100530000C8C013CB84701341AF8040008B1642857
:10054000D9D10098002868D0092800F30981471EF6
:10055000811EC51E002F00F0088101F001046423F4
:100560004A1E71B124B1013A511C4FF47A7308D07C
:1005700003EB8307F90001EB4704023A6300571CC1
:10058000F6D199FBF3F2022803FB129900F0EF80F9
:1005900005F0010064246B1E75B120B1013B581CAD
:1005A0004FF47A7408D004EB8405EF0007EB4501A3
:1005B000023B4C005D1CF6D146F26765894F4FF057
:1005C0000108C6F266650FE0012C15D0B8F1000FE6
:1005D00012D0302006B92020B84785FB0420E4174C
:1005E000C4EBA004002C11DD99FBF4F2D0B2303042
:1005F00004FB1299002AE7D0B84785FB0420E417D2
:10060000C4EBA004002C4FF00008EDDC04B0BDE802
:10061000F087302808BF01268DE742F6A173C4F2A7
:10062000B84383FB09254FEAE9714FF44A42C1EB15
:100630002570C3F69A3202FB1099002800F09980C9
:10064000C0B243F68935C5F2E6553030654CA04757
:1006500085FB09234FF461414FEAE972C2EB636203
:10066000C0F2F55101FB1295D0B23030A0474CF6E4
:100670006B20C6F65F3080FB0523E91749F28062E4
:10068000C1EBA350C0F2980202FB1055C0B230304B
:10069000A0474DF68360C4F21B3080FB0523E917A9
:1006A00044F24022C1EBA340C0F20F0202FB1055FE
:1006B000C0B23030A0474BF28950C1F2F84080FB05
:1006C0000523E91748F2A062C1EB6330C0F20102D2
:1006D00002FB1055C0B23030A04748F6AD30C6F628
:1006E000DB0080FB0523E917C1EB233142F21072D6
:1006F00002FB1155C8B23030A04744F6D350C1F2C6
:10070000620080FB0523E917C1EBA3114FF47A7255
:1007100002FB1155C8B23030A04748F21F50C5F255
:10072000EB1080FB0523E917C1EB6311642202FB88
:100730001155C8B23030A04746F26760C6F2666015
:1007400080FB0523E917C1EBA30101EB8102A5EBB7
:100750004205C8B23030A047E8B23030A04755E774
:100760000920009006250721F7E60A2309E70A2455
:1007700022E743F68934C5F2E65484FB09234FEAA5
:10078000E9714FF46145C1EB6362C0F2F55505FBB9
:1007900012950AB1134C67E74CF66B20C6F65F3032
:1007A00080FB0524EB1749F28061C3EBA450C0F233
:1007B000980101FB105500286AD14DF68362C4F2FE
:1007C0001B3282FB0524EB1744F24021C3EBA4400B
:1007D000C0F20F0101FB105530B1024C68E700BFB9
:1007E00091040008390400084BF28952C1F2F84222
:1007F00082FB0524EB1748F2A061C3EB6430C0F222
:10080000010101FB1055002840D148F6AD32C6F673
:10081000DB0282FB0524EB17C3EB243142F210709C
:1008200000FB115509B11B4C64E744F6D352C1F2E9
:10083000620282FB0524EB17C3EBA4114FF47A701C
:1008400000FB115501BB48F21F52C5F2EB1282FBAF
:100850000524EB17C3EB6411642000FB115509B1AB
:100860000C4C66E746F26762C6F2666282FB0524BC
:10087000EB17C3EBA40101EB8100A5EB4005054C90
:1008800000297FF466AF67E7024C43E7014C21E79C
:10089000004CFBE6390400082DE9F043037887B0EB
:1008A0000026814601910296002B00F0B780782B3C
:1008B00000F0B480B44F3446B046A3F13102082AA8
:1008C00000F2A88019F8042009EB0401A2F130031A
:1008D000092B03A84FF0000308D8C25411F8012FC8
:1008E0000134A2F130050133092DF6D906A9CA1841
:1008F00002A902F80C8C013CB847013419F8043005
:100900000BB1782BD9D10199029B0ABA0192002B25
:1009100000F08780DA0700F10F810121C3F108029E
:1009200002EBD2735A10032A00F3C98001ACA51858
:100930002C4614F8010BEF43030907F001090DF1F0
:100940000808924D00F00F0700F03181092B40F2AA
:100950006E8103F13700A8470021002F00F030819D
:10096000092F40F2528107F13700A8470021444582
:1009700000F0A580B9F1000F17D014F8010B03099E
:1009800000F00F0731D0092B40F2428103F137000C
:10099000A8470022A7B3092F40F23D8107F1370095
:1009A000A8470021444500F08A8014F8013B1A0949
:1009B00003F00F0700F0D480092A88BF02F1370046
:1009C00040F22C81A8470021002F00F0D280092F8F
:1009D00088BF07F1370040F22481A84714F8010BC3
:1009E0000021030900F00F07CDD1002900F010818C
:1009F000002E40F0CD802020A8470122002FCAD130
:100A0000002A00F00881002E40F0BA802020A8477C
:100A10000121C7E7302B08BF01266EE7019C25BAEC
:100A200001959DF804301A0903F00F044AD0092AF1
:100A300040F2FA8002F13700544DA8470021002C03
:100A400044D10122002900F0FB809DF805301909EE
:100A500003F00F0447D0092940F2EC8001F1370080
:100A6000A8470023002C44D10122002B00F0E58090
:100A70009DF806100B0901F00F0447D0092B40F236
:100A8000BE8003F13700A8470021002C43D101228A
:100A9000002900F0B7809DF80730190903F00F0412
:100AA00045D0092988BF01F1370042D9A847002C59
:100AB0007AD0092C88BF04F1370075D9A84707B050
:100AC000BDE8F0830121314D002CBAD0092C40F251
:100AD000B78004F13700A8479DF8053000221909B6
:100AE00003F00F04B7D1002A00F0A4800123002CEA
:100AF000BAD0092C40F2A18004F13700A8479DF834
:100B0000061000220B0901F00F04B7D1002A76D09D
:100B10000121002CBBD0092C74D904F13700A8475F
:100B20009DF807300022190903F00F04B9D1002AFB
:100B3000BDD101F13000B9E7D843083000EBD073E4
:100B400006AA02EB630111F8140C10F00F0345D054
:100B5000092B51D903F137000C4B9847002142E093
:100B600000295BD0E6B13020A8470121002F7FF497
:100B70002EAF002955D07EB13020A8470121FCE6D8
:100B80003020A84701210DE791040008390400082E
:100B90003020A8470122FDE62020A8470121ECE6ED
:100BA0002020A84701210FE704F1300086E7002943
:100BB0003DD07EB13020A8470121002F7FF4D0AE78
:100BC00019B31EB13020A8470121D0E62020A84744
:100BD0000121CCE62020A8470121BEE63EB11A49FA
:100BE0003020884701210298431E029396E6202078
:100BF000154A90470121F6E703F13000ACE703F115
:100C0000300040E704F1300089E707F13000ACE63E
:100C100003F13000BCE607F13000C1E602F130001C
:100C2000D0E607F13000D8E602F1300004E703F126
:100C3000300090E601F1300012E704F130005DE78A
:100C400004F1300047E700BF390400080FB42DE974
:100C5000F04385B00DF13009AC4B002259F8044B3C
:100C6000AB4DDFF8B882AB4FAB4E1A70207800283E
:100C700000F0BE80252840F0C0806278631CA2F19D
:100C8000630101298DF8040040F2D680782A00F033
:100C9000DD80732A00F0DD80252A00F0DD80A17858
:100CA0008DF80520A1F16302A31C012A40F2D68031
:100CB000782900F0D680732900F0D680252900F02D
:100CC000D680E2788DF80610A2F16301E31C0129B9
:100CD00040F2CF80782A00F0CF80732A00F0CF80D6
:100CE000252A00F0CF8021798DF80720A1F1630239
:100CF000231D012A40F2C880782900F0C88073299A
:100D000000F0C880252900F0C88062798DF80810AD
:100D1000A2F16301631D012940F2C180782A00F02D
:100D2000C180732A00F0C180252A00F0C180A1791A
:100D30008DF80920A1F16302A31D012A40F2BA80B7
:100D4000782900F0BA80732900F0BA80252900F0D4
:100D5000BA80E2798DF80A10A2F16301E31D01293E
:100D600040F2B380782A00F0B380732A00F0B38099
:100D7000252A00F0B380217A8DF80B20A1F16302BF
:100D8000012A04F1080340F2AB80782900F0AB801F
:100D9000732900F0AB80252900F0AB80627A8DF8D2
:100DA0000C10A2F16301012904F1090340F2A380B0
:100DB000782A00F0A380732A00F0A380252A00F08F
:100DC000A380A07A8DF80D2004F10A035C1C64282E
:100DD0002BD015D825281FD063287FF447AF99F86A
:100DE0000000A847207809F1040900287FF442AFE9
:100DF00005B0BDE8F04304B07047A847013435E7BB
:100E000073280BD078287FF431AFD9F8001001A8EF
:100E100009F10409B04729E7A84727E7D9F80010E6
:100E200001A809F10409B84720E7D9F8001001A882
:100E300009F10409C04719E71046012404AA14194E
:100E4000002104F80C0C04F80B1CBFE701247820E7
:100E5000F4E701247320F1E70124EFE708460224B8
:100E6000ECE702247820E9E702247320E6E7022475
:100E7000E4E710460324E1E703247820DEE70324B7
:100E80007320DBE70324D9E708460424D6E70424CB
:100E90007820D3E704247320D0E70424CEE710465B
:100EA0000524CBE705247820C8E705247320C5E78F
:100EB0000524C3E708460624C0E706247820BDE7DA
:100EC00006247320BAE70624B8E710460724B5E7DE
:100ED00007247820B2E707247320AFE70724ADE7A3
:100EE00008460824AAE708247820A7E708247320E6
:100EF000A4E70824A2E7104609249FE709247820E4
:100F00009CE70924732099E7092497E70C04002043
:100F1000390400087104000899080008D504000885
:100F20002DE9F043AB4CAC4E2060AC4B0020154695
:100F300030600122AA4EDFF8B092DFF8B082A94FEC
:100F400085B01A700C462078002800F0BC80252857
:100F500040F0BC806278631CA2F1630101298DF826
:100F6000040040F2CC80782A00F0D380732A00F08D
:100F7000D380252A00F0D380A1788DF80520A1F137
:100F80006302A31C012A40F2CC80782900F0CC80B7
:100F9000732900F0CC80252900F0CC80E2788DF810
:100FA0000610A2F16301E31C012940F2C580782AF2
:100FB00000F0C580732A00F0C580252A00F0C580A6
:100FC00021798DF80720A1F16302231D012A40F247
:100FD000BE80782900F0BE80732900F0BE802529EC
:100FE00000F0BE8062798DF80810A2F16301631DE4
:100FF000012940F2B780782A00F0B780732A00F008
:10100000B780252A00F0B780A1798DF80920A1F1D9
:101010006302A31D012A40F2B080782900F0B0805D
:10102000732900F0B080252900F0B080E2798DF8B6
:101030000A10A2F16301E31D012940F2A980782A78
:1010400000F0A980732A00F0A980252A00F0A98069
:10105000217A8DF80B20A1F16302012A04F1080323
:1010600040F2A180782900F0A180732900F0A180CE
:10107000252900F0A180627A8DF80C10A2F163019D
:10108000012904F1090340F29980782A00F099803F
:10109000732A00F09980252A00F09980A07A8DF8B3
:1010A0000D2004F10A035C1C642823D011D82528E4
:1010B00019D063287FF447AF2878B04720780435EB
:1010C00000287FF444AF05B0BDE8F083B047013499
:1010D00039E7732809D078287FF435AF296801A84B
:1010E0000435B8472FE7B0472DE7296801A8043534
:1010F000C04728E7296801A80435C84723E71046F8
:10110000012404AA1419002104F80C0C04F80B1C87
:10111000C9E701247820F4E701247320F1E70124D2
:10112000EFE708460224ECE702247820E9E70224EE
:101130007320E6E70224E4E710460324E1E70324F2
:101140007820DEE703247320DBE70324D9E7084691
:101150000424D6E704247820D3E704247320D0E7BE
:101160000424CEE710460524CBE705247820C8E701
:1011700005247320C5E70524C3E708460624C0E715
:1011800006247820BDE706247320BAE70624B8E7D2
:1011900010460724B5E707247820B2E70724732018
:1011A000AFE70724ADE708460824AAE7082478201B
:1011B000A7E708247320A4E70824A2E7104609241F
:1011C0009FE7092478209CE70924732099E70924E4
:1011D00097E700BFC0040020080400200C04002092
:1011E0003904000899080008D504000871040008B3
:1011F000684620F007018D4679B52A492A4B994265
:101200001BD2DA1C0C1D151B284825F00302161DE5
:1012100005680423B3420D60C2F380020DD022B1F1
:1012200042680823B342226007D01D581A1D5D5042
:1012300084580833B3428C50F7D11E481E494FF0F2
:1012400000028842B8BF40F8042BFFF6FAAF4FF413
:101250008052C4F2020211684FF4A06341F480305E
:10126000106004E01068810305D4013B03D01168CD
:10127000013B8803F6D54FF40051C4F202010A681D
:1012800042F0100008600B6823F003020A6008684F
:1012900040F002030B6006498847BDE87940854667
:1012A000704700BF000000201003002038450008F0
:1012B00019000008000400202C160020F8B541F2A7
:1012C000F543C0F60003984741F23170C0F60000C4
:1012D000804740F604064FF4006E43F2B3474FF4E4
:1012E000406540F6044441F2040144F24440C4F233
:1012F000010E4FF03332C3F24430C4F20101C4F2A4
:101300000106C3F23337C4F20105C4F2010442F20C
:101310003D53CEF80020C0F6000337602A602260FB
:101320000860984741F23D41C0F60001884741F20C
:101330008950C0F60000804741F28172C0F6000279
:10134000904741F62943C0F60003984741F65161A2
:10135000C0F60001884741F67120C0F600008047C2
:1013600041F64522C0F600029047F8BD82B0002346
:1013700001930199884205D9019A531C019301995F
:101380008142F9D302B0704700B543F60403C4F2BA
:101390000103186883B002A941F2416201F8010D0E
:1013A000C0F600020020904703B000BD2DE9F041D7
:1013B00041F21806C4F20206356840F2C443C2F294
:1013C000000343F60C0443F6100C43F6140E43F6E8
:1013D000080758609960C4F20104002245F480486F
:1013E000C4F2010CC4F2010E0C2040F27121C4F2CF
:1013F00001074EF20415C6F80080CEF20005206009
:10140000CCF80020CEF8002039602B6843F0200093
:101410002860216841F2457341F0200041F2893192
:101420002060C0F600012520C0F60003984722681E
:1014300042F400512160BDE8F08100BF41F2E15368
:1014400010B5C0F60003984740F2C4430022C2F230
:10145000000341F2AD344FF4E1301146C0F6000410
:101460005A609A601A615A61DA611A629A62DA62A3
:101470005A639A63A04710BD30B5002383B0084D6E
:1014800004468DF807302046A8470028FBD02046A8
:101490000DF10701034A90479DF8070003B030BDE6
:1014A00011160008B91600080A280DD04FF4605232
:1014B000C4F2010213681906FCD543F60401C0B258
:1014C000C4F20101086070474FF46052C4F2010297
:1014D00013681B06FCD543F60401C4F201010D227A
:1014E0000A60E3E708B541F279430020C0F6000343
:1014F000984708BD41F20403C4F202031A684FF48E
:10150000805122F47C1020F0F0021A601868C4F2B6
:10151000020140F4E8121A600B68084643F080723A
:101520000A6001688B01FCD541F20403C4F2020396
:1015300018681A4620F003011960186840F002018B
:101540001960186820F480011960186820F4E061BF
:101550001960186840F480611960186820F46051BF
:10156000196018681860136803F00C010829FAD193
:1015700041F21800C4F20200026842F4804343F0D2
:101580001D010160704700BF0422C4F2010211680E
:101590004FF4406321F0E06010601168C4F2010371
:1015A00041F080601060196840F60C4221F47040F0
:1015B00018601968C4F2010241F4405018601968BB
:1015C0001960136843F008001060704738B940F69E
:1015D0000C43C4F201031A6882F0080018607047D7
:1015E00040F2F85140F208620023C2F20001C2F258
:1015F00000020B8013804B8053808B809380CB80C4
:10160000D3800B8113814B8153818B8193817047F0
:10161000094B0A4933F9102031F910301F20D21A32
:101620002032C8F200001040002800DB704701386B
:1016300060F01F01481C704708060020F8050020D4
:101640001A4A1B4BF0B432F8105033F910602CB228
:101650001F23A61B2036C8F200033340002B18DBE3
:101660001F2B1CD00135ADB21F230E78C8F200032A
:1016700029B20B4000EB40170E493C19002B0E55C8
:1016800022F810500DDB094921F810300120F0BC80
:101690007047013B63F01F0301331F2BE2D1002091
:1016A000F5E75A1E62F01F030133ECE7080600203D
:1016B000F8050020000500201A4A1B4B70B432F8D0
:1016C000105033F910602CB21F23361B2036C8F29D
:1016D00000033340002B17DBE3B100EB401601356C
:1016E0003419124EADB21F23345DC8F200032EB27E
:1016F0003340002B0C7022F810500DDB094921F803
:101700001030012070BC7047013B63F01F030133B0
:10171000002BE2D11846F5E7591E61F01F02531C59
:10172000ECE700BFF80500200806002000050020B7
:1017300040F600034EF60852C2F20003CEF2000259
:101740001360704740F600031030C2F2000343F804
:101750002010704740F600038008C2F2000343F8EF
:101760002010704708B541F6D91141F255733C205D
:10177000C0F600010022C0F60003984708BD00BF74
:1017800038B5284D2B78012B4AD027480024047007
:10179000448084808460047444828482846180F8FC
:1017A000204044848484846280F830404486848667
:1017B000846380F84040A0F84240A0F8444084642C
:1017C00080F85040A0F85240A0F85440846580F85A
:1017D0006040A0F86240A0F86440846613498847DE
:1017E0004EF2140141F63F104EF21802CEF2000103
:1017F000C0F20100CEF200024EF210030860CEF2F9
:1018000000031460196841F0040018601A6842F07F
:1018100002011960186840F001021A6001232B7060
:1018200038BD00BF800400201004002065170008A8
:10183000664B674A196810B5481C18601488A3B233
:101840001BB11188481E84B21480624C2278012A90
:101850001DD0207C5F4A01282BD094F820005D4ADF
:10186000012838D094F830005A4A012846D094F81C
:101870004000584A012854D094F85000554A012895
:1018800066D094F86000534A012878D010BD638870
:10189000591E88B260800028DBD16278012A00F0EE
:1018A0008680A188A36861809847207C494A0128E6
:1018B000D3D1518A4B1E98B250820028CDD1517C91
:1018C000012972D0A28AA3696282984794F8200005
:1018D000404A0128C6D1518C4B1E98B25084002832
:1018E000C0D192F8211001296CD0A28CA36A628425
:1018F000984794F83000374A0128B8D1518E4B1ED2
:1019000098B250860028B2D192F83110012956D0F1
:10191000A28EA36B6286984794F840002D4A012856
:10192000AAD1B2F842104B1E98B2A2F84200002889
:10193000A2D192F8411001293ED0B4F84420A36C02
:10194000A4F84220984794F85000224A012898D1E0
:10195000B2F852104B1E98B2A2F85200002890D153
:1019600092F85110012924D0B4F85420A36DA4F8A2
:101970005220984794F86000164A012886D1B2F8A0
:1019800062104B1E98B2A2F8620000287FF47EAF6E
:1019900092F86110A36E012908BF82F86000B4F8C4
:1019A0006420A4F86220984710BD10748AE7207064
:1019B00077E782F85000D7E782F84000BDE782F869
:1019C0003000A5E782F820008FE700BF84040020E4
:1019D000880400201004002008B541F63103C0F649
:1019E0000003984708BD00BF10B440F21044C2F293
:1019F000000404EB00108360019B4270C3604180CF
:101A0000818010BC704700BF062803D8024B00013C
:101A100001221A54704700BF10040020062803D882
:101A2000024B000100221A54704700BF100400202E
:101A3000034A1080138898B20028FBD1704700BF7A
:101A40008804002008B542F65973C0F60003984791
:101A500042F67970C0F60000804742F6BD71C0F6CC
:101A60000001884743F6A532C0F60002904708BD42
:101A700008B541F6D923C0F60003984708BD00BF5A
:101A800010B541F64D34C0F60004A04710BD00BFAC
:101A90000422C4F20102116840F6044341F002003E
:101AA0001060C4F201031A6822F00F01196018686F
:101AB00040F003021A60196841F00C0018601A68BF
:101AC00022F0F0011960186840F030021A601968BD
:101AD00041F0C0001860704738B541F69123C0F658
:101AE000000398474FF4A843C4F20003002545F2D1
:101AF00004441D60C4F2000445F21C402425256006
:101B0000C4F2000045F2204148F21E040460C4F211
:101B10000001042041F21C020860C4F202021068B5
:101B200045F2144140F400101060186845F2184264
:101B300020F0020018601868C4F2000140F00100B3
:101B40001860C4F200020B68136838BD2DE9F04735
:101B500005468A4600283AD14FF4A848C4F2000846
:101B6000D8F8003045F2144743F48071194CC4F2A0
:101B700000071948C8F8001045F21846A047C4F2FB
:101B800000063968154845F21049A047C4F200091B
:101B900031681248A047C9F800A039681048A0472A
:101BA00031680F48A047C9F8005039680C48A04771
:101BB00031680B48A047D8F800200A4842F4007367
:101BC000C8F800303968A04731680648A0470020AF
:101BD000BDE8F0874D0C0008644400086844000824
:101BE000704400087844000838B541F26D3540F67D
:101BF0000C44C4F20104C0F600056420A847236821
:101C0000642043F020012160A84722684FF4FA7055
:101C100022F020032360A8472168642041F02002BD
:101C20002260A84738BD00BF08B541F67123C0F651
:101C3000000398474FF44060C4F20100016841F688
:101C4000E93221F4700303600168C0F6000241F438
:101C50004013036001680160904708BD40F60443EB
:101C6000C4F2010319684FF4605221F47020186027
:101C7000186843F6040140F4403018601868C4F254
:101C8000000240F4002018601868C4F2000120F43B
:101C900070001860186840F440101860186840F42C
:101CA00000001860186820F070401860186840F054
:101CB00040501860186840F00040186044F21C035F
:101CC000042013600860116841F0400313607047FE
:101CD00010B5084C2378012B0BD041F21C00C4F244
:101CE00002000268044B42F48041016098470120E1
:101CF000207010BD8A0400205D1C000801280BD153
:101D000043F60403C4F200031A6842F002001860AC
:101D1000196841F001021A60704700BF012801D024
:101D20000020704743F6080242F20F73C4F200022B
:101D300006E01068013B800705D413F1FF3305D39B
:101D400010688007F5D50BB90120704743F60C00E9
:101D5000C4F2000043F60802016042F20F73C4F2BD
:101D6000000206E01068013BC10705D413F1FF3300
:101D700004D31168C807F5D5002BE5D043F60C0253
:101D8000C4F2000213680020704700BF08B50D4B75
:101D9000984701280DD00C48036803B908BD0B48CB
:101DA0000B494FF4FC720B4B984701200A4A9047AD
:101DB00008BD054A11680029F0D04B1E1360002BA6
:101DC000ECD0ECE7D92500088C0B0020900900200E
:101DD000900B002061250008FD1C000810B540F69E
:101DE0000C44C4F20104226841F6312322F48060DD
:101DF0002060C0F600030A209847216841F4806201
:101E0000226010BD10B540F60C44C4F201042368F2
:101E1000014623F4006241F61D5322600120C0F602
:101E200000039847216841F40062226010BD00BFA2
:101E300070B541F605640546C0F6000441F0400067
:101E4000A047064645F08000A047304380B270BDF1
:101E5000F0B52E4B83B0984740F60440C4F2010021
:101E6000026840F60C4422F4706101600568C4F217
:101E7000010445F4407606600768254D0760036855
:101E8000002623F470420260016841F44057076065
:101E90000368204F0360206840F48062226021685C
:101EA0001D4821F40063236080472120A847C620F5
:101EB000A8470620A8471320A8472020A8470C20A1
:101EC000A8473146154A304690472168032041F41F
:101ED00000632360124C2121124B009602222680BF
:101EE0003E60114CA0470320104A9047104B3146EA
:101EF00003F5FC705A1C5970023383425170F9D1BA
:101F00003968881C386003B0F0BD00BFD11C0008E0
:101F1000051E00088C0B0020DD1D0008311E000886
:101F2000880B00208D1D0008E9190008091A000817
:101F30008F090020074B002103F5FC705A1C5970D3
:101F4000023383425170F9D1034900200A68531CBF
:101F50000B6070478F0900208C0B00202DE9F00FDB
:101F6000077886B0002F00F0858040F68831C2F2F5
:101F7000000140F6210CB1F80090DFF804A1C2F294
:101F8000820C019009F1010398B2C208ACFB022453
:101F9000E508C5EB8516A0EBC60189B24B1C98B2CB
:101FA000C208ACFB0245EC08C4EB8416A0EBC603E8
:101FB0009AB2501C84B2E508ACFB0556F308C3EB9B
:101FC0008310A4EBC0041FFA84F808F10105AEB237
:101FD000F308ACFB0340C408C4EB8415A6EBC506AC
:101FE000B6B2731C9CB2E008ACFB0053DD08C5EB35
:101FF0008510A4EBC004A5B26B1C98B24FEAD00BBD
:10200000ACFB0B34203F4FEAD40B40F20404C2F285
:10201000000407EB470704EB470314F817709C789C
:1020200002970394DC785F7804941C79CBEB8B1BCC
:102030000594029C5B790AF809400AF80170039F35
:10204000059C0AF80270049AA0EBCB0040F6883198
:102050000AF808201FFA80F90AF80640C2F20001C7
:102060000AF80530019DA1F8009015F8017F01954F
:10207000002F87D1002006B0BDE8F00F704700BFE9
:102080009009002040F68C33C2F200031A68501CFD
:102090001860704790422DE9F00F4FD8294D4FF04E
:1020A00054084FF0010C994244D801F007090CFA8A
:1020B00009F9CE0808FB06064C1C15F806A0A4B2C8
:1020C0005F1A2AEA0909A34205F8069007F00107FA
:1020D00030D37FB104F007060CFA06F7E60808FBD8
:1020E0000606013415F80690A4B229EA0707A342B0
:1020F000AF551FD304F0070A0CFA0AFA671CBEB2E8
:1021000006F0070B0CFA0BF9E40808FB0404F708C7
:1021100015F804B008FB07072BEA0A0A05F804A023
:1021200015F807A0741CA4B22AEA0909A34205F80D
:102130000790DFD2013080B28242B4D2BDE8F00F06
:10214000704700BF900900200CB430B5B3B036AA78
:1021500040F621730D46044652F8041B6846C0F64B
:102160000003984704EB440105EB45004C00C0EB2D
:10217000C00540F6883241F65D73C2F2000204EBFE
:1021800085056846C0F6000315809847002033B0E7
:10219000BDE8304002B070472DE9F00F88B0540020
:1021A00005900691C4F10300059D069C049383B23B
:1021B0000393A0492046019502950023A5E0DDF890
:1021C00018B04FF00109C2EB0B06B6B206F00708D3
:1021D00002EB0B0509FA08FBAFB207F0070A00F0A3
:1021E000070509FA0AFC4FF0010809FA05FA04F09C
:1021F0000709CDF81CB008FA09FB5425FF0805FBB8
:1022000007F7DDF80890F60807EB090805FB06F666
:10221000CDF800B011F808B05FFA8CFC4BEA0C0561
:1022200001F8085006EB0908DDF81C9011F808B019
:102230005FFA89F54BEA050B01F808B0DDF8048078
:102240004FEAD00B474411F80790DDF8048049EAC3
:102250000C0C01F807C054274644DDF8149007FB26
:102260000BF811F806B002EB09074BEA0505BFB2FF
:102270004FEAD40C4FF0540B8D5508EB07060BFBBF
:102280000CF511F806905FFA8AFADDF800B049EA19
:102290000A0C01F806C0EF195FFA8BF9DDF814B0EB
:1022A000CE5DC2EB0B0C46EA09061FFA8CFCCE553C
:1022B000E04411F80870654447EA0A0A01F808A0EA
:1022C0004E5D46EA090901F80590DDF80CC01CF4E2
:1022D000004F40F0A880039F9D1A0A3707EB850640
:1022E000013AB7B2039792B2029D019F01336E1C6F
:1022F0009BB27D1E0130013CB6B2ADB29A4202964D
:10230000019580B2A4B2C0F01581049E002E3FF466
:1023100056AF049D012D00F08F80049F022FD4D171
:10232000069E4FF001099519B61AB6B2AFB206F083
:10233000070509FA05FA07F0070C4FF0010808FA3B
:102340000CFB04F0070C09FA0CF800F00705CDF8B7
:102350001CA009FA05FAFF08542505FB07F7DDF86C
:102360000890F60805FB06F6CDF8008007EB090893
:1023700011F808505FFA8BFCDDF8089085EA0C0B29
:1023800001F808B006EB0908DDF81CB011F8089058
:102390005FFA8BF589EA050901F80890DDF80480F9
:1023A000DDF80490474411F807B04FEAD0088BEAF3
:1023B0000C0C4FF0540B01F807C04E440BFB08F80F
:1023C000DDF814C08F5D02EB0C097D401FFA89F91E
:1023D0004FEAD4078D550BFB07FC08EB09054F5D51
:1023E0005FFA8AF677404F55E144009DDDF814B05E
:1023F00011F809A0EDB2C2EB0B07BFB28AEA050AD9
:1024000001F809A0B84411F80890674489EA060663
:1024100001F80860CE5DDDF80CC075401CF4004F7B
:10242000CD553FF458AF0CEB8305AE1DB7B2039703
:102430005AE700BF90090020069E9719C2EB0608D4
:10244000BFB21FFA88F907F0070B049E05FA0BFCD0
:1024500009F0070506FA05FA049D00F0070605FADB
:1024600006FB04F00706B540FF080795542505FB59
:1024700007F7DDF808804FEAD906B84411F808904C
:1024800054256FEA0C0C05FB06F65FFA8CFC09EA92
:102490000C0501F80850DDF808806FEA0A05B04421
:1024A00011F80890EDB209EA050A01F808A0DDF874
:1024B00004804FEAD00A474411F80790DDF8048001
:1024C00009EA0C0C01F807C04FF05407464407FB1B
:1024D0000AFADDF814908F5D02EB090C1FFA8CF8F4
:1024E0003D408D554FEAD4070AEB0805542606FBFC
:1024F00007FC4F5D6FEA0B06F6B237404F55079D5C
:10250000E044DDF814B011F80890EF43FDB2C2EBDF
:102510000B07BFB209EA050901F80890BA4411F89F
:102520000A80674408EA060601F80A60CE5D354075
:10253000CD55CAE608B0BDE8F00F7047074A1378DA
:10254000012B09D041F21400C4F20200016841F0ED
:102550000103036001201070704700BF8B0400204E
:102560002DE9F00144234C2743F60C045026C4F215
:1025700002034FF0000CC4F20004C4F20207C4F2DC
:1025800002064825C3F800C0C4F202053C60316071
:102590004FF484512A601960D3F8008058216027D5
:1025A0006426C4F202015C2548F00108C4F2020767
:1025B000C4F20206C3F80080C4F20205C1F800C0EC
:1025C0003C60306090202A6008600A6842F0010395
:1025D0000B60BDE8F00170470023C4F202031868E5
:1025E00010F400500AD0196811F4003006D004230A
:1025F000C4F202034FF408321A600120704700BF92
:1026000038B5154B1A78012A00D038BD134C206814
:1026100000B34028124A14D8116885B20818106017
:1026200000228BB222600F48C021C0182A460E4BF0
:102630009847012029460D4A904701200C498847B8
:1026400038BD1568403805F14001ABB2206011601B
:102650004025E8E7187038BDAC040020B80400201D
:10266000B4040020F00D0020E93B0008993E00086A
:102670005D3D000810B540F68854C2F2000443F6F0
:1026800059732146C0F600030320984743F289029C
:10269000C1B2C0F600022046904743F681510320A4
:1026A000C0F60001884710BD08B5084B186805281A
:1026B00000D008BD064B1A68511C052A1960F8D1D4
:1026C00000201860034B9847F3E700BFA0040020E8
:1026D0008C040020F930000845F64442C4F20002A0
:1026E000136830B58F4C98B28F4D208021882B888D
:1026F00089B0194001F4007081B2002968D12288A4
:1027000002F400410B425FD1228802F480610B4247
:102710004ED1208800F40052134206D045F64440C2
:10272000C4F200004DF6FF710160228802F480506F
:10273000034231D1208800F400610B420ED07B4B64
:102740001A78002A25D102207949884745F6444263
:10275000C4F200024FF2FF712B881160208800F450
:102760008072134213D045F64443C4F2000345F689
:1027700048404FF6FF61C4F200001960026810047F
:1027800032D46C4B002018600720694B984709B081
:1027900030BD69488047D9E745F64443C4F2000399
:1027A0004EF6FF7119600020614A90472B88C1E7FF
:1027B000624A45F64443C4F200034FF6FF30186006
:1027C000516888472B88A4E75D4880472B889BE7A2
:1027D0005C4B4FF6FF5010601A78511CC8B218704D
:1027E000594B98472B888AE7524801684A1C026077
:1027F00001680329C8D945F64042C4F200021168B5
:102800000907C1D415685149ADB24FF4B8440D6001
:10281000C4F20004256845F60444ADB20095C4F244
:102820000004256845F60844ADB20195C4F20004E1
:10283000256845F60C44ADB20295C4F20004256843
:1028400045F61044ADB20395C4F20004256845F680
:102850001444ADB20495C4F20004256845F618444A
:10286000ADB20595C4F20004256845F61C44ADB22E
:102870000695C4F200042468A4B207940C6844F0DE
:1028800001040C600C68A4B214600C6824F001040C
:102890000C60096889B21160196845F6444249051F
:1028A000C4F20002F8D54FF6FF33136000994FF4DD
:1028B000B8438AB2C4F200031A60019945F6044392
:1028C0008AB2C4F200031A60029945F608438AB23C
:1028D000C4F200031A60039945F60C438AB2C4F2AD
:1028E00000031A60049945F610438AB2C4F200034B
:1028F0001A60059945F614438AB2C4F200031A60BF
:10290000069945F618438AB2C4F200031A60079983
:1029100045F61C438AB2C4F2000300211A6001602C
:1029200032E700BFC80D002024160020A4040020B8
:10293000052E000898040020352C0008880200208D
:10294000913F000894040020A9260008900400206C
:10295000034B987A10B1034905220A60704700BF03
:1029600000160020A004002040F2A043C2F20003A1
:1029700004221A60704700BF034B1A78202A01D145
:1029800000201870704700BF9C040020704700BFF3
:10299000212810B5034603D0202811D0022010BDF5
:1029A0000F4A1368187800F07F012129F6D10D49EC
:1029B000126800242046916154828847204610BD49
:1029C000074A1168087800F07F01212903D0064AE0
:1029D0000220137010BD044C04492370E8E700BFC7
:1029E00020160020252A00089C0400203D2A00080B
:1029F000074B19680A7802F07F03212B01D00220CF
:102A00007047022801D02228F9D10020704700BF6A
:102A10002016002009B1022070470128FBD8084683
:102A2000704700BF08B103487047034B082219687C
:102A30000A827047040300202016002008B10348D2
:102A40007047034B082219680A827047040300206C
:102A50002016002008B5064B1968CA78042A05D844
:102A6000044B03EBC201044A904708BD002008BD97
:102A700020160020E4020020B135000808B540F21D
:102A8000802143F2B153C2F20001C0F6000398471F
:102A900008BD00BF08B540F2DC2143F2B153C2F2D9
:102AA0000001C0F60003984708BD00BF41F2206254
:102AB00044F2F443C0F60003C2F200021068D97970
:102AC0002DE9F047002443F6B14541728472C47287
:102AD000C0F60005204643F6C546A847C0F60006E6
:102AE00020464FF4007143F6DD45B047C0F60005BF
:102AF0001021204643F6316AA847C0F6000A40215B
:102B0000204643F60D68D047C0F6000880212046D5
:102B100043F6A557C047C0F600072046B84740F225
:102B20008822C2F2000243F6B96992F82C10C0F66E
:102B300000092046C84743F68153C0F600032046EB
:102B4000984701202146B0470120C021C04743F6E5
:102B50001D5701202021A847C0F60007012021466B
:102B6000B84702204FF4C061B04702204FF4807193
:102B7000C04702202146B84702202021A847032051
:102B80002146B04703204FF48871D04703204021ED
:102B9000C84703204FF44051B84721460320A847B7
:102BA00043F68D212046C0F60001884740F2A04040
:102BB000C2F2000001220260BDE8F08743F29D13DB
:102BC00010B5C0F60003984741F22060C2F2000041
:102BD0000268002442F6F9319472C0F60001884779
:102BE00043F62D73C0F60003984740F2A040C2F2AE
:102BF0000000046010BD00BF38B543F26D03012032
:102C0000C0F60003984745F6444545F6404341F277
:102C10002462C4F2000300214FF4E0540120C4F206
:102C20000005C2F20002186019600846296014808D
:102C30001C6038BDF0B5002183B045F640434FF429
:102C4000B8420191C4F20003C4F20002186814688B
:102C50006049A5B245F604460D60C4F20006376827
:102C600045F60842BCB24C60C4F20002156845F655
:102C70000C46AFB28F60C4F20006346845F61042CD
:102C8000A5B2CD60C4F20002166845F61447B4B28E
:102C90000C61C4F200073D6845F61842AEB24E61C1
:102CA000C4F20002176845F61C45BCB28C61C4F240
:102CB00000052E6882B24FF6FE7442F48062044032
:102CC000B7B244F4806542F0010645F64440CF6156
:102CD000C4F200001A601E601D60026845F644439D
:102CE0005205C4F20003F8D54FF6FF3018600868AB
:102CF0004FF4B84280B2C4F200021060486845F652
:102D0000044280B2C4F200021060886845F60842AE
:102D100080B2C4F200021060C86845F60C4280B26E
:102D2000C4F200021060086945F6104280B2C4F295
:102D300000021060486945F6144280B2C4F20002F5
:102D40001060886945F6184280B2C4F20002106033
:102D5000C86945F6404245F61C41C4F2000280B203
:102D6000C4F2000144F481640860146010684FF4F8
:102D7000E04184B244F004001060C4F2000108682D
:102D80004EF6105401900868CEF2000420F00300C3
:102D900040F001000860206840F0040020601868DE
:102DA000C0040FD54EF6FF70186010684FF6F77329
:102DB00003401360019A0A60216821F0040020603A
:102DC00003B0F0BD044B9847226822F00401216053
:102DD000F6E700BFD00D0020E131000810B545F640
:102DE0004044C4F2000423684FF6FB721A4042F6D6
:102DF0009D702260C0F6000080474FF43F41216083
:102E000010BD00BF10B52B4C072818BF20702378C9
:102E1000052B19D8DFE803F01B222A2F3A0360782C
:102E2000411ECAB26270637883B945F64042C4F26B
:102E3000000210684FF6EF71014011601D4A1E49F3
:102E4000062010700B6010BD0621217010BD1A4ABB
:102E50001168002928D00520207010BD174A90471E
:102E6000154B042101202170186010BD022303209E
:102E70006370207010BD6278511ECBB263706078B1
:102E80000028E3D10B4904220A7010BD45F64043E7
:102E9000C4F20003186882B242F0100119600A20DF
:102EA00005232370607010BD044B984706222270E2
:102EB00010BD00BFCC0D0020A8040020DD2D0008AF
:102EC00040F21443C4F201034FF480221A607047A9
:102ED00070B48AB3561EF2B2531C5E00030FB21ECA
:102EE0000024092BC2F3400228D937330B70022388
:102EF0000001B3424C701FD052B1020F092A13D9FE
:102F00003732CA54CA1802330001B342547013D086
:102F1000050F092D15D83035CD540001020FCD18FD
:102F20000233092A6C70EBD83032CA54CA18023303
:102F30000001B3425470EBD170BC704730330B705A
:102F4000D5E73735CD54E8E708B542F2D963C0F686
:102F50000003984708BD00BF41F20403C4F2010317
:102F60001A6822F470001860196841F400121A609F
:102F700018681860704700BF41F20402C4F20202F0
:102F8000116841F21C0321F480001060C4F20203B6
:102F90001A6842F400011960704700BF054B987A27
:102FA00018B9054901220A607047034B05201860D3
:102FB000704700BF00160020A004002040F2144219
:102FC00038B5C4F201024FF480214FF480631160E0
:102FD000C4F20103186840F2044420F480251D6007
:102FE000C4F2010422684FF4816122F48020206041
:102FF000C4F201010C6840F20C4544F480220A60DE
:10300000C4F20105296841F2557421F4802028603A
:103010001D6842F6497145F480259020C0F60001F4
:103020000022C0F600041D60A0474FF46143CEF2B9
:1030300000031A68E82042F48011196042F6C16169
:10304000C0F600010022A0474EF20410CEF20000AC
:1030500002684FF4826342F480610160C4F20103AC
:10306000186840F480221A6038BD00BF41F20C039A
:10307000C4F201031A6818B942F40050186070478E
:1030800022F40051196070472DE9F0410F4682B0DB
:10309000054661B303784A1E05200124154E0DF143
:1030A000070102EA04088DF80730B047BC421ED27F
:1030B000B8F1000F09D06B7805200DF1070102244B
:1030C0008DF80730B047BC4211D22A5D0DF10701DF
:1030D000013405208DF80720B0472B5D05200DF148
:1030E000070101348DF80730B047BC42EDD302B080
:1030F000BDE8F0814116000870B5204C2378012B03
:1031000023D01F4D2B68B3F5006F2CD01D4A1168DA
:103110008B422FD01AD898B2CE1A1B4A402E166076
:103120001BD9403E403316602B604026174B0125CB
:1031300018183246C021164B25709847284631464C
:10314000144A904728461449884770BDC3F5006665
:103150000D4A402E166098B2E3D8F1182960002578
:10316000B6B21560E2E7074900200968286009B196
:103170000346D1E70020207070BD00BFAC040020E2
:10318000B4040020B0040020B8040020F00D00209A
:10319000E93B0008993E00085D3D000838B54FF254
:1031A000E8724FF2F073C1F6FF72C1F6FF73106858
:1031B0001A684FF2EC71C1F6FF7180180C6807D0E5
:1031C00004490822044DA847204604490422A84780
:1031D00038BD00BF2E020020D12E00083E02002084
:1031E00030BF704708B538B1064B1868016888478A
:1031F000054A10680A3008BD034B012219680A828B
:1032000008BD00BF1C1600202016002008B538B1EC
:10321000064B186881688847054A10680C3008BD5D
:10322000034B012219680A8208BD00BF1C1600204A
:103230002016002008B500283BD0234B234800214E
:103240001A680180137813F07F0312D1537A03F0C8
:103250002002D1B259BB027803F04003D9B211B3B6
:1032600042F0010303701A4801680A699047174841
:1032700008BD012B16D0022B13D1517901F00F029A
:10328000930003F1804202F5B84311F0800F1968F2
:1032900014D101F44052B2F5805FE4D101210170F4
:1032A000E1E7084608BD22F001020270DBE70222D6
:1032B000D2E7054B022219680A8208BD01F03003EB
:1032C000102BD0D1EAE700BF20160020F015002017
:1032D0001C1600202DE9F041274E3468238A277AF6
:1032E00023B9042F2AD0A58A042703E0A58AAB427C
:1032F000FAD902279D4228BF1D46A1692846884762
:103300001E4A8046002090472A4601461C4B4046F4
:103310009847294600201B4A9047208A618A431B10
:1033200023826D181848194B658230224FF44051A2
:103330003468028019802772BDE8F081144A107841
:10334000012806D0104910270F8007272772BDE8F3
:10335000F08145F65040C4F20000006843F20201DB
:1033600080B2C2F2000141184800074903603020D2
:1033700008801370DFE700BF20160020593E0008C8
:10338000E93B0008993E0008281600202616002078
:10339000BC04002010B50B4B0B4A18685178C37859
:1033A000994201D2022010BD8278002AFAD1848885
:1033B000002CF7D18372054801684B689847204676
:1033C00010BD00BF201600200C0300201C1600209A
:1033D00038B5104A104C116823688A695879D97831
:1033E00090472368997A09B9022038BD0028FBD19B
:1033F00018790028F8D19D78002DF5D1074A136877
:10340000D9688847236828465979DA78D9721A73B7
:1034100038BD00BFF8150020201600201C16002023
:1034200038B5354B1B68187810F07F0003D00228A0
:1034300006D0022038BD597A21F020025A7238BDD8
:103440005A88002AF6D119790029F3D15A7922F045
:103450008000810001F18044150604F5B84456BF90
:103460002468256804F44055244C48BF05F0300515
:103470002478A042DDD2002DDBD09B7A002BD8D05F
:1034800002F08002D3B273B101F1804101F5B8427C
:10349000136803F03001102921D0194801684A69E6
:1034A0009047002038BD01F1804101F5B844226801
:1034B00002F44053B3F5805FEFD1C8B9114A124B03
:1034C00092F82C10984720684BF68F71014081F4D8
:1034D000405242F4004343F080002060DDE7C4B274
:1034E00020460A4A904720463021094B9847D4E7A6
:1034F00008498847E7E700BF201600200C0300209A
:103500001C16002088020020B93E0008E93D000892
:10351000DD3C0008C53D000838B5224B19684B79E1
:1035200023F08002900000F180441D0604F5B844A9
:1035300056BF2468256804F440551B4C48BF05F06D
:1035400030052478A24201D3022038BD4A88002ADF
:10355000FAD1002DF8D0897A0029F5D003F0800344
:1035600000F1804000F5B842DBB211687BB148F64B
:10357000BF70084080F0100141F4004343F0800028
:1035800010600A4A11688B699847002038BD4BF6D5
:103590008F730B4083F4805040F4004141F080036E
:1035A0001360EEE7201600200C0300201C160020FC
:1035B000054B1B685A8A10B10868801870478988C3
:1035C0008A1A1A82704700BF2016002008B50C4BDB
:1035D000002093F82C100B4A90470B480168087A9A
:1035E000082806D1094B4FF480521A80084A10214E
:1035F0001180B0F1090CDCF1000050EB0C0008BDAB
:1036000088020020B93E000820160020261600205F
:1036100028160020F8B5334D2C68237A022B07D0EA
:10362000042B05D0032B08D0052B06D0072B0DD07B
:10363000082222722C4B9847F8BDA169208A11B349
:1036400058B9A48A002C45D0284A2EE028480168A1
:10365000CA6890472C680822EBE7A68A864228BFF2
:10366000064630468847638A0746208AF118821B3F
:10367000228261821F4B00209847324601461E4B32
:1036800038469847208A0028DBD01C4B00204FF496
:10369000405201461A801A4A9047238AA18A134A47
:1036A00030209942108015D9C3B92C68062145F6FF
:1036B00050432172C4F20003186843F2020381B23E
:1036C000C2F20003C81843000021196030201080A6
:1036D000227AAEE72C6803222272AAE72C68052220
:1036E0002272A6E720160020CD35000828160020FB
:1036F000F8150020793E0008613C000826160020DD
:10370000993E0008F0B545F650439E4DC4F20003C3
:103710001A682C6843F2040091B2C2F20000227AC7
:103720000E187300092A83B01E6844D0B7B278001F
:1037300000F1804101F5C0463278934F22707378D2
:103740006370B088B847608030892C68B847A08023
:10375000B0892C680121E0802172002830D0617886
:10376000062900F0878000295ED16388002B00F0D5
:103770009480864E336808461969884703282B6869
:1037800062D01A8A4FF6FF718A425DD002280CD0AF
:103790005AB193F900100029C0F2B58003221A72C1
:1037A0007B4B4FF44050188001E008201872794B91
:1037B000984703B0F0BDE088012121720028CED1E6
:1037C0002278667812F07F0341D1092E00F008813B
:1037D000052E00F0BF80032E00F0F080012E3BD1BB
:1037E000E178012938D1A288002A35D1637A03F023
:1037F0002004E0B200282FD06749884760BB2C68BE
:1038000045F65040C4F20000016843F202038AB258
:10381000C2F20003D01841000023604A0B60302040
:10382000062110802172C2E7082948D1207843067A
:103830009FD15B4A0020A261608290472B684FF6BF
:10384000FF701A8A8242A3D109211972AFE7012BB6
:1038500071D0022B00F08D804C4930460A685369C4
:103860009847032800F0C5802C680028C8D008219C
:1038700021729CE7267873067FF47BAFA278434ED3
:10388000012A00F0B080022A5ED0032A7FF472AFD2
:103890003068426A002ACDD16CE7606820F47F422C
:1038A000B2F5003F7FF465AF237813F07F0040F05E
:1038B000A480A388002B7FF45CAF3A4ABAE70A29B8
:1038C0007FF457AF267806F07F02012A7FF451AFCC
:1038D000A37A002B3FF44DAF6388002B7FF449AFF0
:1038E00060682A4E20F47F42B2F5803F7FF442AFF9
:1038F00032681946607993699847002840F0B8808B
:103900002C68294A96E7D98801910198824217D8F4
:103910008A421E4908D2086890F82C00824280F042
:103920008F80224A00201070096891F82C209A821A
:103930001F4B98473BE70B2E8ED11E4880475DE713
:10394000019812491882EFE733681A6A002A7FF457
:1039500071AF0FE794F90300002888DBA1780029F4
:1039600085D1A288002A82D1A37A002B3FF448AFE8
:103970007DE7012E3FF440AF032E7FF46DAF0E4C78
:10398000A0473BE720160020213F0008F815002043
:1039900026160020CD350008213400082816002006
:1039A000E5310008353200080D320008BC04002063
:1039B000D5320008D133000819350008E278012A11
:1039C0007FF44AAFA388002B7FF446AF607A2A4A7F
:1039D00040F0200113686172DC69A0472C680FE792
:1039E000264CA0470AE73268D269002A7FF422AF4A
:1039F000C0E62C6809212172D9E601282BD00228C3
:103A00007FF4B7AE637903F00F02960006F18040B1
:103A100000F5B8401E0656BF0068066800F4405620
:103A2000174848BF06F0300600788242BFF4A1AEC6
:103A300013F0700F7FF49DAE002E7FF43EAF98E63A
:103A400092FBF0F400FB1422002A7FF46DAF0D4AC4
:103A50000120107068E70C4E607933689A699047CE
:103A600030B92C68A07A00287FF427AF617881E60E
:103A7000296849787EE600BF1C16002095330008AF
:103A80000C030020BC040020F8150020F0B4284BE3
:103A90001E78002E43D04FF4B842C4F200021468DE
:103AA00040F60F71214041F4004343F08001116062
:103AB0000122741E45F60443964204F00104C4F248
:103AC00000032CD97CB1196840F60F720A4042F409
:103AD000004141F081021A60022245F608439642F5
:103AE000C4F200031BD91F6842F4004540F60F746E
:103AF00045F080053C4045EA0407194641F8047B3F
:103B00005F68013242F4004540F60F7445F08005CD
:103B10003C402C4301325C600B1D9642E3D845F6D5
:103B20004C4340F08000C4F200031860F0BC7047C2
:103B30000C03002010B5144C23681A7A022A12D004
:103B4000042A10D0062A04D0082018720F4B984778
:103B500010BD597805290BD00D4B1868816888472E
:103B600023680820F1E70B4A90472368187AECE7AE
:103B70001A785206F0D1D878074B98470748016861
:103B80000A6A9047E8E700BF20160020CD350008FC
:103B9000F8150020D53200088D3A00081C160020C8
:103BA000704700BF10B541F2006241F22064C2F2DA
:103BB0000002C2F2000422600224147241F2F850A2
:103BC00040F2882341F21C6140F2B822C2F20003A5
:103BD000C2F20000C2F20001C2F2000203600A60F9
:103BE0001868804710BD00BF01F1005101F5405138
:103BF000531C4A00591030B42FD04578023010F8C9
:103C0000024C013944EA052322F8043B0B460432F6
:103C100001F00101023003B359B110F8014C10F862
:103C2000021C023041EA042122F8041C0432013B48
:103C300013D010F8021C10F8014C41EA042422F8B9
:103C4000044C4478023010F8021C023041EA04218E
:103C500022F8041B0432023BEBD130BC704700BF9A
:103C600001F1005101F5405301325900521030B4B6
:103C70001CD00B68013A20F8023B1346023002F0D8
:103C800001029BB132B151F8042F20F8022C02300E
:103C9000013B0BD00C1D4D688968024620F8025C80
:103CA00022F8021B901C211D023BF3D130BC70474F
:103CB0004FF6F87345F650420340C4F20002136019
:103CC000704700BF800000F1804202F5B8421068E2
:103CD00048F68F130340194311607047800000F1CC
:103CE000804202F5B84210B401F01000146848F6A2
:103CF000BF7380B2234068B99BB201F0200188B243
:103D000008B183F0200343F4004141F080001060CB
:103D100010BC704783F01003EFE700BF800000F194
:103D2000804202F5B84210B401F4805014684BF69A
:103D30008F7380B2234068B99BB201F4005188B2FE
:103D400008B183F4005343F4004141F08000106057
:103D500010BC704783F48053EFE700BF800000F190
:103D6000804202F5B840016848F6BF730B4083F00B
:103D7000300242F4004141F080030360704700BF0D
:103D8000800000F1804202F5B84001684BF68F7365
:103D90000B4083F4405242F4004141F08003036041
:103DA000704700BF800000F1804202F5B840016812
:103DB00040F60F630B4043F4004242F08001016083
:103DC000704700BF800000F1804303F5B8400268EF
:103DD000510408D5016840F60F730B4043F440428C
:103DE00042F0800101607047800000F1804303F5DC
:103DF000B8431A68500608D5196840F60F70084095
:103E000040F4004242F0C0011960704745F650434B
:103E1000C4F200031A684FF6FE7392B202EBC000C0
:103E200000F1005202F5405042000B401360704711
:103E300045F65043C4F200031A6843F2040392B2F9
:103E400002EBC000C2F20003C3184FF6FE72580026
:103E50000A400260704700BF45F65043C4F20003B9
:103E600019688AB202EBC00000F1005303F540511B
:103E70004A001088704700BF45F65043C4F2000363
:103E80001A6843F2040193B203EBC000C2F20001CE
:103E9000421851000888704745F65043C4F20003A9
:103EA0001A6843F2020392B202EBC000C2F20003AE
:103EB000C3185A001160704745F65043C4F200031E
:103EC0001A6843F2060392B202EBC000C2F200038A
:103ED000C3185B003E2909D94A09C90601D1501E01
:103EE00082B2910241F40040186070474A08C80746
:103EF00048BF013291021960704700BF45F6504338
:103F0000C4F200031A6843F2060193B203EBC00047
:103F1000C2F20001421851000B689805800D7047ED
:103F2000C3B2000A40EA0320704700BF10B441F258
:103F3000246345F6444445F640424FF43F41002097
:103F4000C4F20004C2F20003C4F20002206019802F
:103F5000116010BC704700BF70B543F6FD6300F000
:103F60007F05C0F6000328460E46984743F6796160
:103F70000446C0F600012846884743F661430146DF
:103F800022463046C0F600039847204670BD00BF69
:103F90002DE9F04FDFF8ACA183B045F6444B002388
:103FA000DFF8A491624DADF80630C4F2000BD046A4
:103FB000DBF800004FF4B84482B20304AAF80020F2
:103FC00040F1AB80B8F80030C4F2000403F00F02F7
:103FD000900000F18040574E4BF6BF71544F13468E
:103FE00000F5B84089F80020002A33D1226890B249
:103FF00028802B8803F030023280288800F4405358
:104000002B802268114081F4005181F0200040F49F
:10401000004343F080022260B8F8001001F0100065
:1040200083B2002B49D0226891B2ADF80610BDF8DA
:10403000060000F400639AB2002A71D1BDF80610A0
:1040400008B20028B4DA226840F68F731340236068
:10405000394938E00468A1B2ADF80610BDF8062071
:1040600014B2002C1BDBBDF8061001F0800293B2E5
:10407000002B9DD099F8004048F60F73A00000F186
:10408000804101F5B8421068013C0340136040F2E2
:104090004823C2F2000353F82410884788E70168D8
:1040A00040F68F720A40026040F26420013BC2F287
:1040B000000050F82340A047D5E7216848F60F7369
:1040C0000B401E492360884720683A884BF6BF732F
:1040D00002F480518AB203400AB183F480533888D5
:1040E00000F400518AB20AB183F40053308800F022
:1040F00010018AB20AB183F01003308800F0200169
:104100008AB20AB183F0200343F400404FF4B8416F
:1041100040F08002C4F200010A6003B0BDE8F08FF5
:10412000206840F68F72024022600549CBE700BF4D
:10413000261600202816002015360008353B0008FA
:1041400005370008C80D0020FC1500200A0A0000F1
:104150002A2A2A2A2A2A2A2A2A2A2A2A2A2A2A2ABF
:104160002A2A2A2A2A2A2A2A2A2A2A2A2A2A2A2AAF
:104170002A2A2A2A2A2A2A2A2A2A2A2A2A2A2A2A9F
:104180002A2A2A2A2A2A2A0A00000000202020207F
:10419000202020202020202020202020202020201F
:1041A0002020474C63642056302E322020202020CF
:1041B00020202020202020202020202020202020FF
:1041C00020200A002A20312E204C434420436C65D5
:1041D000617220202020202020202020202020204C
:1041E00020202020202020202020202020202020CF
:1041F000202020202020202020202A0A000000004B
:104200002A20322E20436F756E74202B2B20202005
:10421000202020202020202020202020202020209E
:10422000202020202020202020202020202020208E
:104230002020202020202A0A000000002A20332EDF
:1042400020436F756E74202D2D20202020202020EB
:10425000202020202020202020202020202020205E
:10426000202020202020202020202020202020204E
:1042700020202A0A000000002A20342E204D6F76CC
:104280006520436972636C652053746172742020E9
:10429000202020202020202020202020202020201E
:1042A00020202020202020202020202020202A0A1A
:1042B000000000002A20352E204D6F7665204369CE
:1042C00072636C6520456E64202020202020202011
:1042D00020202020202020202020202020202020DE
:1042E000202020202020202020202A0A000000005A
:1042F0002A20362E204932432048572020202020D3
:1043000020202020202020202020202020202020AD
:10431000202020202020202020202020202020209D
:104320002020202020202A0A000000002A20372EEA
:10433000202020202020202020202020202020207D
:10434000202020202020202020202020202020206D
:10435000202020202020202020202020202020205D
:1043600020202A0A000000002A20382E20202020A9
:10437000202020202020202020202020202020203D
:10438000202020202020202020202020202020202D
:1043900020202020202020202020202020202A0A29
:1043A000000000002A20392E20202020202020205C
:1043B00020202020202020202020202020202020FD
:1043C00020202020202020202020202020202020ED
:1043D000202020202020202020202A0A0000000069
:1043E0002A206D2E20204D656E7520202020202053
:1043F00020202020202020202020202020202020BD
:1044000020202020202020202020202020202020AC
:104410002020202020202A0A000000000A0000009E
:104420003E3E20004C434420436C656172200A00EC
:10443000436F756E74202B2B200A0000536D617240
:1044400074726F626F74204244000000436F756E97
:1044500074203A2025346400436F756E74202D2D2E
:10446000200A000053300A0053312025780A00004A
:1044700053322025780A000053332025780A0000A3
:104480002603530054004D006900630072006F0062
:1044900065006C0065006300740072006F006E00C0
:1044A0006900630073000000120100020200004076
:1044B00083044057000201020301000004030904C1
:1044C0003203530054004D003300320020005600E8
:1044D000690072007400750061006C0020004300E8
:1044E0004F004D00200050006F007200740020004B
:1044F0002000000009024300020100C0320904004C
:104500000001020201000524001001052401000140
:10451000042402020524060001070582030800FFA7
:1045200009040100020A0000000705030240000020
:084530000705810240000000B4
:10453800010100000000000000000000002F000042
:1045480000000700070000147F147F1400242A7F4E
:104558002A120062640813230036495522500000CD
:104568000503000000001C224100000041221C003D
:104578000014083E08140008083E0808000000A0BF
:1045880060000008080808080000606000000020BB
:1045980010080402003E5149453E0000427F400099
:1045A800004261514946002141454B31001814121F
:1045B8007F10002745454539003C4A4949300001EC
:1045C8007109050300364949493600064949291E3B
:1045D800000036360000000056360000000814229D
:1045E800410000141414141400004122140800029D
:1045F8000151090600324959513E007C1211127CC2
:10460800007F49494936003E41414122007F4141EE
:10461800221C007F49494941007F09090901003EE0
:104628004149497A007F0808087F0000417F41001E
:10463800002040413F01007F08142241007F404094
:104648004040007F020C027F007F0408107F003E7C
:104658004141413E007F09090906003E4151215E62
:10466800007F091929460046494949310001017F5F
:104678000101003F4040403F001F2040201F003FF5
:104688004038403F006314081463000708700807A7
:1046980000615149454300007F41410000552A55BA
:1046A8002A55000041417F00000402010204004035
:1046B8004040404000000102040000205454547857
:1046C800007F484444380038444444200038444477
:1046D800487F00385454541800087E090102001815
:1046E800A4A4A47C007F080404780000447D400052
:1046F800004080847D00007F102844000000417F36
:104708004000007C04180478007C08040478003811
:104718004444443800FC242424180018242418FC99
:10472800007C0804040800485454542000043F4402
:104738004020003C4040207C001C2040201C003CC5
:104748004030403C004428102844001CA0A0A07C15
:10475800004464544C440000060909061A03530037
:1047680054004D003300320000000000000000003B
:10477800000000000000000001260008A13B00081E
:10478800A13B0008A13B0008A13B0008A13B000891
:10479800A13B0008A13B0008A13B000875260008C2
:1047A800A13B0008A13B0008A13B0008A13B000871
:1047B800F444000843000000BD2B0008AD2A00089F
:1047C800792900088D29000891290008F129000895
:1047D800152A0008952A00087D2A0008552A00088D
:1047E8000000000040000000A13B0008512900081B
:1047F800A13B0008A13B0008A13B0008A13B000821
:10480800A13B0008A13B000869290008A84400084A
:1048180012000000BC4400080400000080440008A6
:1048280026000000C0440008320000002C020020CE
:104838001A00000000C20100000008000401000086
:04000005080011F1ED
:00000001FF
