:020000040800F2
:1000000000500020750E000808B50020014B9847ED
:1000100008BD00BF8D11000830B50B4B83B0984769
:1000200000240A4880470A4D0A4B4FF47A71022295
:1000300020460094A8472046074A904707480849A9
:100040008847084B9847FEE74D0F000869000008F5
:10005000A115000809000008BD150008E4150008F6
:100060004D0300082D010008704700BF08B5024885
:10007000024B984708BD00BFF01500084D0300086B
:1000800038B5114D114C1248A0472846A0471148D9
:10009000A0472846A0471048A0471048A04710484E
:1000A000A0471048A0471048A0471048A047104854
:1000B000A0471048A0471048A0471048A04728462E
:1000C000A0470F48A04738BD001600084D030008A0
:1000D000FC1500083C16000878160008B416000845
:1000E000F01600082C17000868170008A41700086D
:1000F000E01700081C180008581800089418000899
:100100004819000838B50548054CA047054B9847E5
:1001100005460548A047284638BD00BFD01800084E
:100120004D030008D9100008481900082DE9F041D6
:10013000624E82B0B047624C624D634FDFF8BC81C3
:10014000A0470346002800F08980303B3D2BF7D8BC
:1001500001A252F823F000BFB7020008B102000864
:10016000AB020008A50200089F02000899020008DF
:10017000930200088D0200086D0200086302000867
:100180004101000841010008410100084101000847
:100190004101000841010008410100084101000837
:1001A0004101000841010008410100084101000827
:1001B0004101000841010008410100084101000817
:1001C00041010008410100084101000851020008F6
:1001D00041010008410100084101000841010008F7
:1001E00041010008410100084101000841010008E7
:1001F00041010008410100084101000841010008D7
:1002000041010008410100084101000841010008C6
:1002100041010008410100084101000841010008B6
:1002200041010008410100084101000841010008A6
:100230004101000841010008410100084101000896
:100240004101000841010008410100085102000875
:10025000B047A047034600287FF477AF02B0BDE85F
:10026000F0810120B8471948A84769E71848A8470E
:1002700001204FF0000E4FF47A710222154BCDF899
:1002800000E0C0470120144B984759E71348A8479E
:1002900056E71348A84753E71248A84750E71248C3
:1002A000A8474DE71148A8474AE71148A84747E73C
:1002B0001048A84744E71048A84741E781000008D4
:1002C000050100084D030008D11500083819000881
:1002D000281900086D000008BD1500082019000845
:1002E000181900081019000808190008001900085A
:1002F000F8180008F018000844190008A1150008B3
:1003000010B4E0B10278E2B100220A600378ABB128
:10031000A3F13004E4B2092C02D912E0092C12D85E
:1003200002EB820203EB4202303A0A6010F8013F0E
:10033000A3F1300C5FFA8CF4002BEFD1012010BC3C
:1003400070471046FBE70020F9E700BF0FB42DE926
:10035000F04F8DB00DF1580858F8045BDFF8C492E7
:10036000AE4F2878002800F0CA80252840F0CC80C5
:100370008DF81C0068780135A0F16301CBB2012B28
:1003800040F2FD82732800F0FA82782800F0F782AC
:10039000252800F0F4828DF81D0015F8010FA0F15A
:1003A000630C5FFA8CF2012A40F2F382732800F0AA
:1003B000F082782800F0ED82252800F0EA828DF89E
:1003C0001E0015F8010FA0F16301CBB2012B40F222
:1003D000E282732800F0DF82782800F0DC82252892
:1003E00000F0D9828DF81F0015F8010FA0F1630C01
:1003F0005FFA8CF2012A40F2D082732800F0CD829D
:10040000782800F0CA82252800F0C7828DF82000E5
:1004100015F8010FA0F16301CBB2012B40F2BF82AE
:10042000732800F0BC82782800F0B982252800F0FB
:10043000B6828DF8210015F8010FA0F1630C5FFA68
:100440008CF2012A40F2AD82732800F0AA8278284B
:1004500000F0A782252800F0A4828DF8220015F86C
:10046000010FA0F16301CBB2012B40F29C827328F3
:1004700000F09982782800F09682252800F0938277
:100480008DF8230015F8010FA0F1630C5FFA8CF2D0
:10049000012A40F28A82732800F08782782800F0CF
:1004A0008482252800F081828DF8240015F8010F40
:1004B000A0F16301CBB2012B40F24A84732800F013
:1004C0004784782800F04484252800F041848DF882
:1004D000250015F8010F0135642800F0A58017D814
:1004E000252800F0888063287FF43BAF58F8040B80
:1004F0004B4BC0B29847287800287FF436AF0DB038
:10050000BDE8F04F04B0704745498847013528E7FA
:10051000732873D078287FF424AF58F8042B9DF803
:100520001C3000240B920A94002B00F07184782B6D
:1005300033D02646A246A3F131015FFA81FCBCF11B
:10054000080F54D80CAA02EB060E1EF8142CA2F1C8
:100550003000C3B2092B00F20F82002304A80DF172
:100560001C0E0136C2541EF806200133A2F13001E0
:100570005FFA81FCBCF1090FF3D90DF1300E734421
:100580000AA903F820AC013EB84701360CAA90191D
:1005900010F8143C0BB1782BCDD10B9B0A9A03F4C5
:1005A0007F0003F47F4C011241EA0C2040EA036C07
:1005B0004CEA13610B91002A00F0DF8012F0010F6A
:1005C00000F09782D043083000EBD0714A100BAB9B
:1005D00013F802E01EF00F0300F0D383092B40F262
:1005E000388437330E49184688470021CFE3302B33
:1005F00008BF0124C9E70A4B9847B2E658F8044BF4
:10060000002C3FF4AEAE207800283FF4AAAE044E92
:10061000B04714F8010F0028FAD1A2E60103000840
:10062000A9100008676666669DF81C30002658F819
:1006300004BB0A96002B00F0F380642B00F0F080DE
:100640003446B246A3F131025FFA82FEBEF1080FD2
:1006500000F28F800CA8031913F8142CA2F13001BA
:100660005FFA81FCBCF1090F00F28381002304A82A
:100670000DF11C0E0134C2541EF804200133A2F106
:1006800030015FFA81FCBCF1090FF3D90CAA02EB2F
:10069000030E0AA90EF820AC013CB84701340CA89F
:1006A000031913F8143C0BB1642BCBD10A99002920
:1006B00000F0B680092940F3DD82092007240A9062
:1006C0000621204600F0010E6423421E90B1BEF1C7
:1006D000000F05D0013AB2F1FF3F4FF47A7309D011
:1006E00003EB8303D80000EB4303023A5B00B2F153
:1006F000FF3FF5D19BFBF3FA03FB1ABB002C00F084
:10070000858301F0010264244B1E81B12AB1013BB3
:10071000B3F1FF3F4FF47A7409D004EB8401CA00AF
:1007200002EB4104023B6400B3F1FF3FF5D101232A
:10073000DFF87CA2039535461E469BFBF4F1C8B258
:10074000303004FB11BB002940F01081012C00F077
:100750000D81002E00F00A81302005B92020D047FD
:1007600089FB040EE017C0EBAE04002CE5DC039D12
:10077000F7E5302B08BF012690E79DF82C201309E0
:1007800002F00F0440F0DC82894E0123002C40F07F
:100790009182002B00F045839DF82DC001225FEA75
:1007A0001C130CF00F0400F09482092B40F25C83C0
:1007B00003F13700B0470023002C40F09182002B5A
:1007C00000F032839DF82EE001225FEA1E130EF046
:1007D0000F0400F09482092B40F2298303F13700C3
:1007E000B0470023002C40F09182002B00F02283C0
:1007F0009DF82F000122030900F00F0400F09482FD
:10080000092B40F2948203F13700B047002C00F02E
:100810009282092C40F28F8204F13700B047A0E5A4
:1008200064494FEAEB7681FB0B3C634CC6EB2C73BF
:1008300004FB13BB002B00F0D7805FFA83FE5F4EF2
:100840000EF130005A4CA04786FB0B604FEAEB7369
:100850005B4AC3EB6063002102FB13B6002B00F080
:10086000D2805FFA83FC0CF13000A0475548F317A3
:1008700080FB060E544AC3EBAE53002102FB136605
:10088000002B00F0D080D9B201F13000A0474F48D2
:10089000F31780FB060C4E4AC3EBAC43002102FB6E
:1008A0001366002B00F0CF805FFA83FE0EF130005C
:1008B000A0474848F31780FB060C474AC3EB6C334C
:1008C000002102FB1366002B00F0CD80D9B201F1AC
:1008D0003000A0474148F31780FB060242F2107E29
:1008E000C3EB223300210EFB1366002B00F0CC80FB
:1008F0005FFA83FC0CF13000A0473948F31780FB06
:1009000006024FF47A7EC3EBA21300210EFB13669E
:10091000002B00F0CA80D9B201F13000A047314865
:10092000F31780FB060C6422C3EB6C13002102FB5F
:100930001366002B00F0C9805FFA83FE0EF13000D1
:10094000A04789FB063CF317C3EBAC0303EB830220
:100950000021A6EB4206002B00F0C780D9B201F1BE
:100960003000A047F0B23030A047FAE4D04700266C
:10097000F6E6002304A889E6002304A8FDE5012388
:100980000CA901EB030C00220CF8140C0CF8132C2E
:10099000A1E50223F4E70323F2E70423F0E70523AC
:1009A000EEE70623ECE70723EAE70823E8E700BFC2
:1009B000A9100008A12FB84400CA9A3B893BE6550C
:1009C00000E1F5056BCA5F6B8096980083DE1B43E0
:1009D00040420F0089B5F814A0860100AD8BDB689A
:1009E000D34D62101F85EB51A64E4FEAEB7386FB89
:1009F0000B60A54AC3EB6063A44C012102FB13B654
:100A0000002B7FF42EAF00293FF42BAFA048F31743
:100A100080FB060E9F4AC3EBAE53012102FB136617
:100A2000002B7FF430AF00293FF42DAF9A48F31725
:100A300080FB060C994AC3EBAC43012102FB136611
:100A4000002B7FF431AF00293FF42EAF9448F31709
:100A500080FB060C934AC3EB6C33012102FB136647
:100A6000002B7FF433AF00293FF430AF8E48F317EB
:100A700080FB060242F2107EC3EB223301210EFB03
:100A80001366002B7FF434AF00293FF431AF874861
:100A9000F31780FB06024FF47A7EC3EBA213012109
:100AA0000EFB1366002B7FF436AF00293FF433AF03
:100AB0007F48F31780FB060C6422C3EB6C13012103
:100AC00002FB1366002B7FF437AF00293FF434AFED
:100AD00089FB063CF317C3EBAC0303EB8302012154
:100AE000A6EB4206002B7FF439AF00297FF43AAF22
:100AF00034E70121C2F1080C0CEBDC725210032A1E
:100B00003FF72FAC0DF12C0B0BEB02031BF802E0AF
:100B1000D84300F0010603965E1C5FEA1E100DF13B
:100B2000300BDFF868A10EF00F0240F013810029AE
:100B300000F09881002C40F0548120200292019313
:100B4000D047029A0121019B002A00F01081092A56
:100B500040F2858102F137000193D047019B0022CA
:100B60005E453FF4FEAB0398F0B193F801C0013647
:100B70005FEA1C110CF00F0300F02481092940F2F8
:100B80006B8101F137000193D047019B0022002BBC
:100B900000F01181092B40F2598103F13700D04751
:100BA00000225E453FF4DDAB039516F8013B254678
:100BB00003F00F041B092ED0092B40F2448103F1EE
:100BC0003700D0470023002C30D0092C40F2388168
:100BD00004F13700D047002216F8011B0B0901F081
:100BE0000F0432D0092B40F2198103F13700D047AE
:100BF0000023002C34D0092C40F20D8104F1370081
:100C0000D04700225E453FF4B2AD16F8013B03F039
:100C10000F041B09D0D1002A00F01581002D00F02F
:100C2000C6803020D0470123002CCED1002B00F00D
:100C30000781002D00F0B7803020D04716F8011B47
:100C400001220B0901F00F04CCD1002A00F0E6804C
:100C5000002D40F0A0802020D0470123002CCAD1D5
:100C6000002B00F0D880002D40F099802020D04744
:100C70000122C7E7481E00F0C5808C1E01380339E9
:100C800020E500BF893BE65500E1F505A910000805
:100C90006BCA5F6B8096980083DE1B4340420F0057
:100CA00089B5F814A0860100AD8BDB68D34D6210C6
:100CB0001F85EB51092C40F2B48004F13700B04796
:100CC0009DF82DC000225FEA1C130CF00F047FF486
:100CD0006CAD002A00F0C8800123002C3FF46FADFA
:100CE000092C40F2A18004F13700B0479DF82EE0B6
:100CF00000225FEA1E130EF00F047FF46CAD002A91
:100D000000F095800123002C3FF46FAD092C40F2D8
:100D1000918004F13700B0479DF82F0000220309AD
:100D200000F00F047FF46CAD002A7FF46FAD03F187
:100D30003000B0476AE504F13000B047FFF711BB5F
:100D4000092B7AD903F13700494EB04700231DE53E
:100D5000092315E6092840F2858037300292019375
:100D6000D047029A0021019B002A7FF4F0AE0029AF
:100D700075D0002C2FD101932020D0470122019B58
:100D8000EEE6002C39D03020394A904701210A98EC
:100D9000421E0A92AEE63020D047012329E73020D8
:100DA000D04701222EE72020D047012214E720203F
:100DB000D047012307E7002A48D0D4B92020D047E4
:100DC0000122EEE6002A47D06CB901932020D047DB
:100DD0000122019BDBE601933020D0470122019BD9
:100DE000BEE63020AAE601933020D0470122019BC5
:100DF000CDE63020D0470122D3E620201C4B984777
:100E00000121C4E78C1E0A23033973E40A248EE40B
:100E10001C46FFF7C2BB04F13000F1E603F13000DD
:100E2000E5E604F130004AE704F130005DE703F144
:100E30003000D5E404F130006DE703F1300083E7C2
:100E400004F13000C6E603F13000BAE603F13000E9
:100E5000A5E63033FFF7C6BB01F1300093E602F19F
:100E6000300079E6303079E703F13000A2E400BFCA
:100E7000A9100008684620F007018D4679B52B4976
:100E80002B4CA14221D22B480B46024652F8046B50
:100E9000CD4343F8046B6519A342C5F3800514D212
:100EA0003DB1156800F108021D6001F10803A3427D
:100EB0000BD2104650F8045B194641F8045B5568A4
:100EC000021D5D600B1DA342F3D31E481E494FF067
:100ED00000028842B8BF40F8042BFADB1649002311
:100EE00008680A4640F48030086006E0106810F494
:100EF000003F07D1B3F5A06F04D01168023311F49D
:100F0000003FF3D00D490B6843F0100008600A68F9
:100F100022F003030B600868094B40F002020A60EC
:100F20009847BDE879408546704700BF0000002023
:100F3000000000204C190008001002400020024070
:100F400019000008000000209003002008B50C489C
:100F500080470C4B98470C480C494FF033320260E5
:100F60000B4B4160C0F80024C0F80424094A0A4928
:100F70001A60884709488047094B984708BD00BF59
:100F8000E9100008D112000800080140B3343333DF
:100F90000410014044444433411000084D1100083E
:100FA0004D13000800B5054883B0026802A900206F
:100FB00001F8012D024B984703B000BD04380140F1
:100FC000ED11000870B5124D124C2B68002243F44D
:100FD00080462E600C2525600F4D104B40F2712687
:100FE0002A606A6045F8086C1E680D4D46F02006C0
:100FF0001E602368686043F02003A96025202360F9
:101000000849094B9847206840F40053236070BD9D
:10101000181002400C3801401038014004E100E093
:101020007C000020A50F0008E112000808B518B9DF
:101030000846024B1146984708BD00BFC50F00087F
:1010400010B50A480A4C8047002318461A466360C8
:10105000A36023616361E3612362A362E36263636C
:10106000A3634FF4E131034B984710BDA111000871
:101070007C0000202D10000830B5002383B0084DFF
:1010800004468DF807302046A8470028FBD02046AC
:101090000DF10701034A90479DF8070003B030BDEA
:1010A000B9110008611200080A2808D0084AC0B225
:1010B000136813F0800FFBD0064A10607047044A93
:1010C000136813F0800FFBD002490D220A60EDE790
:1010D000003801400438014008B50020014B984712
:1010E00008BD00BF79100008154B164918680A465C
:1010F00020F47C101860186840F4E8101860086844
:1011000040F080730B60116811F0007FFBD00C4B36
:1011100019681A4621F003001860196841F00200AE
:101120001860136803F00C0CBCF1080FF9D1064AE3
:10113000136843F4804141F01D001060704700BF08
:101140000410024000100240181002400C4A0D4BDF
:1011500010680D4920F0E0601060106840F0806079
:1011600010601A6822F4704018601A6842F4405007
:1011700018601A681A60086840F008030B6070472E
:1011800004000140000C01400C0C014020B9034B4D
:10119000186880F008021A60704700BF0C0C01400C
:1011A0000349044A00230B8013804B80538070470F
:1011B000D4000020D8000020094B0A4A33F910302F
:1011C00032F910100A3308485B1A80FB032CDA1737
:1011D000C2EBAC0101EB8100A3EB4000704700BF04
:1011E000D8000020D400002067666666184BF0B473
:1011F000184E33F8107036F910203DB205F10A048C
:10120000154EA21A86FB024CD417C4EBAC0404EBB7
:101210008404A2EB4402092A17D07C1C27B286FB67
:10122000072CFC1700EB8002C4EBAC06097800EB3E
:10123000420C06EB8606094A6544A7EB460723F8ED
:10124000107051550120F0BC70470020FBE700BF33
:10125000D8000020D400002067666666B800002031
:10126000F0B4174B174D33F81070024635F91000E3
:10127000154E0A303DB2401B86FB004CC417C4EB30
:10128000AC0404EB8404B0EB440017D001373FB248
:1012900086FB070C02EB8204FE170C4802EB4404A9
:1012A000C6EBAC06651910F805C006EB8606A7EB81
:1012B000460781F800C0012023F81270F0BC704787
:1012C000D4000020D800002067666666B8000020C1
:1012D000014B024A1A60704708ED00E0000200204E
:1012E000024B103043F82010704700BF000200206E
:1012F000024B800843F82010704700BF0002002016
:1013000008B53C2002490022024B984708BD00BFA7
:1013100095150008F1120008094A0A490A4B0020F5
:1013200011605060196841F0040018601A6842F0BA
:1013300002011960186840F001021A60704700BF8E
:1013400014E000E03F19010010E000E010B51A4C75
:101350002378012B2ED0194B0020187058809880CC
:101360009860187458829882986183F82000588495
:101370009884986283F8300058869886986383F83A
:101380004000A3F84200A3F84400986483F850009A
:10139000A3F85200A3F85400986583F86000A3F8FE
:1013A0006200A3F864009866054A9047054988479B
:1013B0000120207010BD00BF700000200000002040
:1013C000011300081913000810B56F4C6F4A236809
:1013D000591C2160108883B213B11188481E1080F7
:1013E0006B4C2278012A1ED0237C694A012B30D015
:1013F00094F82030664A012B41D094F83030644A8A
:10140000012B52D094F84030614A012B63D094F8FC
:1014100050305F4A012B76D094F860305C4A012B43
:1014200000F08A8010BD6088431E9BB26380002B51
:10143000DAD194F801C0BCF1010F00F09680B4F845
:1014400004E0A168A4F802E08847237C504A012BFD
:10145000CED1518A481E83B25382002BC8D192F854
:1014600011C0BCF1010F7ED0B4F814E0A269A4F859
:1014700012E0904794F82030454A012BBDD1518CA1
:10148000481E83B25384002BB7D192F821C0BCF11F
:10149000010F75D0B4F824E0A26AA4F822E09047C6
:1014A00094F830303A4A012BACD1518E481E83B2A9
:1014B0005386002BA6D192F831C0BCF1010F5CD04D
:1014C000B4F834E0A26BA4F832E0904794F84030CE
:1014D0002F4A012B9BD1B2F84210481E83B2A2F8CA
:1014E0004230002B93D192F841C0BCF1010F41D0A2
:1014F000B4F844E0A26CA4F842E0904794F850306D
:10150000234A012B88D1B2F85210481E83B2A2F8A8
:101510005230002B80D192F851C0BCF1010F26D07F
:10152000B4F854E0A26DA4F852E0904794F860300B
:10153000174A012B7FF476AFB2F86210481E83B2CF
:10154000A2F86230002B7FF46DAF92F861E0B4F83E
:1015500064C0BEF1010F08BF82F86030A4F862C019
:10156000A26E904710BD13747EE7237067E782F880
:101570005030D5E782F84030BAE782F830309FE744
:1015800082F8203086E700BF740000207800002039
:101590000000002008B5014B984708BDC91300089A
:1015A00010B4054C04EB001042708360019B418035
:1015B000C360818010BC704700000020062803D85B
:1015C000024B000101221A54704700BF00000020A6
:1015D000062803D8024B000100221A54704700BFAE
:1015E00000000020526164696F2056302E310A00DD
:1015F00054696D6572205469636B0A000A0A000021
:101600002A2A2A2A2A2A2A2A2A2A2A2A2A2A2A2A3A
:101610002A2A2A2A2A2A2A2A2A2A2A2A2A2A2A2A2A
:101620002A2A2A2A2A2A2A2A2A2A2A2A2A2A2A2A1A
:101630002A2A2A2A2A2A2A0A0000000020202020FA
:10164000202020202020202020202020202020209A
:101650002020526164696F2056302E3120202020D6
:10166000202020202020202020202020202020207A
:101670002020200A000000002A20312E2020426174
:101680006E642053656C6563742020202020202028
:10169000202020202020202020202020202020204A
:1016A00020202020202020202020202020202A0A46
:1016B000000000002A20322E20204348202B2B201F
:1016C000202020202020202020202020202020201A
:1016D000202020202020202020202020202020200A
:1016E000202020202020202020202A0A0000000086
:1016F0002A20332E20204348202D2D20202020205A
:1017000020202020202020202020202020202020D9
:1017100020202020202020202020202020202020C9
:101720002020202020202A0A000000002A20342E19
:1017300020204175746F20536561726368202B20EF
:101740002020202020202020202020202020202099
:101750002020202020202020202020202020202089
:1017600020202A0A000000002A20352E2020417562
:10177000746F20536561726368202D202020202023
:101780002020202020202020202020202020202059
:1017900020202020202020202020202020202A0A55
:1017A000000000002A20362E2020566F6C756D65D3
:1017B000202B20202020202020202020202020201E
:1017C0002020202020202020202020202020202019
:1017D000202020202020202020202A0A0000000095
:1017E0002A20372E2020566F6C756D65202D202005
:1017F00020202020202020202020202020202020E9
:1018000020202020202020202020202020202020D8
:101810002020202020202A0A000000002A20382E24
:10182000202054696D6572205374617274202020E9
:1018300020202020202020202020202020202020A8
:101840002020202020202020202020202020202098
:1018500020202A0A000000002A20392E2020546966
:101860006D65722053746F7020202020202020206E
:101870002020202020202020202020202020202068
:1018800020202020202020202020202020202A0A64
:10189000000000002A206D2E20204D656E7520204E
:1018A0002020202020202020202020202020202038
:1018B0002020202020202020202020202020202028
:1018C000202020202020202020202A0A00000000A4
:1018D00073656C6563742074686520636F6D6D61FA
:1018E0006E64206E756D626572203A200000000003
:1018F0004E6F2E310A0000004E6F2E320A0000009B
:101900004E6F2E330A0000004E6F2E340A00000086
:101910004E6F2E350A0000004E6F2E360A00000072
:101920004E6F2E370A00000054696D6572205374A3
:101930006172740A0000000054696D65722053746E
:0C1940006F700A004E6F2E300A0000008D
:0400000508000E756C
:00000001FF
